:0200000480007A
:100000009705000093850525732510FC6B10B5003E
:10001000EF000024130510006B00050017550100C8
:100020001305C5A317560100130606B33306A640F1
:1000300093050000EF001005170500001305457536
:10004000EF004070EF00407AEF0080006F00C0705A
:1000500037350180130101FC130505CD232E110254
:10006000232C8102232A91022328210323263103F2
:1000700023244103EF00C04237350180130545CEEC
:10008000EF00004237590180370A0080B7440180F1
:10009000B74701809387870013044000930989A61E
:1000A000938484041306C10093054A1513050001C7
:1000B0002326F10023289100232A3101232C8100DB
:1000C000232E8100EF008051032681018325C10189
:1000D000130589A6EF00000B1306C10093054A150E
:1000E000130500012326310123289100232A310121
:1000F000232C8100232E8100EF00404E0326810136
:100100008325C101130589A6EF00C007373501809B
:10011000130545CFEF00C03C8320C10303248103B6
:1001200083244103032901038329C102032A810295
:10013000130500001301010467800000930700000D
:1001400063880700370500801305C5786F00805F5E
:100150006780000083A7450003A70500131525004D
:10016000B386A7003307A70083A7850003270700EE
:1001700083A606003385A700B307D7002320F50028
:1001800067800000130101FD232291029304050002
:100190003735018023286101130505CB138B05003A
:1001A000232C410123261102232481022320210331
:1001B000232E3101232A5101232671012324810199
:1001C000130A0600EF00C02D63586005931B2A0038
:1001D000B30A4041B3847401939A2A009309000042
:1001E000373C01803739018033845401635C40011E
:1001F00083250400130589CC13044400EF00402A32
:10020000E31894FE13050CCE93891900EF004029E2
:10021000B3847401E31A3BFD8320C10203248102ED
:1002200083244102032901028329C101032A810198
:10023000832A4101032B0101832BC100032C810080
:100240001301010367800000130500006B00050027
:10025000732500FC6B000500974101009381015B51
:100260001701007F130101DA93050040732610CCBB
:10027000B385C5023301B140F32630CC6386060056
:10028000130500006B000500678000006306052071
:10029000130101F52324810A232E31092326110A93
:1002A0002322910A2320210B232C4109232A5109BF
:1002B00023286109232671099309050003450500D8
:1002C000138419006306051CB7340000B73A018097
:1002D000138A05001309500293849480938A0AD0EC
:1002E00063042505EF00004403450400130B1400CC
:1002F00013040B00E31605FE330534418320C10AC5
:100300000324810A8324410A0329010A8329C1099C
:10031000032A8109832A4109032B0109832BC10880
:100320001301010B67800000130B04001306D000BB
:100330009306100003470B0013050B00130B1B0063
:10034000930707FE93F7F70F6368F600B397F6007D
:10035000B3F79700E39007FE9307A002630AF70044
:100360001306A00093050104EF001001032B010404
:1003700083470B001307E00213051B00638EE70C95
:10038000938747FB93F7F70F1307E0026364F702C5
:1003900093972700B387570183A70700678007005B
:1003A00003471B0093078006630AF708130B050039
:1003B000130515002300210533058540635AA00865
:1003C00093070400130711043306A40083C6070033
:1003D0009387170013071700A30FD7FEE398C7FEF4
:1003E0001305150093070108B387A70093060A00B9
:1003F000130601049305001013050100238007FC78
:10040000EF00900513040100B30BA100635AA00094
:100410000345040013041400EF00C030E39A8BFE80
:1004200003451B0013042B00E31C05EA6FF0DFEC0F
:1004300003471B009307C006E31AF7F613053B00BA
:100440002300210533058540130B2B00E34AA0F65A
:10045000130510006FF01FF903471B009307A0025C
:10046000631AF70083472B0013053B00130B2B0087
:100470006FF01FF11306A00093050104EF00C06F99
:10048000032B010483470B0013051B006FF05FEF84
:10049000130510006FF09FE61305F0FF6780000062
:1004A000130101FC130341022322B102930503004F
:1004B000232E11002324C1022326D1022328E10286
:1004C000232AF102232C0103232E1103232661008A
:1004D000EFF0DFDB8320C10113010104678000001E
:1004E000130101FF232481002326110013040500BA
:1004F00003450500630C05001304140013041400E5
:10050000EF0040220345F4FFE31A05FE8320C100FB
:10051000032481001301010167800000130101FE23
:10052000232E1100232C8100232A9100232821014E
:1005300023263101F32700FC6B800700F32650CC03
:10054000F32930CC732700CC732600FCB757018009
:1005500093962600938707ADB387D70083A407003F
:1005600003A4040183A6C40033A9890093070400EF
:100570003309D9003384360363D4F9009387090023
:100580003304F40083A684003304C402B307E902F1
:100590003304D4003304F40033098900635E24017A
:1005A00083A7040083A5440013050400130414006A
:1005B000E7800700E31689FE93B919006B800900F4
:1005C0008320C10103248101832441010329010106
:1005D0008329C1001301010267800000130101FC9F
:1005E000232E1102232C8102232A91022328210386
:1005F00023263103F32620FC732810FC732400FC0F
:10060000F32750CC1307F0016344F70CB30804033D
:100610001307100063D4A8003347150363C8E60C22
:1006200063D8E70A9386F6FF3343E5029308030095
:100630006396F6003365E502B3086500B3C488022B
:1006400033E9880263CA040B9306100033C704031E
:10065000630607009306070033E70403B7590180D8
:10066000938909AD232EE1001307C1002326B100B1
:100670002328C100232CD1003303F30293972700D2
:10068000B387F90023A0E700232A6100634C90069A
:100690006300090433848402232A81006B0009006B
:1006A000F32750CC732520CC93972700B389F9000A
:1006B00083A7090083A6870003A7070083A5470037
:1006C0003305D500E7000700930710006B80070093
:1006D0008320C103032481038324410303290103ED
:1006E0008329C102130101046780000013870600FB
:1006F000E3CAE7F26FF0DFFD130700009306100076
:100700006FF0DFF5138704006354980013070800A7
:10071000B70700809387C7516B10F700EFF01FE019
:100720006FF01FF7974201009382429683A2020066
:10073000732320CC131303013363A30023A06200AF
:100740006780000093050500930600001306000073
:10075000130500006F004052130101FF93050000D4
:10076000232481002326110013040500EF00805A82
:10077000B757018003A587A48327C50363840700B7
:10078000E780070013050400EFF01FAC130101FF21
:1007900023248100B74701803744018013044400BB
:1007A00093874700B38787402322910023261100B7
:1007B00093D42740638004029387C7FF3384870064
:1007C000832704009384F4FF1304C4FFE780070029
:1007D000E39804FE8320C1000324810083244100A8
:1007E0001301010167800000130101FF2324810030
:1007F00023202101374401803749018093070400F9
:10080000130909003309F94023261100232291001E
:1008100013592940630009021304040093040000E3
:10082000832704009384140013044400E780070026
:10083000E31899FE3744018037490180930704008B
:10084000130949003309F94013592940630009028B
:10085000130404009304000083270400938414000D
:1008600013044400E7800700E31899FE8320C100C9
:1008700003248100832441000329010013010101A5
:10088000678000001303F00013070500637EC302B6
:100890009377F7006390070A63920508937606FF43
:1008A0001376F600B386E6002320B7002322B700B4
:1008B0002324B7002326B70013070701E366D7FEFA
:1008C0006314060067800000B306C34093962600B9
:1008D00097020000B38656006780C6002307B70062
:1008E000A306B7002306B700A305B7002305B7008A
:1008F000A304B7002304B700A303B7002303B70082
:10090000A302B7002302B700A301B7002301B70079
:10091000A300B7002300B7006780000093F5F50F30
:1009200093968500B3E5D50093960501B3E5D50010
:100930006FF0DFF69396270097020000B38656000B
:1009400093820000E78006FA93800200938707FFF6
:100950003307F7403306F600E378C3F66FF0DFF3B2
:10096000130101FF232611002324810093071000A7
:10097000638EF60A93074002938F060063E8D70A56
:1009800037330180938705001303D3DB03C70700C8
:10099000138E0700938717003308E300834808008D
:1009A00093F88800E39408FE1308D0026308071543
:1009B0001308B002630C0709B70200801308070090
:1009C00093C2F2FF13040000638E060813070001B0
:1009D0006386E614B3F3F2039308000013030000E8
:1009E000130E9000130F9001B3DEF203130708FDFE
:1009F0006378EE001307F8FB6360EF0A130798FCB7
:100A00006354D70A63C608089308F0FF63EA6E00D0
:100A100063826E0C930810003303F3033303670003
:100A20009387170003C8F7FF6FF05FFCEF00C0402B
:100A30008320C10003248100930760012320F50077
:100A4000130500001301010167800000B702008058
:100A500003C8070093C2F2FF93072E00130400009F
:100A6000E39606F6130700036314E80A03C70700BA
:100A7000930680051377F70D631ED70A03C8170086
:100A8000930F000193872700930600016FF09FF4F6
:100A90009308F0FF6FF0DFF81307F8F96366EF00D3
:100AA000130798FAE340D7F663CA08026304040008
:100AB0003303604063060600639A08062320B600ED
:100AC0008320C100032481001305030013010101E9
:100AD00067800000E3C6E3F46FF0DFF31307200242
:100AE0002320E50013830200E30C06FC9385F7FF47
:100AF000138302002320B6006FF09FFC03C8070099
:100B0000B702008093072E00130410006FF0DFEB94
:100B1000930FA0009306A0006FF0DFEB1307000314
:100B20006300E802930F00016FF0DFEA9302030015
:100B30006FF0DFFB930F8000930680006FF09FE95A
:100B400003C70700930880051377F70DE30817F331
:100B5000930F00016FF01FE86FF09FE0375701809F
:100B6000930705000325C7A4930606001386050016
:100B7000938507006FF0DFDE37570180930705008C
:100B80000325C7A493060600138605009385070076
:100B90006FF01FDD130101F8232C8106232E1106AF
:100BA000232A91069307060013040500634E0608E6
:100BB000138606009306070013078020231AE1001E
:100BC0002324B100232CB100638407049387F7FF2B
:100BD0009304F0FF930581002328F100232EF100F8
:100BE000231B9100EF000026635695009307B00881
:100BF0002320F40083278100238007008320C1077E
:100C00000324810783244107130101086780000042
:100C10009304F0FF9305810023280100232E010097
:100C2000231B9100EF000022635695009307B00844
:100C30002320F4008320C107032481078324410774
:100C400013010108678000009307B0082320F50016
:100C50001305F0FF6FF01FFE375701809307050063
:100C60000325C7A413870600930606001386050014
:100C7000938507006FF01FF2B757018003A787A481
:100C800083278714638C070403A747001308F00128
:100C9000634EE80613182700630605023383070135
:100CA0002324C30883A88718130610003316E60010
:100CB000B3E8C80023A417192324D31093062000F7
:100CC0006304D5021307170023A2E700B3870701C7
:100CD00023A4B70013050000678000009307C71422
:100CE0002324F7146FF05FFA83A6C71813071700C1
:100CF00023A2E70033E6C60023A6C718B38707017F
:100D000023A4B70013050000678000001305F0FF5F
:100D100067800000130101FDB7570180232C4101BA
:100D200003AA87A4232021032326110203298A145E
:100D30002324810223229102232E3101232A5101EF
:100D40002328610123267101232481016300090402
:100D5000130B0500938B0500930A10009309F0FF15
:100D6000832449001384F4FF634204029394240013
:100D7000B304990063840B0483A744106380770550
:100D80001304F4FF9384C4FFE31634FF8320C102ED
:100D90000324810283244102032901028329C10122
:100DA000032A8101832A4101032B0101832BC10006
:100DB000032C810013010103678000008327490091
:100DC00083A644009387F7FF638E870423A2040061
:100DD000E38806FA8327891833978A00032C490091
:100DE000B377F70063920702E78006000327490004
:100DF00083278A1463148701E304F9F8E38807F86A
:100E0000138907006FF0DFF58327C91883A544080D
:100E10003377F700631C070013050B00E78006001B
:100E20006FF0DFFC232289006FF09FFA1385050025
:100E3000E78006006FF09FFBB757018003A5C7A4AA
:100E400067800000130101E12326111E232A511D92
:100E50002328611D2320A11D138B0500130D0600FF
:100E60002326D1002324811E2322911E2320211F0B
:100E7000232E311D232C411D2326711D2324811D6A
:100E80002322911D232EB11B930A0500EF50D0277A
:100E900083270500138507002320F104EF700071FC
:100EA0008357CB002328010E232A010E232C010E89
:100EB000232E010E93F70708232EA1026388070053
:100EC00083270B01639407006F10C05BB737018065
:100ED000938747F0232AF10083470D00930BC1103D
:100EE000B73901802322710F2326010E2324010E1E
:100EF00023280100232C010023220104232C0102BA
:100F000023240104232601042322010093880B00DB
:100F1000938909086380072213040D009306500289
:100F20006382D73C8347140013041400E39A07FE3E
:100F3000B304A4416300A4218326C10E8327810E3C
:100F400023A0A801B38696009387170023A29800D8
:100F50002326D10E2324F10E930670009388880077
:100F600063CAF6380327410083470400330797001C
:100F70002322E1006380071C83441400A303010CB7
:100F8000130414001303F0FF130A000013090000F8
:100F9000130CA005930C9000930DA00213041400F1
:100FA000938704FE6364FC040327410193972700A1
:100FB000B387E70083A7070067800700130A0000D4
:100FC000938704FD8344040093162A00338A460164
:100FD000131A1A00338A4701938704FD130414007F
:100FE000E3F2FCFE938704FEE370FCFC63840414CC
:100FF00023069114A303010C130C1000930C100092
:10100000130DC114930D00001303000023260102E9
:10101000232A010223280102937F290063840F0001
:10102000130C2C00137F49088327C10E63160F0091
:1010300033088A41E34000738346710C638A0602D9
:101040008326810E1306710C23A0C8009387170016
:10105000130610009386160023A2C8002326F10E63
:101060002324D10E13067000938888006340D66055
:10107000638C0F028326810E1306810C23A0C80007
:1010800093872700130620009386160023A2C8002A
:101090002326F10E2324D10E1306700093888800B6
:1010A0006354D6006F00107B93060008E302DF4E06
:1010B00033039341E34A605A93760910E39E06385E
:1010C0000327810EB387970123A0A80113071700F8
:1010D00023A298012326F10E2324E10E930670002B
:1010E00063C0E66E9388880013794900630609009F
:1010F000B3048A416346906E63548A01130A0C005C
:1011000003274100330747012322E100E39C0760E6
:101110002324010E63880D0093850D0013850A00BA
:10112000EF20D01293880B00130D040083470D00AD
:10113000E39407DE8327C10E638407006F109039A4
:101140008357CB0093F70704638407006F20803F29
:101150008320C11E0324811E032541008324411ED8
:101160000329011E8329C11D032A811D832A411DD4
:10117000032B011D832BC11C032C811C832C411CC0
:10118000032D011C832DC11B1301011F678000006B
:1011900013850A00232E110123246100EF50C0762D
:1011A00083274500138507002326F104EF700040D4
:1011B0009307050013850A00938407002324F10494
:1011C000EF50807483278500032381008328C101A9
:1011D000232CF102638404006F10C01583440400C3
:1011E0006FF0DFDB83440400136909026FF01FDB3B
:1011F00013690901937709026388076C8327C1008B
:101200009387770093F787FF03A7470083AD070015
:10121000938787002326F100930C07006340076E35
:101220001307F0FF130C0900E30CE30033E79D0103
:10123000137CF9F7E3160700E31A030013090C0007
:1012400013030000930C0000130D011B138C0C0002
:1012500063D46C00130C03008347710C2326010236
:10126000232A010223280102930D0000E38607DAF6
:10127000130C1C006FF05FDA136909019377090200
:10128000638C07608327C10013877700137787FF7C
:10129000832D0700832C4700930787002326F10046
:1012A000137CF9BF13070000A303010C9306F0FFA2
:1012B000630AD366B3E69D011379FCF7E398064809
:1012C000E31E0312E31E07F6937C1C00130D011BA3
:1012D000E38E0CF693070003A307F11A130DF11A1E
:1012E0006FF0DFF6B304A441E318A4C583470400FC
:1012F0006FF05FC81306410E93050B0013850A00BB
:10130000EF70003EE31E05E293880B006FF09FC56F
:1013100093778900638407006F1080078327C100DB
:101320001305010B232E11019387770093F787FF95
:1013300083A5070003A64700938787002324610045
:101340002326F100EF10C1218327010B8328C1015F
:10135000032381002328F10E8327410B232AF10E5A
:101360008327810B232CF10E8327C10B232EF10E33
:101370001305010F232E110123246100EF500052A9
:101380002326A10C93072000032381008328C10199
:101390006314F5006F10C05E930710006314F5002E
:1013A0006F109000930710066394F4006F204012B2
:1013B000930710046394F4006F10D04693FCF4FD7F
:1013C0009307F0FF232C91076314F3006F1090151F
:1013D000930770046394FC006F208017032EC10FE5
:1013E00023242107832E010F032F410F832F810F09
:1013F0009367091063540E006F20002A232E010604
:1014000013890700930D0000930760046394FC00A8
:101410006F10D02193075004232411036384FC0030
:101420006F10D029930C1300130C010B1308C10D7E
:1014300093860C009307010D1307C10C13062000BF
:1014400093050C0013850A00232261022328D10B87
:101450002320D103232AE10B232EE101232CF10BBE
:101460002328F101232EC10B2324C101EF40C01614
:10147000032E8100832F0101032FC101832E01025E
:10148000032341028328810233089501130D0500CF
:10149000930C010A93850C0013050C00232E010107
:1014A00023281101232461002328D10B232AE10BD7
:1014B000232CF10B232EC10B2320010A2322010A26
:1014C0002324010A2326010AEFD090430328C101F7
:1014D00003238100832801019307080063020502AA
:1014E0008327C10D63FE07011306000393861700CF
:1014F000232ED10C2380C7008327C10DE3E807FF0B
:101500000327C10CB387A7412328F1002328E10258
:1015100003278107930770046314F7006F105002CC
:1015200003278107930760046314F7006F105027A7
:101530008327010303278107930510049387F7FF8F
:101540002326F10C93F6F40F130600006318B7007E
:101550009386F60093F6F60F13061000230AD10CBB
:101560009306B00263DA0700032701039307100014
:101570009306D002B387E740A30AD10C93069000EC
:1015800063C4F6006F2000231308310E1305080012
:101590001306A000130E3006B3E6C702930505003C
:1015A000138307001305F5FF93860603A38FD5FE6B
:1015B000B3C7C702E3426EFE9387070313F6F70F24
:1015C000A30FC5FE9387E5FF63E407016F20403357
:1015D0009306610D6F00800003C607002380C600DC
:1015E0009387170093861600E39807FF9307510E21
:1015F000B387B7401307610DB307F7009306410D9A
:10160000B387D7402322F104032701018326410435
:1016100093071000B30CD70063C4E7006F20801C51
:101620008327C103B38CFC008327810613CCFCFF06
:10163000135CFC4113F9F7BF1369091033FC8C01EB
:1016400023260102232A0102232801028327C1073E
:10165000639407006F1000769307D002A303F10C88
:1016600013030000130C1C006FF01F9B1306410EA8
:1016700093050B0013850A0023206102232EE1014C
:101680002324F101EF70C005E318050A8327C10E7A
:1016900003230102032FC101832F810093880B00D4
:1016A0006FF01F9D0326810E032701019306100092
:1016B00023A0A8019387170093041600938C880039
:1016C000E3DCE6329306100023A2D8002326F10EB5
:1016D0002324910E93067000E3C6963E0327C103B0
:1016E0008326010493841400B387E70023A0DC0061
:1016F00023A2EC002326F10E2324910E9306700002
:10170000938C8C00E3C2963E8326010F138814004D
:101710009305010A2328D10A8326410F1305010BE3
:10172000232EF100232AD10A8326810F23240101CD
:101730002320010A232CD10A8326C10F2322010A68
:101740002324010A232ED10A2326010AEFD0501B9D
:10175000832701010328810093888C009386F7FF7B
:10176000130608008327C101E30C052A13071D0097
:10177000B387D70023A0EC0023A2DC002326F10EC0
:101780002324010F13077000E34A077713870C0126
:1017900013862400938C08009308070083264104D5
:1017A0001307410D23A0EC00B387F60023A2DC0051
:1017B0002326F10E2324C10E13077000E356C792AF
:1017C0001306410E93050B0013850A00EF6050715C
:1017D000631405768327C10E93880B006FF0DF90AA
:1017E000930600010327810E63C496006F10D00298
:1017F000B7360180938E060713090001930C700021
:101800006F00C000938404FF635A99049387070113
:101810001307170023A0D80123A228012326F10EC5
:101820002324E10E93888800E3DEECFC1306410ECE
:1018300093050B0013850A002324D101EF60506A41
:10184000631C056E938404FF8327C10E0327810E5A
:10185000832E810093880B00E34A99FAB38797009F
:101860001307170023A0D80123A298002326F10E06
:101870002324E10E93067000E3D0E6881306410EA0
:1018800093050B0013850A00EF6090656316056AE7
:101890008327C10E6FF05F868326C100937709010D
:1018A00013874600E39E072C93770904639407008F
:1018B0006F10C02D8327C100930C00002326E10088
:1018C00083DD07006FF0DF9D8326C1009377090158
:1018D00013874600E39C0728937709046394070065
:1018E0006F1000278327C1002326E100839D070096
:1018F00093DCFD4113870C00E35407923337B001AA
:10190000B3079041B38CE7401307D002A303E10C67
:101910009306F0FFB30DB041130C0900130710003C
:10192000E31AD39893061000630CD7109306200097
:101930006302D72E130D011B1396DC0193F67D0075
:1019400093DD3D0093860603B36DB60193DC3C0046
:10195000A30FDDFE33E69D0193050D00130DFDFF82
:10196000E31C06FC93771C006380072E930700039B
:10197000638CF62C9385E5FFA30FFDFE9307011BF7
:10198000B38CB74013090C00138D05006FF01F8C4A
:101990008327C100A303010C03AD07009386470012
:1019A000E3060D309307F0FF6314F3006F1080100F
:1019B000130603009305000013050D00232ED1002C
:1019C0002326110123246100EF50007103238100BD
:1019D0008328C1008326C101930D0500631405000F
:1019E0006F104056B30CA5418347710C13CCFCFF1C
:1019F000135CFC412326D10023260102232A010285
:101A00002328010233FC8C01930D00001303000016
:101A1000E39007866FF04FE00327C100A303010C9A
:101A2000130C100083270700130747002326E1004B
:101A30002306F114930C1000130DC1146FF08FDC0A
:101A4000E3940C4E13079000E360B74F938D0D03A2
:101A5000A307B11B13090C00930C1000130DF11A0E
:101A60006FF0CFFE83440400136949006FF00FD379
:101A70009307B00283440400A303F10C6FF00FD26C
:101A800083440400136909086FF04FD183440400B4
:101A9000930614006394B4016F10D061938704FD22
:101AA000138406001303000063ECFCCE834404009F
:101AB0009316230033836600131313003303F300DC
:101AC000938704FD13041400E3F2FCFE6FF04FCD86
:101AD0008327C1008344040003AA070093874700BB
:101AE0002326F100635C0ACA330A404113694900A6
:101AF0006FF0CFCA83440400136919006FF00FCA56
:101B00008347710C83440400639A07C8930700025B
:101B1000A303F10C6FF08FC8136C090193770C02CB
:101B2000638A07768327C10013877700137787FFBF
:101B300093078700832D0700832C47002326F1009D
:101B4000130710006FF04FF68327C1003787FFFFA0
:101B50001347078383AD07002314E10C93874700E5
:101B6000373701802326F100930707ED930C00001F
:101B7000136C2900232CF100130720009304800725
:101B80006FF08FF283440400136989006FF00FC176
:101B9000834404009307C006E386F40C136909012B
:101BA0006FF0CFBF8344040093078006E384F408FA
:101BB000136909046FF08FBE8326C1009377090271
:101BC00003A70600938646002326D1006398077476
:101BD00093770901E39A0762937709046384070006
:101BE0006F10C00813790920E300096283274100C0
:101BF000130D04002300F7006FF04FD3930610007D
:101C00006314D7006F10901393062000130C090083
:101C1000E312D7D2130D011B8327810193F6FD0038
:101C200093DD4D00B386D70003C606009396CC0122
:101C3000B3EDB60193DC4C00A30FCDFEB3E69D01DE
:101C4000130DFDFFE39A06FC9307011BB38CA7411C
:101C500013090C006FF08FDF93065006E3D496A4AF
:101C60008326010F9305010A1305010B2328D10ACE
:101C70008326410F232EF10023241101232AD10AA8
:101C80008326810F2320010A2322010A232CD10A53
:101C90008326C10F2324010A2326010A232ED10AF9
:101CA000EFD00046832881008327C101631C053CD7
:101CB0000327810EB7360180938606F023A0D80053
:101CC00093871700930610001307170023A2D8006C
:101CD0002326F10E2324E10E9306700093888800DA
:101CE000E3C4E6420327C10C832601016350D76297
:101CF000032701048326C1039388880023ACE8FEF0
:101D00000327810EB387D70023AED8FE1307170031
:101D10002326F10E2324E10E9306700063C4E672BD
:101D2000032701019304F7FF635090BC9306000161
:101D30000327810EE3DA963E930C0001130D700029
:101D40006F00C000938404FFE3D09C3E938707019B
:101D50001307170023A0380123A298012326F10EB0
:101D60002324E10E93888800E35EEDFC1306410E08
:101D700093050B0013850A00EF609016631E051A89
:101D80008327C10E0327810E93880B006FF09FFB02
:101D900033088A41635E00B1130600018326810E79
:101DA000635C0607130E0001930E70006F00C00005
:101DB000130808FF63520E079387070193861600E6
:101DC00023A0380123A2C8012326F10E2324D10E1B
:101DD00093888800E3DEDEFC1306410E93050B00BA
:101DE00013850A00232E010123246100EF60500FA8
:101DF000631405140328C101130E00018327C10ECB
:101E0000130808FF8326810E0323810093880B00AB
:101E1000930E7000E3420EFBB38707019386160012
:101E200023A0380123A208012326F10E2324D10E7A
:101E30001306700093888800635CD6A61306410ED3
:101E400093050B0013850A0023246100EF605009FD
:101E50006314050E032381008327C10E93880B00B2
:101E600033039341635A60A4130600018326810E55
:101E70006358660613080001130E70006F00C0005F
:101E8000130303FF635E68049387070193861600BC
:101E900023A0380123A208012326F10E2324D10E0A
:101EA00093888800E35EDEFC1306410E93050B0069
:101EB00013850A0023246100EF609002631E05066B
:101EC00003238100130800018327C10E130303FFBE
:101ED0008326810E93880B00130E7000E34668FA88
:101EE000B38767009386160023A0380123A26800F9
:101EF0002326F10E2324D10E130670009388880048
:101F0000635CD69A1306410E93050B0013850A00F5
:101F1000EF60007D631205028327C10E93880B00DA
:101F20006FF08F991306410E93050B0013850A007D
:101F3000EF60007B630E059C63840DA093850D000C
:101F400013850A00EF1090306FF08F9F130C09007B
:101F50006FF05F9D37370180130600018326810EE5
:101F6000930E0707130E00019302700063480601E9
:101F70006F004008130808FF635E0E079387070190
:101F80009386160023A0D80123A2C8012326F10EB0
:101F90002324D10E93888800E3DED2FC1306410E81
:101FA00093050B0013850A002324D1032322010388
:101FB00023206102232EE1012324F101EF6040720E
:101FC000E31C05F603284102130E00018327C10E0E
:101FD000130808FF8326810E832E8102032301024A
:101FE000032FC101832F810093880B00930270009F
:101FF000E3460EF9B38707019386160023A0D801A4
:1020000023A208012326F10E2324D10E130670000B
:10201000938888006344D6006FF00F821306410E48
:1020200093050B0013850A0023206102232EE10192
:102030002324F101EF60C06AE31005F08327C10E8D
:1020400003230102032FC101832F810093880B001A
:102050006FE09FFE1306410E93050B0013850A00E7
:10206000232E61002324E101EF608067E31605EC75
:102070008327C10E0323C101032F810093880B0026
:102080006FF08F828325C10C635CB0780327010356
:10209000832601019304070063C6E632635690026B
:1020A0008326810EB387970023A0A801938616008C
:1020B00023A298002326F10E2324D10E13067000CC
:1020C00093888800E340D63693C6F4FF03270103C4
:1020D00093D6F641B3F4D400B30497406348903EDE
:1020E0000327010393760940B304ED00639406448B
:1020F0008325C10C0327010163C6E500937619000F
:10210000E3860634832601040327C1031306700007
:1021100023A0D8008326810EB387E70023A2E8001E
:10212000938616002326F10E2324D10E938888006F
:10213000E34CD64C832601013307DD003386B640DD
:1021400033079740930C06006354C700930C0700B5
:10215000635690030327810EB387970123A098004D
:102160001307170023A298012326F10E2324E10E62
:102170009306700093888800E3CCE65E13C7FCFFEB
:102180001357F74133F7EC00B304E6406344900083
:102190006FE09FF5930600010327810E63D69678C2
:1021A000930C0001130D70006F00C000938404FFB6
:1021B00063DC9C76938707011307170023A038017F
:1021C00023A298012326F10E2324E10E9388880090
:1021D000E35EEDFC1306410E93050B0013850A0028
:1021E000EF600050E31A05D48327C10E0327810E48
:1021F00093880B006FF09FFB93751900639405CCD7
:1022000023A2D8002326F10E2324910E1307700079
:102210006346974E13062600938808016FF00FD887
:10222000635ED0D6130700016344D7006F100068C7
:10223000130D70006F000001938606FFE350D70C6A
:10224000138814009387070123A03C0123A2EC000C
:102250002326F10E2324010F93040800938C8C0095
:10226000E35C0DFD1306410E93050B0013850A0078
:102270002324D100EF60C046E31005CC8327C10EB4
:102280008324810E83268100938C0B0013070001A9
:102290006FF09FFA8326C10093770C0113874600E5
:1022A000639C070A93770C04E38407088327C10023
:1022B000930C00002326E10083DD070013071000C4
:1022C0006FE09FFE1306410E93050B0013850A0075
:1022D000EF600041E31205C68327C10E8324810EFF
:1022E000938C0B006FF08FBF1306410E93050B000C
:1022F00013850A00EF60C03EE31005C48327C10EBA
:102300008324810E938C0B006FF00FC0137719009C
:10231000631407006FE05FDD6FF09F9D832641002F
:10232000130D040093D7F6412320D7002322F70092
:102330006FE0DFDF83278103834404006394070099
:102340006FE0DFC583C70700639407006FE01FC518
:10235000136909406FE09FC42326E10083AD0600A6
:10236000930C0000130710006FE01FF483AD06000C
:102370002326E10093DCFD4113870C006FE01FEA88
:1023800083AD0600930C00002326E1006FE05FF1AF
:102390000327C10083270700130747002326E10016
:1023A00083A5070003A6470083A6870083A7C7006D
:1023B0002328B10E232AC10E232CD10E232EF10E79
:1023C0006FE01FFB93840600E34C90CC6FF0DFCFEF
:1023D000130C09006FF08FF4B7370180938707ED76
:1023E000232CF100937709026386072C8327C10011
:1023F00013877700137787FF832D0700832C47000F
:10240000930787002326F10013771900630E070056
:1024100033E79D01630A0700130700032304E10C5F
:10242000A304910C13692900137CF9BF1307200042
:102430006FE09FE78344140013690920130414001C
:102440006FE0DFB51306410E93050B0013850A00FC
:10245000EF600029E31205AE8327C10E93880B00BD
:102460006FF01F8C834414001369090213041400D5
:102470006FE0DFB2B7370180938747EE232CF1007E
:102480006FF05FF69305000413850A00EF404049A2
:102490002320AB002328AB00631405006F10C0435A
:1024A00093070004232AFB006FE05FA293076000FC
:1024B000930C030063E8677837370180138C0C00B6
:1024C0002326D100130D87EF6FE0DFB31306000161
:1024D0008326810E635A966E930C000113087000D8
:1024E0006F00C000938404FF63D09C6E9387070144
:1024F0009386160023A0380123A298012326F10E0B
:102500002324D10E93888800E35ED8FC1306410E85
:1025100093050B0013850A00EF60801CE31E05A0E5
:102520008327C10E8326810E93880B001308700049
:102530006FF05FFB03270101130E70001308000109
:102540003307ED002324E10003274103630E070A4C
:102550000327C102631E070A032781031307F7FF3E
:10256000232CE102032741031307F7FF232AE1028B
:102570008326C104032781049388880023ACD8FEF6
:102580008326810EB387E70023AEE8FE938616000C
:102590002326F10E2324D10E634EDE12032781037E
:1025A0008346070003278100938C0600330697407B
:1025B0006354D600930C0600635890038326810E63
:1025C000B387970123A098009386160023A2980151
:1025D0002326F10E2324D10E634CDE36032781031C
:1025E000938888008346070013C6FCFF1356F64104
:1025F000B3FCCC00B38C964163449003B384D40005
:1026000003274103E31607F40327C102630007729F
:102610000327C1021307F7FF2326E1026FF05FF5DE
:102620008326810E634898016F00C005938C0CFFD0
:10263000635A9805938707019386160023A03801F3
:1026400023A208012326F10E2324D10E93888800AB
:10265000E35EDEFC1306410E93050B0013850A00B2
:10266000EF600008E31A058C13080001938C0CFF3F
:102670008327C10E8326810E93880B00130E7000F2
:10268000E34A98FBB38797019386160023A038018D
:1026900023A298012326F10E2324D10E6346DE7275
:1026A000032781039388880083460700B384D400FE
:1026B0006FF01FF58326C100937709011387460049
:1026C0006386072283AD0600930C00002326E100F9
:1026D0006FF09FD31306410E93050B0013850A007C
:1026E000EF600000E31A05848327C10E93880B0076
:1026F00013080001130E70006FF05FEA1306410E1D
:1027000093050B0013850A00EF50907DE3160582B8
:102710000326810E8327C10E93084111130616006C
:10272000938C0B006FF08F8713790C4023280100E6
:10273000130D011B6F0040031306A0009306000059
:1027400013850D0093850C00232E110123246100B5
:10275000EFB04010032381008328C10163880C4A35
:10276000930D0500938C05001306A000930600004E
:1027700013850D0093850C00232E11012324610085
:10278000EFB080508327010113050503A30FADFEB1
:10279000938717002328F100032381008328C101B8
:1027A000130DFDFFE30A09F80327810383460700A1
:1027B000E394D7F81307F00FE380E7F863960C0073
:1027C0009307900063F2B7C9832781048325C1046E
:1027D000232E1101330DFD401386070013050D0054
:1027E00023246100EF505065832781031306A00066
:1027F0009306000003CE170013850D0093850C008F
:10280000333EC001B387C701232CF102EFB080042F
:10281000032381008328C101232801006FF05FF4A6
:102820008326810E37360180130606F023A0C800E8
:1028300093871700130610009386160023A2C80082
:102840002326F10E2324D10E1306700093888800EE
:10285000634CD6066392051C032701019376190089
:10286000B3E6E600639406006FE01F888326010448
:102870000327C1031306700023A0D8008326810E0E
:10288000B387E70023A2E800938616002326F10E03
:102890002324D10E6342D646938888000327010182
:1028A0009386160023A0A801B387E70023A2E800BF
:1028B0002326F10E2324D10E130770006344D700A2
:1028C0006FE05F826FE0DFEF1306410E93050B00B0
:1028D00013850A00EF50D060631005E68325C10C14
:1028E0008327C10E93880B006FF0DFF693770904FE
:1028F000638007288327C100930C00002326E10092
:1029000083DD07006FF05FB01306410E93050B00E7
:1029100013850A00EF50D05C631005E28327C10ED7
:1029200093880B006FF00FBC23A0380123A29800FE
:10293000B3879700130717002326F10E2324E10E17
:102940009306700063C4E6006FE0CFF96FE05FE7C5
:102950001306410E93050B0013850A00EF505058E3
:10296000631C05DC8327810393880B001308000197
:1029700083C60700130E70008327C10E6FF0DFC6F9
:102980008327010F9305010A1305010B2328F10A80
:102990008327410F232411012320010A232AF10A4E
:1029A0008327810F2322010A2324010A232CF10A01
:1029B0008327C10F2326010A232EF10AEFC0D01B63
:1029C00083288100634C05428347710C1307700410
:1029D0006354972437370180130D47EC23260102F7
:1029E000232A0102232801021379F9F7130C30007E
:1029F000930D0000930C3000130300006384070064
:102A00006FE01F876FE04FE183274100130D040043
:102A10002320F7006FE08FF1832601040327C10311
:102A20001306700023A0D8008326810EB387E70029
:102A300023A2E800938616002326F10E2324D10E4C
:102A400093888800634AD62AE3DA05E4130600FF78
:102A5000B304B040E3D6C528930C000113087000FE
:102A60006F00C000938404FFE3DC9C26938707017A
:102A70009386160023A0380123A298012326F10E85
:102A80002324D10E93888800E35ED8FC1306410E00
:102A900093050B0013850A00EF509044631E05C890
:102AA0008327C10E8326810E93880B0013087000C4
:102AB0006FF05FFB13050D00232411012326D100C5
:102AC000EF50D02E8347710C134CF5FF135CFC4183
:102AD00023260102232A01022328010283288100E0
:102AE000930C0500337C8501930D00001303000057
:102AF000638407006FE0CFF76FE00FD213861400F6
:102B000013878C00B387D70023A2DC0023A03C01ED
:102B10002326F10E2324C10E93067000E3C0C6BE27
:102B20001306160093088700930C07006FE01FC779
:102B300093770C20638407188327C100930C00004F
:102B40002326E10083CD0700130710006FE0CFF5C7
:102B500093770920638807148327C1002326E100A7
:102B6000838D070093DCFD4113870C006FE00FEBB2
:102B700093770920638E07108327C100930C000010
:102B80002326E10083CD07006FF01F88937709208B
:102B90006386070E8327C100930C00002326E10003
:102BA00083CD07006FE0CFEF8327C10F63C0071409
:102BB0008347710C130770046352974237370180C3
:102BC000130DC7EC6FF09FE1B38797009386160053
:102BD00023A0380123A298002326F10E2324D10E2E
:102BE0001306700093888800635CD6CE1306410EEE
:102BF00093050B0013850A00EF50902E631E05B25B
:102C00008327C10E93880B006FF08FCD9307900040
:102C1000E3E8B7B56FF04F8337370180130D07EC4A
:102C20006FF0DFDB1306410E93050B0013850A00DE
:102C3000EF50102B631205B08327C10E93880B0051
:102C40006FF08FC8930C60006FF01F87832601011F
:102C50003307DD003386B64033039740930C0600FC
:102C6000635EC3D0930C03006FF04FD18327410004
:102C7000130D04002310F7006FE04FCB8327C10032
:102C8000930C00002326E10083AD07006FE04FE1C5
:102C90008327C100930C00002326E10083AD0700C9
:102CA0006FF08FF68327C1002326E10083AD070074
:102CB00093DCFD4113870C006FE04FD68327C100E2
:102CC000930C00002326E10083AD070013071000DA
:102CD0006FE08FDD1306410E93050B0013850A008C
:102CE000EF5010208357CB006FE0CFC59307D00281
:102CF000A303F10C6FF01FEC1306410E93050B00BC
:102D000013850A00EF50D01D631805A28325C10C5E
:102D10008327C10E8326810E93880B00E3D005B86C
:102D20006FF0DFD2130360006FE04FEB0327010168
:102D3000B306ED0063FE96BA938406006FF04FBBB6
:102D4000032701039307D0FF6344F700635AE300AE
:102D50009384E4FF93F7F4FD232CF1066FE04FFD1D
:102D600083270101032701036340F7288327810696
:102D7000930C070093F71700638607008327C103AE
:102D8000B30CF7008327810693F70740638607009B
:102D900083270103E340F00613CCFCFF135CFC41E6
:102DA00033FC8C019304700623260102232A0102BE
:102DB0006FE0DF898347710C130300006384070011
:102DC0006FE00FCB6FE04FA51306410E93050B008C
:102DD00013850A00EF50D0106310059683278103F6
:102DE00093880B001308000183C60700130E7000C0
:102DF0008327C10EB384D4006FF09F809307D00265
:102E0000A303F10C6FF09FBC1306410E93050B005A
:102E100013850A00EF50D00C631005928325C10C76
:102E20008327C10E93880B006FF0CFB0130C010BFA
:102E3000930603001308C10D9307010D1307C10C7E
:102E40001306300093050C0013850A002324110398
:102E5000232261022328D10B2320D103232AE10B53
:102E6000232EE101232CF10B2328F101232EC10B8A
:102E70002324C101EF204076032E8100832F01011E
:102E8000032FC101832E0102032341028328810203
:102E9000130D05009307600433086D00639CFC6804
:102EA00083460D0093070003E388F614930C010A90
:102EB0008327C10C3308F8006FE0CFDD130C010B42
:102EC0009307010D930603001308C10D1307C10CEE
:102ED0001306200093050C0013850A0023226102CB
:102EE0002328D10B2320D103232AE10B232EE10138
:102EF000232CF10B2328F101232EC10B2324C10124
:102F0000EF20806D93077004032E8100832F010151
:102F1000032FC101832E0102032341028328810272
:102F2000130D0500E398FCF68327810693F717003D
:102F3000639C075E130770048327C10D232CE106F1
:102F40006FE00FDC8347710C2326D100232601029A
:102F5000232A010223280102130C0300930C03000F
:102F600013030000638407006FE08FB06FE0CF8A27
:102F70001306410E93050B0013850A00EF504076AF
:102F8000630405006FE05FFB8324C10C032701018C
:102F90008327C10E93880B00330697406FF00F9E76
:102FA000832781060327010393F71700B3E7670020
:102FB000E354E00C6398076C832C010393046006D0
:102FC0008327810693F707406398076213CCFCFFC1
:102FD000135CFC4133FC8C016FF01FDD373701803F
:102FE000130D87EC6FF09F9F832701010327C10317
:102FF00093047006B38CE70083270103E342F0FCDF
:10300000B38CFC40938C1C0013CCFCFF135CFC4184
:1030100033FC8C016FF05FD9B7360180938E0607C1
:103020006FE0DF83930700032304F10C930780050F
:1030300013672900A304F10C2324E106930730064B
:10304000930D0000130DC11463CE6744032EC10F0E
:1030500093FCF4FD232C9107232E0106832E010FF0
:10306000032F410F832F810F1369291063420E3CF8
:10307000930710066388F462930710046384F400D6
:103080006FE08FB8130C010B13050C0023261103FE
:10309000232461022328D10B232AE10B232CF10BDB
:1030A000232EC10BEFF0406E1306C10CEF50C0256C
:1030B000138605009305050013050C00EFF0404A48
:1030C00093070109938507002324F1008327010B4F
:1030D000930C010A130601082328F1088327410BEA
:1030E00013850C002326C106232AF1088327810BB0
:1030F0002320010823220108232CF1088327C10B78
:1031000023240108232EF108B707FC3F2326F108EA
:10311000EFC0403B0328010A032E410A832E810A97
:10312000032FC10A93850C0013050C002328010B03
:1031300023220103232AC10B2320C103232CD10BFB
:10314000232ED101232EE10B2328E1012320010AA4
:103150002322010A2324010A2326010AEFB0507A10
:10316000032F0101832EC101032E01020328410216
:10317000032381028328C102631605009307100010
:103180002326F10CB7370180938747EE2322F106FF
:103190009306F3FF93070D006F00400993850C0021
:1031A00013050C002320C106232EF105232C510406
:1031B000232A71042328F104232A110323286102FE
:1031C0002328710A23267102232A510A232451023B
:1031D000232CF10B2322F103232EC10A2320C10249
:1031E0002320010A2322010A2324010A2326010A9B
:1031F000EFB010718326C101032F0102832E41021B
:10320000032E81020328C102032301038328410303
:10321000832701058323410583228105832FC1056F
:10322000032601069386F6FF630E05100326810030
:1032300093850C00232AF10213050C00B707034005
:103240002328D1042328110323266102232EF10809
:103250002326E10B2320010B2322C10B2324D10BB6
:1032600023280108232A0108232C0108EFC0802508
:10327000832E010B032E410B0328810B0326C10B68
:1032800013050C002324D1032322C10323200103AF
:10329000232EC100EFE0107D930505002328A10037
:1032A00013050C00EFF0C0160326C101832E810226
:1032B000032E4102232EC1080326010B032801021D
:1032C000832581002320C1080326410B13850C00B0
:1032D0002328D1092322C1080326810B232AC109EF
:1032E000232C01092324C1080326C10B2326C1086E
:1032F0000326C106EFD0804A032741068327010138
:10330000832601058323010A3306F700834506005F
:10331000832741038322410A832F810A0326C10A9E
:10332000232AF1062380B7002328D1061307F0FFD4
:10333000232ED1000323C1028328010393871700A2
:10334000E39EE6E4B706FE3F93850C0013050C00F0
:103350002320F102232E1101232461002328710A66
:1033600023287102232A510A23265102232CF10B10
:103370002324F103232EC10A2322C1022320010AA0
:103380002322010A2324010A2326D10AEFB0106A5E
:10339000032381008328C101832701026344A00A1B
:1033A000832301038322C102832F8102032641026A
:1033B000B706FE3F93850C0013050C002328710A05
:1033C000232A510A232CF10B232EC10A2320010AA0
:1033D0002322010A2324010A2326D10AEFB05052E6
:1033E000032381008328C10183270102631805009C
:1033F000032701019376170063960604032701074C
:103400001306000393061700B386D7006354070022
:103410006FE00F8F93871700A38FC7FEE39CD7FE43
:103420006FE00F8E23242107930D00001389020003
:10343000B707008033CEC7019307D002232EF106D1
:103440006FF01FC30327410793860700232EE10C6B
:103450000327410603C6F7FF8345F7006310B60252
:1034600013050003A38FA6FE8326C10D1386F6FF66
:10347000232EC10C03C6F6FFE386C5FE9305160096
:103480001305900393F5F50F6306A600A38FB6FE10
:103490006FE00F87032741068345A700A38FB6FE81
:1034A0006FE00F869305130013850A00232811018E
:1034B00023246100EF30C0460323810083280101EB
:1034C000130D050063040542930D05006FF01FB84E
:1034D000930700032304F10C930780076FF05FB597
:1034E000B38797009386160023A0380123A2980083
:1034F0002326F10E2324D10E13067000635ED6B886
:103500001306410E93050B0013850A00EF50401D72
:10351000630405006FE05FA28327C10E8326810E3E
:1035200093880B006FF08FB79307700433086D001A
:10353000232CF106930C010A6FD0DFF5130C090060
:103540006FE0CFD09307F0FF2322F1006FD05FC070
:103550006314030013031000032EC10F832E010F09
:10356000032F410F832F810F93620910E34C0EEA62
:10357000130C010B930603001308C10D9307010DF3
:103580001307C10C1306200093050C0013850A00D5
:103590002326510223241103232261022328D10B65
:1035A0002320D103232AE10B232EE101232CF10B4D
:1035B0002328F101232EC10B2324C101EF20C001D8
:1035C0008322C10223242107032E8100832F0101BE
:1035D000032FC101832E01020323410283288102AC
:1035E000130D050013890200930D0000232E010620
:1035F0006FF09F9393047006832781039306F00F67
:103600002326010283C70700232A01026388D70407
:103610000327010363D4E704B307F74003278103BB
:103620002328F10283471700638E07000326410316
:1036300013071700232CE10213061600232AC102E8
:103640006FF0DFFC0327C1028327810313071700F4
:1036500083C707002326E1026FF05FFB0327C10247
:1036600083274103B387E70003278104B387E70279
:10367000B38C970113CCFCFF135CFC4133FC8C0131
:103680006FD0DFFC8327C10393046006B30CF700FF
:10369000B38C6C006FF0DF92930D0000138907006C
:1036A0006FF01FD9130C010B13050C002326110317
:1036B000232461022328D10B232AE10B232CF10BB5
:1036C000232EC10BEFF0400C1306C10CEF40D0438A
:1036D000138605009305050013050C00EFE0506804
:1036E00093070109938507002324F1008327010B29
:1036F000930C010A130601082328F1088327410BC4
:1037000013850C002326C106232AF1088327810B89
:103710002320010823220108232CF1088327C10B51
:1037200023240108232EF108B707FC3F2326F108C4
:10373000EFB050590328010A032E410A832E810A53
:10374000032FC10A93850C0013050C002328010BDD
:1037500023220103232AC10B2320C103232CD10BD5
:10376000232ED101232EE10B2328E1012320010A7E
:103770002322010A2324010A2326010AEFB050184C
:10378000032F0101832EC101032E010203284102F0
:10379000032381028328C1026316050093071000EA
:1037A0002326F10CB7370180938707ED2322F1061A
:1037B0006FF01F9E9306610D6318060093060003C9
:1037C000230BD10C9306710D1307011B938707037D
:1037D0003386E6402380F6009307D60D2322F104BA
:1037E0006FD09FE28327810693F717006394070049
:1037F0006FD09FE36FD0DFE2930C010A93850C003A
:1038000013050C0023260103232411032322610244
:103810002328D10B2320D103232AE10B232EE101FE
:10382000232CF10B2328F101232EC10B2324C101EA
:103830002320010A2322010A2324010A2326010A44
:10384000EFB0100C032E8100832F0101032FC10163
:10385000832E010203234102832881020328C1022F
:10386000630805E493071000B38767402326F10C33
:103870003308F8006FD01FC2639A0700130C1000C2
:1038800093046006930C10006FF00FD28327C103DE
:1038900093046006938C1700B38C6C0013CCFCFF70
:1038A000135CFC4133FC8C016FF00FD013870800D0
:1038B0006FF04FA58327C10003A30700938747003C
:1038C000635403001303F0FF834414002326F10024
:1038D000138406006FD08FEC9307C00023A0FA007A
:1038E0009307F0FF2322F1006FD09F868357CB0010
:1038F00013E70704930707002316EB006FD09F849C
:10390000930720002322F1046FD01FD0130101FE82
:1039100023263101B7490180232C8100232A9100FD
:103920002328210123244101232E1100138A05009D
:10393000130905009389894BEF30500703A78900CD
:10394000B71700001384F7FE832447003304444173
:1039500093F4C4FF330494001354C4001304F4FF1D
:103960001314C400634EF40093050000130509000E
:10397000EF40502483A78900B38797006308F502BE
:1039800013050900EF30D0028320C1010324810117
:1039900083244101032901018329C100032A8100F5
:1039A000130500001301010267800000B305804089
:1039B00013050900EF4010209307F0FF630AF50498
:1039C000B7570180938787AA03A7070083A68900BA
:1039D000B384844093E41400330487401305090042
:1039E00023A2960023A08700EF30807C8320C101B2
:1039F0000324810183244101032901018329C1009A
:103A0000032A8100130510001301010267800000E2
:103A10009305000013050900EF40D01903A78900A2
:103A20009306F000B307E540E3DCF6F4B7560180F7
:103A300083A606A593E717002322F7003305D54098
:103A4000B756018023A4A6AA6FF09FF3638A0512DC
:103A5000130101FF23248100232291001384050018
:103A60009304050023261100EF3040740328C4FF9F
:103A7000130784FFB74501809377E8FF3306F7000B
:103A80009385854B8326460003A5850093F6C6FFE4
:103A9000630AC51A2322D600137818003305D6000E
:103AA0006310080A032384FF03284500374501807B
:103AB00033076740832887001305054CB3876700E9
:103AC000137818006380A8140323C70023A6680096
:103AD000232413016304081E93E617002322D70052
:103AE0002320F6009306F01F63E8F60A93F687FF9B
:103AF0009386860003A54500B386D50003A606007D
:103B000013D8570093071000B3970701B3E7A70036
:103B1000138586FF2326A7002324C70023A2F500D0
:103B200023A0E6002326E600032481008320C100B1
:103B30001385040083244100130101016F304067A5
:103B40000325450013751500631E050237450180E6
:103B5000B387D7001305054C8326860093E817002A
:103B60003308F7006388A6160326C60023A6C600FE
:103B70002324D600232217012320F8006FF09FF69C
:103B80006780000093E61700232ED4FE2320F60062
:103B90009306F01FE3FCF6F493D69700130640005B
:103BA000636CD60E93D6670013889603138686033C
:103BB000131838003388050183260800130888FF8E
:103BC0006308D81203A646001376C6FF63F6C70043
:103BD00083A68600E318D8FE03A8C60023260701A3
:103BE0002324D700032481008320C1002324E8007C
:103BF000138504008324410023A6E600130101017C
:103C00006F30005B631608148325C6000326860008
:103C1000B387F600032481002326B60023A4C50041
:103C200093E617008320C1002322D70013850400E8
:103C30003307F700832441002320F700130101011B
:103C40006F30005713781800B387D700631008024D
:103C5000032584FF3307A7408326C7000326870078
:103C6000B387A7002326D60023A4C600B756018039
:103C700013E6170083A646A52322C70023A4E50068
:103C8000E3E4D7EAB757018083A507A613850400AC
:103C9000EFF0DFC76FF05FE9130640016374D602EF
:103CA000130640056364D60693D6C7001388F6064C
:103CB0001386E606131838006FF0DFEFB387D700DE
:103CC0006FF09FE91388C6051386B60513183800F0
:103CD0006FF05FEE23AAE50023A8E5002326A700E6
:103CE0002324A700232217012320F8006FF0DFE32D
:103CF00003A5450013562640930710003396C700CE
:103D00003366A60023A2C5006FF05FED13064015D1
:103D1000636CD60093D6F700138886071386760760
:103D2000131838006FF01FE913064055636CD60076
:103D300093D627011388D6071386C60713183800B1
:103D40006FF05FE71308803F1306E0076FF09FE610
:103D500093E617002322D7002320F6006FF0DFDC64
:103D600093064500930700001305A5013788FFFF60
:103D70006F00C001939717002390E6009397070107
:103D80009386260093D70701630ED50203D706005A
:103D9000137617006304060093E717001357170004
:103DA00013F62700B3650701E30606FC9397170097
:103DB0002390B600939707019386260093D70701B7
:103DC000E316D5FC67800000930685011307000009
:103DD000130525006F00C001131717002390F6008C
:103DE000131707019386E6FF135707016304D504F1
:103DF00083D70600139607011356064193971700C1
:103E000063540600136717009397070193D70701C0
:103E10001376270093E51700E30006FC131717003D
:103E20002390B600131707019386E6FF1357070187
:103E3000E310D5FC67800000130101FE370E01007E
:103E4000231D0100231E0100938585019307C101F5
:103E500013088100130EFEFF03D705009387E7FFC9
:103E60009385E5FF63180702239F07FEE39607FF8C
:103E7000130646009306E10103D707009387270046
:103E800013062600231FE6FEE398D7FE1301010266
:103E9000678000003307A70283D8270003D30700F9
:103EA000B376C701B38616011357070193D80601ED
:103EB0003307670033071701935807012391D70091
:103EC0002390E700239F17FFE39807F96FF05FFA4D
:103ED0001307250183570500130525006398070084
:103EE000E31AE5FE130500006780000013051000CB
:103EF00067800000130101FF2322910083542501F4
:103F0000232481002326110093C7F4FF1397170180
:103F10001304050063160700EFF09FFB631805000C
:103F2000B787FFFFB3C4F400231994008320C100B6
:103F300003248100832441001301010167800000F4
:103F4000130101FF232481000354250123261100BE
:103F50009347F4FF13971701631A0700EFF05FF719
:103F60009307050013050000639407001355F40040
:103F70008320C10003248100130101016780000038
:103F800083572501130101FD2324810293D7F700F4
:103F9000232291022326110223202103232E310103
:103FA000B307F0402390F5008357250137870000C1
:103FB0001307F7FFB377F7002391F500930405008B
:103FC000130405016382E7049387650023920500CB
:103FD0001305E5FF035704001304E4FF938727004C
:103FE000239FE7FEE31885FE239C05008320C10282
:103FF0000324810283244102032901028329C10190
:104000001301010367800000035725011389450050
:1040100033F7E700631CF7022326B100EFF05FEBF4
:104020008325C10063040502938765002392050080
:104030001385C4FF035704001304E4FF938727008C
:10404000239FE7FEE31885FE6FF05FFA9389A501D1
:1040500013092900231F09FEE39C29FF8320C102C5
:104060000324810283244102032901028329C1011F
:10407000130101036780000083572501130101FB31
:104080002324810493C7F7FF2322910423261104DC
:1040900013971701930405001384050063160700A6
:1040A000EFF01FE3631205088357240193C7F7FF5E
:1040B0001397170163040706930581001385040015
:1040C000EFF01FEC9305410213050400EFF05FEBE6
:1040D0008355810003554102630CB5049307A10089
:1040E000130761021306010283D607009387270096
:1040F000639A06088356070013072700639406088F
:10410000E394C7FE130500008320C1040324810447
:104110008324410413010105678000001305040096
:10412000EFF01FDBE30A05F81305E0FF6FF0DFFD9A
:10413000133515000356A100835661023305A040D4
:104140001307A10093076102137525001305F5FFFE
:104150009305C1039387270013072700631ED6002A
:10416000E382B7FA0356070083D607001307270038
:1041700093872700E306D6FEE3E8C6F83305A040A0
:104180006FF09FF813051000E38005F81305F0FFAA
:104190006FF09FF7130101FF23261100EFF05FD3AB
:1041A0008320C10013351500130101016780000051
:1041B000130101FE232C8100232A9100232E1100DC
:1041C00023282101232631019384050013040500CF
:1041D00063C4050A9307F000138605001305450024
:1041E000930684019305F00063D4970293070500BA
:1041F00003D7270093872700239FE7FEE39AD7FE84
:10420000231C0400130606FFE3C2C5FE93F4F4006A
:104210009307700063D89702130784019305240065
:1042200093070000835607001307E7FF13968600E5
:10423000B3E7C7002311F70093D78600E314B7FE56
:10424000938484FF638A04009384F4FF13050400BD
:10425000EFF09FB7E39A04FE130500008320C1012D
:104260000324810183244101032901018329C10021
:104270001301010267800000930710FF3309B0406B
:1042800063DCF51293058501930900009306450050
:104290001306F0000357840193870500B3E9E90092
:1042A00003D7E7FF9387E7FF2391E700E39AD7FE61
:1042B00023120400130909FFE34E26FD930700FFB4
:1042C000130710FFB38797401309000063C4E40A83
:1042D0003309F9009307700063D627059399090104
:1042E00093D90941834784019305A401B3E9F900F7
:1042F0009399090193D909019307000003D6060099
:10430000938626001357860033E7E700931786004D
:1043100093970701239FE6FE93D70701E390B6FE2C
:10432000130989FF630C0906835784011309F9FFF8
:104330001305040093F71700B3E93701EFF05FA20C
:10434000E31409FE9397090193D70741639007048B
:1043500013950901135505018320C101032481012F
:1043600083244101032901018329C10013010102B2
:104370006780000013F907FF330920413309F90072
:1043800093077000E3D027FB6FF05FF593091000EF
:1043900013950901135505016FF01FFC13850900E2
:1043A0006398090013150501135505016FF01FEB04
:1043B000130510006FF01FFF930790FF9309000093
:1043C000E3D4F5F6930644006FF0DFF18357450020
:1043D000130101FF232291002326110023248100D1
:1043E0002320210193040500639C070C03576500FB
:1043F000130400009317070193D7074163C4070A0A
:104400009306A5011306000A631807029387640048
:104410006F00800003D7070093872700239EE7FEE5
:10442000E39AF6FE239C040013040401630CC40603
:1044300003D76400E30C07FC937707F0639007044D
:10444000138584019385240093070000130705005A
:10445000835607001307E7FF13968600B3E7C700EC
:104460002311F70093D78600E394E5FE03D7640099
:1044700013048400937707F0E38807FC1309000A0C
:104480006F00400113041400EFF01F94634C890087
:1044900003D764001317070113570741138504005E
:1044A000E35207FE8320C1001305040003248100AA
:1044B00083244100032901001301010167800000EA
:1044C00013F707F013040000631007041309F0F654
:1044D0006F0040011304F4FFEFF09F88E30424FD14
:1044E00083D7440013850400E39607FE8320C100B0
:1044F00013050400032481008324410003290100E3
:104500001301010167800000930645009305A50192
:10451000130700006F00800083D7060013D68700C2
:104520003367C700939787002390E600139707012E
:104530009386260013570701E390B6FE83D7440005
:10454000130480FF6FF09FF8130101FE232C8100FC
:10455000232A91002328210123263101232441010C
:10456000232251011389060093840700232E110092
:104570001304050093890500130A0600930A070037
:10458000EFF0DFE4930700093309A94063DCA716C5
:10459000B78700009387E7FF63DA271F63840A1C4D
:1045A00003A5440083A70400630AF5061387A4014A
:1045B0009387440313072700231F07FEE31CF7FE1E
:1045C00093078003630CF53263D0A71693070004AA
:1045D000630CF52E930710076318F534B787004076
:1045E0009387F7FF1307A00023AAF400B787FFFF04
:1045F00023A4E400239CF40023A6E4009307A00076
:10460000378700009387870093971700B387F400DC
:104610002395E70023A0A4006358201B83A58400F2
:1046200083D744011308F008139615003306C4001D
:1046300003570600B376F700634AA8021308B000D8
:104640006346B802930706009305840103D7270049
:104650006304070093E61600239107009387270061
:10466000E396F5FE0357060083D7440193C7F7FF8F
:10467000B3F7E7002310F60083D7640133F7D700C0
:10468000630007046384D71A138624039306840106
:104690009384C401130700008357060083D50600E6
:1046A0009386E6FF1306E6FFB387B700B387E700FC
:1046B00013D707012391F60013771700E31E96FC2A
:1046C0006358201983574400639E0712B787000080
:1046D000231C04009387E7FF63C8270923112401E3
:1046E0008320C101032481018324410103290101A5
:1046F0008329C100032A8100832A4100130101029A
:10470000678000006354090E930700F7635CF908A3
:10471000930724001304A40193872700239F07FE17
:10472000E39C87FE6FF0DFFB930780016308F516BB
:1047300093075003631AF51E37170000B7070004EC
:10474000930660009387F77F1307078023AAF4007E
:1047500023A4D400239CE40023A6D4009307600084
:104760006FF05FEA231C0400B787FFFF93C7F7FFD2
:104770002311F400930744001304840123900700DD
:1047800093872700E31CF4FE6FF09FF59307240046
:104790001304A40193872700239F07FEE39C87FE51
:1047A0006FF01FF49305090013050400EFF05FA0FC
:1047B0006304050093091000638C0A0C03A54400F0
:1047C00083A70400E314F5DE930700096304F50AE8
:1047D000835784011305040093F71700B3E9F90028
:1047E000EFF00FD803A544006FF05FE3E3800AEE1B
:1047F00003A5440083A70400E31AF5DAE34020E3AD
:104800006FF09FFC13050400EFF08FD5B787000011
:1048100013091900231C04009387E7FFE3C627F55B
:10482000E35E09EA231104006FF09FEB6394090C27
:1048300083A7C40003D7840193971700B307F4003C
:1048400083D70700B3F7E700E39007E4E34C20E7E2
:10485000930700096306F50013050400EFF0CFD6B7
:1048600083574400E39007FA231C0400E34C09FA41
:104870006FF0DFE603A6840083D744011316160009
:104880003306C40003570600B3F6E7006FF01FDEDF
:10489000231C0400231104006FF09FE4B70780007D
:1048A0009387F70F1307400023AAF4009307001023
:1048B00023A4E400239CF40023A6E4009307400013
:1048C000130700106FF01FD49307700023A4F400A7
:1048D000B70701809387F7FF23AAF400930710001E
:1048E000239CF4009307600023A6F4001307100034
:1048F0006FF05FD1E30A0AD86FF09FDCB707800042
:104900009387F70F1307600023AAF40093070010A2
:1049100023A4E400239CF40023A6E4009307600092
:10492000130700106FF01FCE9307C00023A4F400FC
:10493000B70701809387F7FF23AAF40093071000BD
:10494000239CF4009307B00023A6F4001307100083
:104950006FF05FCB130101FD23229102232E310161
:104960009384050083592500232611022324810204
:1049700023202103232C410113090600232A51017E
:10498000232861012326710123248101232291011F
:104990002320A101130A0500EFF05FA303D4240034
:1049A0009307050013850400B389F940930A49036E
:1049B000EFF0DFA13304A4401307E90493870A0052
:1049C00093872700239F07FEE39CE7FE634A340991
:1049D000930B4A00138B44009389F9FF930CAA01AF
:1049E000138C240013070B0093870B0003D60700DA
:1049F000835607009387270013072700631AD60AF8
:104A0000E39697FF13068A0113878401930600003B
:104A100083570700835506001307E7FFB387D74086
:104A2000B387B74093D607012311F70093F616001A
:104A30001306E6FFE31EECFC130D100013850A00BD
:104A4000EFF08FB88357C9041304F4FF13850400F3
:104A5000336DFD002316A905EFF00FB7E31434F909
:104A600093060400032481028320C1028329C1012B
:104A7000032A8101832A4101032B0101832BC100F9
:104A8000032C8100832C4100032D010093070900B2
:104A90001385040003290102832441021307000047
:104AA0001306000093050000130101036FF0DFA956
:104AB000130D0000E3E4C6F86FF0DFF403570500C0
:104AC000835725006306070037870000B3E7E70038
:104AD0002399F50003572500B78700009387F7FF58
:104AE0006304F702930765009385050113058501AB
:104AF00003D70700938727009385E5FF2391E500FF
:104B0000E398A7FE67800000930765001305A501E1
:104B100003D7070093872700631A0702E39AA7FECB
:104B2000138725019387050093872700239F07FE9E
:104B3000E31CF7FE83D72501378700001307F7FF33
:104B4000B3E7E7002399F5006780000013870501AC
:104B50009387050093872700239F07FEE31CF7FE3A
:104B6000B7C7FF7F23A8F50067800000130101F796
:104B700023286107035B2501B78700009387F7FFB0
:104B8000232C410733FA6701131A0A0123248108F1
:104B90002322910823202109232E310723261108DF
:104BA000232A5107232671072324810723229107F3
:104BB000135A0A0193040500138905001304060023
:104BC000938906006312FA10EFF08FB0631A05287C
:104BD000835A2901B3775A016382472B1385040056
:104BE000EFF04FDB630E052EB73501809385850B03
:104BF00013050900EFF04FC863060536835A2901F3
:104C0000B78700009387F7FFB3FA5701939A0A0119
:104C100093DA0A016394FA2C13050900EFF08FD799
:104C20006310053283D72401B3F7FA006398570B5A
:104C300013850400EFF00FD6631805001305090073
:104C4000EFF04FD5630C050813850400EFF04FAF6C
:104C50009304050013050900EFF08FAEB384A44060
:104C6000B33490009394F4002319940013072401A3
:104C70009307040093872700239F07FEE31CF7FE9A
:104C800083572401378700001307F7FFB3E7E700D6
:104C90002319F4008320C1080324810883244108D8
:104CA000032901088329C107032A8107832A4107B1
:104CB000032B0107832BC106032C8106832C41069D
:104CC000130101096780000083DA250133F75701DA
:104CD0001317070113570701630AF704138504002C
:104CE0009305C100EFF0CFA91305090093058102D8
:104CF000EFF00FA98354E1000359A102639C04045F
:104D000093070101930641026388D72003D7070068
:104D100093872700E30A07FE1305C100EFF00FEBAE
:104D20000357A102B304A0406F00000313850500E0
:104D3000EFF00F9AE30605EC1307490183570900CA
:104D40001309290013042400231FF4FEE318E9FECD
:104D50006FF05FF413070900930A09009307C1027B
:104D600093060104631207026382F61C03D707004F
:104D700093872700E30A07FE13058102EFF00FE592
:104D80000357A102B30AA94083578102138C8903F8
:104D9000239BE902239AF9021387E90493070C0085
:104DA0002390070093872700E31CF7FE138AC904AA
:104DB000930B000013094102930C0101130B6104D2
:104DC000035509001309E9FF6318050C03D7C9044B
:104DD00093070A00B3EBEB0003D7E7FF9387E7FFE6
:104DE0002391E700E39A87FF239C0902E31A99FDC8
:104DF0001387490393078102930521040356070093
:104E00009387270013072700239FC7FEE398F5FE2B
:104E1000B7C6FFFFB38454019386260093850B0029
:104E2000130581029387090013070004B386D40099
:104E300013060000EFF04FF1035781028357C100C2
:104E40009305040013058102B387E740B337F000F0
:104E5000B307F0402314F102EFF05FC66FF09FE359
:104E60001387440183D7040093842400130424008F
:104E7000231FF4FEE398E4FE6FF0DFE11305090061
:104E8000EFF00F85E31A05EA13850400EFF08FB009
:104E9000E30805D66FF05FD5130641049305810240
:104EA000EFE09FF993050A00130600001307C10500
:104EB00003D80500835707009385E5FF1307E7FF35
:104EC000B3870701B387C70013D607012391F50005
:104ED00013761600E31E67FD6FF05FEF03DB24011E
:104EE000B78700009387F7FF33FB6701131B0B01A4
:104EF000135B0B01E314FBDE13850400EFF08FA9B5
:104F0000E31405D48357290193C7F7FF13971701BB
:104F1000E31607DC6FF09FD29307440113042400CB
:104F2000231F04FEE39C87FE6FF0DFD69307440146
:104F300013042400231F04FEE31CF4FE6FF09FD52E
:104F4000B73501809385850B13850400EFF0CF9270
:104F5000630A050083D72401B3F7FA00E38E57F9FB
:104F60006FF05FFA1307040193070400938727008B
:104F7000239F07FEE39CE7FEB7C7FF7F2328F400CB
:104F80006FF05FD183572501130101F52324810AB6
:104F900093C7F7FF2322910A2320210B232E3109E7
:104FA0002326110A232C4109232A510923286109A8
:104FB0002326710923248109232291092320A10991
:104FC000232EB107139717011309050093890500D4
:104FD000130406009384060063160700EFE05FEFFA
:104FE0006318053883D7290193C7F7FF1397170173
:104FF000630E0708373A018093058A0B13050900F1
:10500000EFF08F8763040510035A290103D72901A4
:10501000B78700009387F7FF33FA4701B3FAE70039
:10502000631AFA0813050900EFF0CF96630805101C
:1050300063984A0113850900EFF0CF956310050EC0
:105040009307440113042400231F04FEE31CF4FE11
:105050008320C10A0324810A8324410A0329010A07
:105060008329C109032A8109832A4109032B0109E4
:10507000832BC108032C8108832C4108032D0108D0
:10508000832DC1071301010B678000001385090000
:10509000EFE01FE4E30005F61387490183D7090019
:1050A0009389290013042400231FF4FEE398E9FEEA
:1050B0006FF01FFA6386FA08130509009305C10112
:1050C000EFE01FEC9305810313850900EFE05FEB30
:1050D000835BA1030359E10163920B0C9307C103A6
:1050E000930D0105638EFD3403D7070093872700D6
:1050F000E30A07FE13058103EFF04FADB307A040AD
:105100000356E1012326F1006F00C00993058A0BC5
:1051100013850900EFE05FF6E31805EE13070401BD
:105120009307040093872700239F07FEE39CE7FE75
:10513000B7C7FF7F2328F4006FF09FF1E39E4AF783
:1051400013850900EFF00F85E30805F61305090044
:10515000EFE01FDF9304050013850900EFE05FDE39
:10516000B387A440B337F0009397F7002319F400F6
:10517000130724019307040093872700239F07FE4A
:10518000E39CE7FE83572401378700001307F7FFEE
:10519000B3E7E7002319F4006FF09FEB23267101BA
:1051A00013060900232421019307010293064103FA
:1051B000631206026380F62A03D70700938727004D
:1051C000E30A07FE1305C101EFF04FA0B307A940A2
:1051D0002324F10003278103138D840393070D001B
:1051E00023AAE4021389E40493872700239F07FE80
:1051F000E31CF9FE13058103EFE09FB6035C210277
:10520000370A0100930D0105931A0C01B38A8A41F4
:10521000130BA103130AFAFF930CE106930961052E
:105220008357C1030357E103930B0A0093970701C8
:10523000B387E70063E8FA00B3D78703939B0701BE
:1052400093DB0B01130641059305C10113850B0088
:10525000EFE09FBE1307C1039307810583D50700C5
:105260000356070093872700130727006390C51292
:10527000E39697FF930700009305C10613860D0080
:105280000357060003D805001306E6FF3307F7406F
:1052900033070741935707012311E60093F71700DF
:1052A0009385E5FFE31E66FD23107D019307C1038F
:1052B00003D7270093872700239FE7FEE39AB7FFD2
:1052C00023180104130D2D00E31CA9F5930500001C
:1052D0009307C1039306210503D70700938727008F
:1052E000B3E5E500E39AD7FE9397050193D707410D
:1052F00063840700930510009395050193D505017C
:1053000013874403930781030356070093872700FD
:1053100013072700239FC7FEE398F6FE8327C100EB
:1053200003278100B74600009386F6FFB38BE74062
:10533000130581039387040013070004B386DB0081
:1053400013060000EFF04FA0035781038357C101FC
:105350009305040013058103B387E740B337F000DA
:10536000B307F040231CF102EFF04FF56FF05FCE72
:105370001307490183570900130929001304240066
:10538000231FF4FEE318E9FE6FF09FCCE374B6EE42
:105390009387FBFF9398070193D8080193070000B8
:1053A000930541031306C1060357060003D8050001
:1053B0001306E6FF3307F74033070741935707010A
:1053C0002311E60093F717009385E5FFE31E36FDF2
:1053D0001307C1039307810583D507000356070010
:1053E00093872700130727006398C500E39697FF6C
:1053F000938B08006FF01FE8E37CB6FE9387EBFF0A
:10540000939B070193DB0B011306000093054103F7
:105410001307C1068357070003D805001307E7FFEA
:10542000B387C740B387074113D607012311F7009D
:10543000137616009385E5FFE31E37FD6FF09FE3BB
:105440009307440113042400231F04FEE39C87FEFA
:105450006FF01FC00357C101835781036304F70036
:10546000378600002319C4001307240193070400A2
:1054700093872700239F07FEE31CF7FE8357240131
:10548000378700001307F7FFB3E7E7002319F4009D
:105490006FF01FBC130101FD23248102232611029A
:1054A00013840500930741001307E1019387270048
:1054B000239F07FEE39CE7FE0356E50093170601D2
:1054C00093D7074163CA0706B78700009387F7FFA2
:1054D000231201003376F600630CF6069307E5000D
:1054E0002313C1001307A10083D6E7FF9387E7FFCB
:1054F00013072700231FD7FEE318F5FE63120602E9
:10550000231401009305040013054100EFF00FDBA5
:105510008320C1020324810213010103678000007C
:10552000930710009305F0FF130541002314F100C9
:10553000EFE01FC86FF01FFD9307F0FF2312F1008B
:10554000B78700009387F7FF3376F600E318F6F885
:10555000930705009306E50003D70700938727000C
:10556000631C0704E39AD7FE130744019307040062
:1055700093872700239F07FEE31CF7FE13072401F0
:105580009307040093872700239F07FEE31CF7FE81
:1055900083572401378700001307F7FFB3E7E700BD
:1055A0002319F4008317E500E3D407F6130504007C
:1055B000EFE05F946FF0DFF5130704019307040039
:1055C00093872700239F07FEE31CF7FEB7C7FF7FE3
:1055D0002328F4006FF0DFF383A8C500130101E175
:1055E00083AE050003AE450003A38500232E1103FF
:1055F000832505049308F0FF232011179308000961
:105600002324811E232C411D2326111E2322911E9B
:105610002320211F232E311D232A511D2328611DE4
:105620002326711D2324811D2322911D2320A11DCA
:10563000232EB11B2328D103232AC103232C61026B
:10564000232211172324C1002328D100232AE1009B
:10565000232E0101130A050013840700638005024D
:105660000327450493071000B397E70023A2E50042
:1056700023A4F500EF10903E23200A0493090106AD
:105680009385090013050103EFF0DFE0138509009E
:10569000EFE01F8B032781003335A0002320A400F7
:1056A00093073000E302F714930740012326F1002B
:1056B000E31E0760835721070327411693C7F7FFAF
:1056C000232CE100139717016318070013850900C5
:1056D000EFE01F80E3160540930700092322F1162F
:1056E0001307C107938709001306410783D60700F4
:1056F0009387270013072700231FD7FEE398C7FED1
:105700000356E108232201009317060193D70741AE
:1057100063DE070013161601B707010013561601C2
:105720009387F7FF2317C1082322F100B73A0180BE
:1057300093878A0B938B4701930600009307810997
:1057400013870B00930DC10A6F008000835607007A
:1057500093872700239FD7FE13072700E398B7FFFF
:1057600063020616B78700009387F7FFE30CF6582D
:105770008317C108E3DE075C9305C10713850B009F
:10578000EFE09F8F630C0514E34C050C8357E10891
:10579000E39207668317C1089304000013090116FA
:1057A00063C80702B73701809387870B138487117B
:1057B0001306C107930609009305060013050400AC
:1057C000EFF0CFBA8317C1089384F4FFE3D207FE4A
:1057D0001304010D130B810E130704009307C10777
:1057E0001306010983D607009387270013072700B4
:1057F000231FD7FEE398C7FE930600009307810995
:1058000013870B006F0080008356070093872700E3
:10581000239FD7FE13072700E398B7FFB737018010
:105820001387870B9387870B37FDFFFF930C870246
:10583000930DC712138C87116F00C000938D4D011B
:10584000938C4C019305040013850B00EFE0DF827D
:10585000930705009305040013850D006356F004BB
:10586000EFE09F81930705009306090013060400EB
:105870009305040013850C0063C00702EFF00FAF1F
:1058800013068109930609009305060013850C0091
:10589000EFF0CFADB384A4019357FD01338DA70181
:1058A000135D1D40E39C8CF91306810993060900E2
:1058B00093850B0013050600EFF0CFEC930C41121B
:1058C0006F0000039307C1079306E10803D70700A1
:1058D00093872700E31207EAE39AD7FE93040000B8
:1058E000930C4112130901161304010D130B810EC1
:1058F0009305040013058109EFE08FE81307810980
:105900009307040083D60700938727001307270017
:10591000231FD7FEE39867FF930504001305C10713
:105920002318010AEFE0CFE59307C10703570400EE
:105930001304240093872700239FE7FEE31864FFE6
:1059400013058109130609009305C107231A0108ED
:10595000EFF04F800355C11A6314051C130D410964
:105960001304E107930B610B93858A0B1305C107A1
:10597000EFE08FF06306051A1307000093060D0091
:105980006F00C001131717002390F60013170701CB
:105990009386E6FF135707016384860483D70600C6
:1059A0001396070113560641939717006354060098
:1059B000136717009397070193D707011376270002
:1059C00093E51700E30006FC131717002390B600B9
:1059D000131707019386E6FF13570701E39086FC30
:1059E0001307410B9307C10783D60700938727004E
:1059F00013072700231FD7FEE398A7FF2316010CE8
:105A0000130700009306C10C6F00C00113171700A5
:105A10002390F600131707019386E6FF135707013B
:105A20006384760583D70600139607011356064153
:105A300093971700635406001367170093970701A5
:105A400093D707011376270093E51700E30006FCC0
:105A5000131717002390B600131707019386E6FF6C
:105A600013570701E39076FD130700009306C10C5E
:105A70006F00C001131717002390F60013170701DA
:105A80009386E6FF135707016384760583D70600E4
:105A900013960701135606419397170063540600A7
:105AA000136717009397070193D707011376270011
:105AB00093E51700E30006FC131717002390B600C8
:105AC000131707019386E6FF13570701E39076FD4E
:105AD0001306000093060D001307C10C83D50600C2
