:0200000480007A
:100000006F008004732F2034930F80006308FF0378
:10001000930F90006304FF03930FB0006300FF038E
:10002000130F000063040F0067000F00732F2034CC
:1000300063540F006F00400093E19153171F0000BD
:1000400023223FFC6FF09FFF732540F163100500F2
:10005000970200009382020173905230735000188F
:10006000970200009382020273905230B702008020
:100070009382F2FF7390023B9302F0017390023A75
:1000800097020000938282017390523073502030A7
:1000900073503030735040309301000097020000DD
:1000A000938282F673905230130510001315F501F8
:1000B000634C05000F00F00F930110009308D0056A
:1000C000130500007300000093020000638E02001D
:1000D00073905210B7B20000938292107390223046
:1000E00073232030E39A62F47350003097020000CB
:1000F0009382420173901234732540F173002030D3
:10010000B7800000938000E03771DBB6130171DB2C
:1001100033872002B71E0000938E0E209301000249
:100120006314D74BB7800000938000FC3771DBB6B7
:10013000130171DB33872002B71E0000938E0E245B
:10014000930110026312D7499300000013010000CD
:1001500033872002930E0000930120006316D747D7
:10016000930010001301100033872002930E10003B
:1001700093013000631AD7459300300013017000DB
:1001800033872002930E500193014000631ED74332
:10019000930000003781FFFF33872002930E000099
:1001A000930150006312D743B70000801301000091
:1001B00033872002930E0000930160006316D7413D
:1001C000B70000803781FFFF33872002930E0000C5
:1001D00093017000631AD73FB7B0AAAA9380B0AA60
:1001E000370103001301D1E733872002B70E010066
:1001F000938EFEF79301E0016318D73DB70003002B
:100200009380D0E737B1AAAA1301B1AA338720029D
:10021000B70E0100938EFEF79301F0016316D73BF2
:10022000B70000FF370100FF33872002930E000064
:1002300093012002631AD7399300F0FF1301F0FFF6
:1002400033872002930E100093013002631ED737CC
:100250009300F0FF1301100033872002930EF0FF8C
:10026000930140026312D737930010001301F0FF8F
:1002700033872002930EF0FF930150026316D735A7
:100280009300D0001301B000B3802002930EF00859
:1002900093018000639AD0339300E0001301B00013
:1002A00033812002930EA00993019000631ED13187
:1002B0009300D000B3801002930E900A9301A00027
:1002C0006394D031130200009300D0001301B000FA
:1002D0003387200213030700130212009302200049
:1002E000E31452FE930EF0089301B000631ED32D69
:1002F000130200009300E0001301B00033872002D6
:1003000013000000130307001302120093022000E1
:10031000E31252FE930EA0099301C0006316D32B83
:10032000130200009300F0001301B0003387200295
:100330001300000013000000130307001302120053
:1003400093022000E31052FE930E500A9301D00056
:10035000631CD327130200009300D0001301B000E8
:10036000338720021302120093022000E31652FE8C
:10037000930EF0089301E0006318D72513020000E4
:100380009300E0001301B000130000003387200247
:100390001302120093022000E31452FE930EA009F0
:1003A0009301F0006312D723130200009300F000C2
:1003B0001301B00013000000130000003387200277
:1003C0001302120093022000E31252FE930E500A11
:1003D00093010001631AD71F130200009300D0009D
:1003E000130000001301B000338720021302120033
:1003F00093022000E31452FE930EF00893011001C3
:100400006314D71D130200009300E00013000000E6
:100410001301B00013000000338720021302120002
:1004200093022000E31252FE930EA00993012001D3
:10043000631CD719130200009300F00013000000A2
:10044000130000001301B0003387200213021200D2
:1004500093022000E31252FE930E500A93013001E2
:100460006314D717130200001301B0009300D000EB
:10047000338720021302120093022000E31652FE7B
:10048000930EF008930140016310D715130200008A
:100490001301B0009300E000130000003387200236
:1004A0001302120093022000E31452FE930EA009DF
:1004B00093015001631AD711130200001301B00019
:1004C0009300F000130000001300000033872002A7
:1004D0001302120093022000E31252FE930E500A00
:1004E000930160016312D70F130200001301B000E3
:1004F000130000009300D000338720021302120083
:1005000093022000E31452FE930EF0089301700151
:10051000631CD70B130200001301B000130000008E
:100520009300E00013000000338720021302120042
:1005300093022000E31252FE930EA0099301800162
:100540006314D709130200001301B0001300000068
:10055000130000009300F000338720021302120002
:1005600093022000E31252FE930E500A9301900171
:10057000631CD7059300F00133011002930E0000B5
:100580009301A0016312D1059300000233810002A0
:10059000930E00009301B0016318D103B300000271
:1005A000930E00009301C0016390D00393001002EA
:1005B0001301200233802002930E00009301D0012A
:1005C0006314D001631030020F00F00F638001004C
:1005D0009391110093E111009308D0051385010058
:1005E000730000000F00F00F930110009308D00576
:0C05F0001305000073000000731000C031
:1010000000000000000000000000000000000000E0
:1010100000000000000000000000000000000000D0
:1010200000000000000000000000000000000000C0
:1010300000000000000000000000000000000000B0
:081040000000000000000000A8
:040000058000000077
:00000001FF
