:0200000480007A
:100000006F000005732F2034930F80006308FF03F7
:10001000930F90006304FF03930FB0006300FF038E
:10002000130F000063040F0067000F00732F2034CC
:1000300063540F006F00400093E19153171F0000BD
:1000400023223FFC171F000023200FFC6FF01FFF2F
:100050009300000013010000930100001302000050
:100060009302000013030000930300001304000038
:100070009304000013050000930500001306000020
:100080009306000013070000930700001308000008
:10009000930800001309000093090000130A0000F0
:1000A000930A0000130B0000930B0000130C0000D8
:1000B000930C0000130D0000930D0000130E0000C0
:1000C000930E0000130F0000930F0000732540F102
:1000D0006310050097020000938202017390523072
:1000E000735044749702000093820201739052305F
:1000F00073500018970200009382020273905230EE
:10010000B70200809382F2FF7390023B9302F001EA
:100110007390023A7350403097020000938242017C
:100120007390523073502030735030309301000080
:1001300097020000938242ED739052301305100035
:100140001315F501634C05000F00F00F930110002B
:100150009308D0051305000073000000930200000F
:10016000638A020073905210B7B20000938292101B
:100170007390223073500030372500007320053013
:100180007350300097020000938242017390123442
:10019000732540F17300203093012000370580FF64
:1001A000530505F0531505E0930310006316750E13
:1001B00093013000370580BF530505F0531505E066
:1001C00093032000631A750C93014000370580806B
:1001D0001305F5FF530505F0531505E093034000A3
:1001E000631C750A9301500037050080530505F024
:1001F000531505E0930380006310750A93016000B6
:1002000013050000530505F0531505E093030001A5
:100210006314750893017000370580001305F5FF1E
:10022000530505F0531505E09303000263167506A8
:10023000930180003705803F530505F0531505E015
:1002400093030004631A7504930190003705807FBF
:10025000530505F0531505E093030008631E75026E
:100260009301A0003705807F13051500530505F0A5
:10027000531505E093030010631075029301B0005D
:100280003705C07F530505F0531505E093030020A3
:1002900063147500631030020F00F00F63800100DB
:1002A0009391110093E111009308D005138501008B
:1002B000730000000F00F00F930110009308D005A9
:1002C0001305000073000000731000C00000000060
:1002D000000000000000000000000000000000001E
:1002E000000000000000000000000000000000000E
:0C02F00000000000000000000000000002
:1010000000000000000000000000000000000000E0
:1010100000000000000000000000000000000000D0
:1010200000000000000000000000000000000000C0
:1010300000000000000000000000000000000000B0
:081040000000000000000000A8
:040000058000000077
:00000001FF
