:0200000480007A
:100000006F00C0006F2080306F20403093000000F0
:10001000130100009301000013020000930200008E
:100020001303000093030000130400009304000076
:10003000130500009305000013060000930600005E
:100040001307000093070000130800009308000046
:100050001309000093090000130A0000930A00002E
:10006000130B0000930B0000130C0000930C000016
:10007000130D0000930D0000130E0000930E0000FE
:10008000130F0000930F00009702000093820201FB
:10009000739052307350447497020000938202F7B9
:1000A0007390523017A100001301C1ECF32240F10C
:1000B0009392C2003301510073100134EF20101CE1
:1000C000173500001305059D6F20007D832245082C
:1000D0007390121483204500032185008321C500FD
:1000E0000322050183224501032385018323C501E2
:1000F00003240502832445028325C5020326050344
:1001000083264503032785038327C50303280504A6
:1001100083284504032985048329C504032A05058A
:10012000832A4505032B8505832BC505032C05066E
:10013000832C4506032D8506832DC506032E050752
:10014000832E4507032F8507832FC50703258502C7
:100150007300201073110114232211002326310093
:1001600023284100232A5100232C6100232E7100F3
:1001700023208102232291022324A1022326B102FB
:100180002328C102232AD102232CE102232EF102CB
:1001900023200105232211052324210523263105CF
:1001A00023284105232A5105232C6105232E71059F
:1001B00023208107232291072324A1072326B107A7
:1001C0002328C107232AD107232CE107232EF10777
:1001D000F312011423245100F322001023205108AC
:1001E000F322101423225108F3223014232451083F
:1001F000F322201423265108130501006F20803FAD
:1010000000000000000000000000000000000000E0
:1010100000000000000000000000000000000000D0
:1010200000000000000000000000000000000000C0
:1010300000000000000000000000000000000000B0
:081040000000000000000000A8
:10200000B367B500B3E7C70093F73700B306C50061
:10201000638407023386C50093070500637ED502FB
:1020200003C705009385150093871700A38FE7FE6C
:10203000E398C5FE67800000E37ED5FE93070500A8
:1020400003A70500938747009385450023AEE7FE6D
:10205000E3E8D7FE6780000067800000130101FFFE
:10206000B367C500232481002326110093F73700AE
:10207000130405003307C500638207026376E50099
:1020800093F5F50FEFF09FFD8320C10013050400C9
:1020900003248100130101016780000093F5F50F0F
:1020A00093968500B386B60093970601B386F60033
:1020B000E37CE5FC930705009387470023AED7FE3A
:1020C000E3ECE7FE8320C100130504000324810034
:1020D000130101016780000083470500638E07003C
:1020E0009307050003C7170093871700E31C07FE3B
:1020F0003385A7406780000013050000678000005B
:1021000083470500938515001305150003C7F5FFE8
:1021100063880700E386E7FE3385E74067800000B9
:10212000930700006FF05FFFB367B50093F73700C8
:10213000639E07021378C6FF330805016378050321
:10214000930705006F0000019387470093854500C2
:1021500063F8070183A6070003A70500E386E6FEF0
:102160003385A7403306A640138507003386C50094
:102170006F00400103C705008347F5FF93851500F5
:10218000639AE70013051500E396C5FE13050000EA
:10219000678000003385E7406780000093070500F3
:1021A00003C705009387170093851500A38FE7FEEB
:1021B000E31807FE6780000003470500930600024E
:1021C000930705006318D70003C71700938717000C
:1021D000E30CD7FE9306D0026300D7069306B00245
:1021E0006300D70483C607009305000063820604DA
:1021F000130500009387170013172500138606FDAB
:1022000083C607003307A700131717003305E6003E
:10221000E39206FE638005023305A040678000005C
:1022200083C617009305000093871700E39206FC0E
:10223000130500006780000083C617009305100097
:1022400093871700E39606FA130500006FF09FFED0
:10225000834505006380050697F6FFFF938686DABF
:1022600017F6FFFF130606DE03A7060083A7460046
:1022700013880500130515003367F700B70801013F
:1022800063020702130700002320E6009307000003
:102290002322F60003A7060083A746003367F70052
:1022A000E31207FE23A0060123A2160183450500C1
:1022B000E39C05FA6780000097F6FFFF938686D4BB
:1022C00003A7060083A74600130805009358F541AD
:1022D0003367F7006306070217F6FFFF130686D67B
:1022E000130700002320E600930700002322F600D6
:1022F00003A7060083A746003367F700E31207FE33
:1023000023A0060123A216016F000000130101FFA4
:102310001305903423261100EFF01FFA130101FE7C
:102320001306C1001307B101130390006F00800072
:10233000138707009377F500B337F300B307F04036
:1023400093F777029376F50093870703B387F60038
:102350002300F7009396C501135545009307F7FF37
:1023600033E5A60093D54500E314E6FC0345C10020
:10237000230E0100630205069305060097F6FFFF92
:10238000938646C817F6FFFF1306C6CB03A70600C1
:1023900083A7460013080500938515003367F700EF
:1023A000B708010163020702130700002320E600BB
:1023B000930700002322F60003A7060083A7460028
:1023C0003367F700E31207FE03C5050023A00601EB
:1023D00023A21601E31C05FA130101026780000025
:1023E000130101FD9307100037F7FFFF2326F100CB
:1023F0002326110223248102232291022320210378
:10240000232E3101232C4101232A510123240100D1
:10241000B306E500B7E7030063F6F6189359C50065
:1024200093840940172900001309C9BD939724001C
:10243000B307F90083A707003374E500639607101C
:1024400017470000130747BC032A070063000A1858
:1024500083274A009746000083A6C6BA2320F700C8
:10246000638CD7121306C100930581001305040085
:10247000832A0A00EF0040616310051093D6CA005A
:102480009396A60093E6F60193972400B307F9000C
:1024900013E7060C23A0E70073000412971700004F
:1024A000938747B693993900B387370103A707008D
:1024B0006318071203270A00B705040023A0E700EA
:1024C00003274A0023A2E700F3A50510B707C0FFC2
:1024D000B307F40037160000130704003386C70063
:1024E00003A3070083A8470003A8870003A5C7002C
:1024F0002320670023221701232407012326A70096
:102500009387070113070701E39CC7FC739005102D
:1025100093972400B304F90023A0D400730004129D
:102520000F1000008320C102032481028324410292
:10253000032901028329C101032A8101832A410160
:10254000130101036780000013F707046302070407
:1025500013F70708631207061307F00093E707084D
:10256000639CE50493942400B304990023A0F40031
:10257000730004126FF01FFB83260A00832781007B
:1025800093D6C6009396A600B3E6F6006FF0DFEF91
:1025900093E707046FF01FFD9747000023A407A6E9
:1025A0006FF05FEC170500001305C579EFF05FCA07
:1025B00013053000EFF05FD0170500001305C57C50
:1025C000EFF01FC913053000EFF01FCF1715000003
:1025D00013050580EFF0DFC713053000EFF0DFCD06
:1025E0001715000013054580EFF09FC61305300056
:1025F000EFF09FCC130101FB232481042326110457
:102600002322910423202105232E3103232C41036F
:10261000232A5103232861032326710323248103E2
:10262000232291032320A103232EB10113040500CB
:10263000EF000045631205108325C408930780004E
:102640006380F512930720006380F506938745FFAA
:10265000130710006376F7009307F000639CF520E2
:1026600003258408EFF0DFD7130504000324810459
:102670008320C10483244104032901048329C10365
:10268000032A8103832A4103032B0103832BC10205
:10269000032C8102832C4102032D0102832DC101F1
:1026A000130101056FD09FA20327440893773700D9
:1026B000639E0708EF0780007310300003270700B0
:1026C00083A707006300F7081305100497050000AF
:1026D0009385457597F6FFFF9386C69217F6FFFF21
:1026E0001306469603A7060083A7460013090500B4
:1026F000938515003367F700B709010163020702EC
:10270000930700002320F60013080000232206018F
:1027100003A7060083A746003367F700E31207FE0E
:1027200003C5050023A0260123A23601E31C05FAF8
:1027300013053000EFF05FB813050400EFD01F99C8
:102740006FF09FEF13051000EFF01FB717050000A3
:1027500013058576EFF0DFAF13053000EFF0DFB53E
:102760008327840237190000971A0000938A8A8908
:102770002326F100172D0000130DCD88B70C04009F
:10278000370CC0FF174A0000130ACA87974B000096
:10279000938B8B8737FB03009357C90093993700BE
:1027A00033873A0103270700630C07089387074024
:1027B00093972700B307FD0083A4070093F7040451
:1027C0006380070AF3AD0C1033048901371600004B
:1027D0009305040013050900EFF01F956304050439
:1027E00093F404086380040AB71600001307090075
:1027F00093070400B306D900032807000325470008
:10280000832587000326C70023A0070123A2A70072
:1028100023A4B70023A6C700130707019387070166
:10282000E31CD7FCB3873A0173900D1003270A000D
:1028300023A00700630007022322F7002320FA00E9
:10284000B71700003309F900E31869F50325C10043
:10285000EFF09FA62320FA0023A0FB006FF05FFE9D
:10286000170500001305C55EEFF09F9E13053000AD
:10287000EFF09FA41705000013054566EFF05F9D7C
:102880006FF01FEB170500001305C55FEFF05F9CAD
:1028900013053000EFF05FA2F32740F163960716AF
:1028A00017260000130606769357C600130101F69B
:1028B0009397A700232E1108232C81089715000059
:1028C0009385457493E7170023A0F500B707002010
:1028D00093D6C500370700809387F70C232EF6FEAA
:1028E000B3E7E60073900718F3260018639ED71627
:1028F000130405001347F7FF9307F0019702000048
:1029000093824201F39252307310073B7390073A5F
:102910007390523097E7BF7F938707847390571067
:10292000F3270034B708C07FB387170173900714EB
:10293000B7B700009387071073902730B7E70100FF
:102940009387076073900730735040309717C07FAC
:102950009387C78A173700002328F76A9717C07F25
:102960009387C7A817370000232EF768370308009E
:102970001717000013078788171E0000130E8EA775
:1029800093070001930500001303F3039388880065
:102990001396F50193D61700B366D6003386670009
:1029A000B3C7F600330817011316C60093975700F4
:1029B0002320C7002322070193F70702130787008C
:1029C000B3E7F60093D51500E314EEFC13060009F7
:1029D00093050000130501009717000023AA07A024
:1029E000EFF0CFE7B70700803304F40013050100D0
:1029F00023228108EFD08FED8320C10903248109B0
:102A00001301010A67800000B73773063706080014
:102A10009387171F130700001306C6FF37080080AF
:102A2000370500406F00C0022FA006009315F70184
:102A300093D61700B3E6D500B3C7D7009397E70145
:102A4000B375F500135717009387060033E7E500C9
:102A5000B3F6C70093F51700B3860601E39605FCAD
:102A600003A006006FF09FFC170500001305C54981
:102A7000EFF00FFE13053000EFF01F8467800000B9
:102A80001305000067800000130500006780000048
:102A9000731030009301200073D030003715000010
:102AA00013054523F315350093031000639C752629
:102AB000930130007325300093034003631475269F
:102AC000930140007325100093034001631C75249B
:102AD0009301500073552100930310006314752473
:102AE000930160007325300093034005631C752239
:102AF00093017000737512009303400163147522F3
:102B0000930180007325300093030005631C75203A
:102B10009301A000B715000093854523130600001C
:102B2000D38005F4530106F453802024530500E4B8
:102B3000B7130000938343236316751E9301B000FF
:102B4000B7150000938545231306F0FFD38005F4E5
:102B5000530106F453802024530500E4B793FFFF8C
:102B6000938343236310751C9301C000B795000045
:102B70009385452313060000D38005F4530106F422
:102B800053802024530500E4B713000093834323AC
:102B9000631A75189301D000B795000093854523FB
:102BA0001306F0FFD38005F4530106F4538020246C
:102BB000530500E4B793FFFF938343236314751613
:102BC00093014001B71500009385452313060000CB
:102BD000D38005F4530106F453902024530500E4F8
:102BE000B793FFFF93834323631E75129301500134
:102BF000B7150000938545231306F0FFD38005F435
:102C0000530106F453902024530500E4B713000049
:102C1000938343236318751093016001B7950000F7
:102C20009385452313060000D38005F4530106F471
:102C300053902024530500E4B793FFFF938343236D
:102C40006312750E93017001B795000093854523BB
:102C50001306F0FFD38005F4530106F453902024AB
:102C6000530500E4B713000093834323631C750AE4
:102C70009301E001B715000093854523130600007A
:102C8000D38005F4530106F453A02024530500E437
:102C9000B713000093834323631675089301F00173
:102CA000B7150000938545231306F0FFD38005F484
:102CB000530106F453A02024530500E4B793FFFF0B
:102CC000938343236310750693010002B7950000B8
:102CD0009385452313060000D38005F4530106F4C1
:102CE00053A02024530500E4B793FFFF93834323AD
:102CF000631A750293011002B7950000938545236E
:102D00001306F0FFD38005F4530106F453A02024EA
:102D1000530500E4B7130000938343236314750045
:102D2000631A300013951100630005001365150048
:102D3000730000001305100073000000731000C042
:102D4000417373657274696F6E206661696C656446
:102D50003A2061646472203E3D202831554C203C6D
:102D60003C203132292026262061646472203C20D8
:102D70003633202A202831554C203C3C2031322942
:102D80000A000000417373657274696F6E2066619A
:102D9000696C65643A20212870745B315D5B616405
:102DA00064722F2831554C203C3C203132295D2063
:102DB000262030783038302920262620636175732C
:102DC00065203D3D203078660A0000004173736540
:102DD0007274696F6E206661696C65643A206E6F0B
:102DE00064650A00417373657274696F6E20666171
:102DF000696C65643A20757365725F6D61707069A6
:102E00006E675B616464722F2831554C203C3C2016
:102E10003132295D2E61646472203D3D20300A000C
:102E2000417373657274696F6E206661696C656465
:102E30003A202122696C6C6567616C20696E73743D
:102E400072756374696F6E220A00000041737365C6
:102E50007274696F6E206661696C65643A20707483
:102E60005B315D5B616464722F2831554C203C3CC2
:102E7000203132295D20262030783034300A00009D
:102E8000417373657274696F6E206661696C656405
:102E90003A2070745B315D5B616464722F28315538
:102EA0004C203C3C203132295D20262030783038BF
:102EB000300A0000417373657274696F6E20666139
:102EC000696C65643A2074662D3E65706320252028
:102ED00034203D3D20300A00417373657274696F80
:102EE0006E206661696C65643A202122756E657892
:102EF00070656374656420657863657074696F6E6E
:102F0000220A0000417373657274696F6E206661F6
:102F1000696C65643A202122756E737570706F72EA
:102F20007465642073617470206D6F6465220A009B
:040000058000000077
:00000001FF
