:0200000480007A
:100000006F000005732F2034930F80006308FF03F7
:10001000930F90006304FF03930FB0006300FF038E
:10002000130F000063040F0067000F00732F2034CC
:1000300063540F006F00400093E19153171F0000BD
:1000400023223FFC171F000023200FFC6FF01FFF2F
:100050009300000013010000930100001302000050
:100060009302000013030000930300001304000038
:100070009304000013050000930500001306000020
:100080009306000013070000930700001308000008
:10009000930800001309000093090000130A0000F0
:1000A000930A0000130B0000930B0000130C0000D8
:1000B000930C0000130D0000930D0000130E0000C0
:1000C000930E0000130F0000930F0000732540F102
:1000D0006310050097020000938202017390523072
:1000E000735044749702000093820201739052305F
:1000F00073500018970200009382020273905230EE
:10010000B70200809382F2FF7390023B9302F001EA
:100110007390023A7350403097020000938242017C
:100120007390523073502030735030309301000080
:1001300097020000938242ED739052301305100035
:100140001315F501634C05000F00F00F930110002B
:100150009308D0051305000073000000970200000B
:100160009382C211638A020073905210B7B20000EA
:100170009382921073902230735000303715000034
:1001800013050580732005301305200273203530D8
:10019000970200009382420173901234732540F15C
:1001A0007300203093012000130300009702000029
:1001B0009382C2006783220011A019A06F00C008BB
:1001C00093013000970200009382C20067831200FF
:1001D0006F0080006F004007930140001303000090
:1001E000970200009382C2006783320011A019A019
:1001F0006F00800593015000130300009702000078
:100200009382C2006F03600011A019A06F00C003A9
:100210009301600013030000970200009382C20064
:100220006303000011A019A06F0000029301700089
:10023000631500006F00C00009A009A06F00C00096
:100240006F004002631030020F00F00F6380010066
:100250009391110093E111009308D00513850100DB
:10026000730000000F00F00F930110009308D005F9
:100270001305000073000000130520006380A10235
:1002800013054000638CA100130550006388A10092
:10029000130560006384A1006FF01FFBE31603FAEF
:1002A0009305000073252014E310B5FAF32510140C
:1002B00093854500E39AB2F8732530146306050070
:1002C0001305E5FFE31255F8938585007390151427
:1002D00073002010731000C0000000000000000038
:1002E000000000000000000000000000000000000E
:1002F00000000000000000000000000000000000FE
:1010000000000000000000000000000000000000E0
:1010100000000000000000000000000000000000D0
:1010200000000000000000000000000000000000C0
:1010300000000000000000000000000000000000B0
:081040000000000000000000A8
:040000058000000077
:00000001FF
