:0200000480007A
:100000006F008004732F2034930F80006308FF0378
:10001000930F90006304FF03930FB0006300FF038E
:10002000130F000063040F0067000F00732F2034CC
:1000300063540F006F00400093E19153171F0000BD
:1000400023223FFC6FF09FFF732540F163100500F2
:10005000970200009382020173905230735000188F
:10006000970200009382020273905230B702008020
:100070009382F2FF7390023B9302F0017390023A75
:1000800097020000938282017390523073502030A7
:1000900073503030735040309301000097020000DD
:1000A000938282F673905230130510001315F501F8
:1000B000634C05000F00F00F930110009308D0056A
:1000C000130500007300000093020000638E02001D
:1000D00073905210B7B20000938292107390223046
:1000E00073232030E39A62F47350003097020000CB
:1000F0009382420173901234732540F173002030D3
:10010000930000001301000033872040930E00008D
:10011000930120006316D74B9300100013011000C9
:1001200033872040930E000093013000631AD749B3
:10013000930030001301700033872040930EC0FFFE
:1001400093014000631ED747930000003781FFFFF3
:1001500033872040B78E0000930150006312D747C9
:10016000B70000801301000033872040B70E0080E5
:10017000930160006316D745B70000803781FFFF09
:1001800033872040B78E008093017000631AD743F5
:1001900093000000378100001301F1FF33872040F6
:1001A000B78EFFFF938E1E0093018000631AD74124
:1001B000B70000809380F0FF1301000033872040D8
:1001C000B70E0080938EFEFF93019000631AD73F15
:1001D000B70000809380F0FF378100001301F1FF2A
:1001E00033872040B78EFF7F9301A000631AD73D6D
:1001F000B7000080378100001301F1FF33872040F2
:10020000B78EFF7F938E1E009301B000631AD73B19
:10021000B70000809380F0FF3781FFFF33872040D5
:10022000B78E0080938EFEFF9301C000631AD7390A
:10023000930000001301F0FF33872040930E10005D
:100240009301D000631ED7379300F0FF1301100015
:1002500033872040930EE0FF9301E0006312D7370D
:100260009300F0FF1301F0FF33872040930E00004E
:100270009301F0006316D7359300D0001301B0004E
:10028000B3802040930E200093010001639AD03385
:100290009300E0001301B00033812040930E300042
:1002A00093011001631ED1319300D000B380104040
:1002B000930E0000930120016394D03113020000DB
:1002C0009300D0001301B0003387204013030700D0
:1002D0001302120093022000E31452FE930E20003A
:1002E00093013001631ED32D130200009300E00040
:1002F0001301B000338720401300000013030700F0
:100300001302120093022000E31252FE930E3000FB
:10031000930140016316D32B130200009300F000F9
:100320001301B000338720401300000013000000C9
:10033000130307001302120093022000E31052FE81
:10034000930E400093015001631CD3271302000059
:100350009300D0001301B000338720401302120035
:1003600093022000E31652FE930E200093016001D9
:100370006318D725130200009300E0001301B000BA
:100380001300000033872040130212009302200064
:10039000E31452FE930E3000930170016312D723D1
:1003A000130200009300F0001301B00013000000DE
:1003B0001300000033872040130212009302200034
:1003C000E31252FE930E400093018001631AD71F7F
:1003D000130200009300D000130000001301B000CE
:1003E000338720401302120093022000E31452FED0
:1003F000930E2000930190016314D71D1302000097
:100400009300E000130000001301B000130000008F
:10041000338720401302120093022000E31252FEA1
:10042000930E30009301A001631CD7191302000042
:100430009300F00013000000130000001301B0004F
:10044000338720401302120093022000E31252FE71
:10045000930E40009301B0016314D71713020000FC
:100460001301B0009300D000338720401302120024
:1004700093022000E31652FE930E20009301C00168
:100480006310D715130200001301B0009300E000C1
:100490001300000033872040130212009302200053
:1004A000E31452FE930E30009301D001631AD7116A
:1004B000130200001301B0009300F00013000000CD
:1004C0001300000033872040130212009302200023
:1004D000E31252FE930E40009301E0016312D70F26
:1004E000130200001301B000130000009300D000BD
:1004F000338720401302120093022000E31452FEBF
:10050000930E20009301F001631CD70B130200002F
:100510001301B000130000009300E000130000007E
:10052000338720401302120093022000E31252FE90
:10053000930E3000930100026314D70913020000E8
:100540001301B00013000000130000009300F0003E
:10055000338720401302120093022000E31252FE60
:10056000930E400093011002631CD705930010FF07
:1005700033011040930EF000930120026312D10565
:100580009300000233810040930E00029301300279
:100590006318D103B3000040930E000093014002A2
:1005A0006390D003930000011301E00133802040E9
:1005B000930E0000930150026314D00163103002C7
:1005C0000F00F00F638001009391110093E111007F
:1005D0009308D00513850100730000000F00F00F91
:1005E000930110009308D00513050000730000006C
:0C05F000731000C00000000000000000BC
:1010000000000000000000000000000000000000E0
:1010100000000000000000000000000000000000D0
:1010200000000000000000000000000000000000C0
:1010300000000000000000000000000000000000B0
:081040000000000000000000A8
:040000058000000077
:00000001FF
