:0200000480007A
:100000006F00C0006F20C02B6F20802B930000007A
:10001000130100009301000013020000930200008E
:100020001303000093030000130400009304000076
:10003000130500009305000013060000930600005E
:100040001307000093070000130800009308000046
:100050001309000093090000130A0000930A00002E
:10006000130B0000930B0000130C0000930C000016
:10007000130D0000930D0000130E0000930E0000FE
:10008000130F0000930F00009702000093820201FB
:10009000739052307350447497020000938202F7B9
:1000A0007390523017C10000130141E4F32240F174
:1000B0009392C2003301510073100134EF20D0132A
:1000C000173500001305C5946F20407383328510E7
:1000D000739012148330850003310501833185014B
:1000E000033205028332850203330503833385031C
:1000F00003340504833485048335850503360506FA
:1001000083368506033705078337850703380508D7
:10011000833885080339050983398509033A050AB7
:10012000833A850A033B050B833B850B033C050C97
:10013000833C850C033D050D833D850D033E050E77
:10014000833E850E033F050F833F850F033505056D
:10015000730020107311011423341100233C31006B
:10016000233041022334510223386102233C7102BF
:1001700023308104233491042338A104233CB104A7
:100180002330C1062334D1062338E106233CF1068F
:10019000233001092334110923382109233C310973
:1001A0002330410B2334510B2338610B233C710B5B
:1001B0002330810D2334910D2338A10D233CB10D43
:1001C0002330C10F2334D10F2338E10F233CF10F2B
:1001D000F312011423385100F32200102330511080
:1001E000F322101423345110F32230142338511009
:1001F000F3222014233C5110130501006F20C03757
:1010000000000000000000000000000000000000E0
:1010100000000000000000000000000000000000D0
:1010200000000000000000000000000000000000C0
:1010300000000000000000000000000000000000B0
:081040000000000000000000A8
:10200000B367B500B3E7C70093F77700B306C50021
:10201000638407023386C50093070500637ED502FB
:1020200003C705009385150093871700A38FE7FE6C
:10203000E398C5FE67800000E37ED5FE93070500A8
:1020400003B70500938787009385850023BCE7FECF
:10205000E3E8D7FE6780000067800000130101FFFE
:10206000B367C500233081002334110093F7770054
:10207000130405003307C500638207026376E50099
:1020800093F5F50FEFF09FFD8330810013050400F9
:1020900003340100130101016780000093F5F50F7F
:1020A0009717000083B7079FB385F502E37EE5FC31
:1020B000930705009387870023BCB7FEE3ECE7FE98
:1020C0008330810013050400033401001301010172
:1020D0006780000083470500638E070093070500B3
:1020E00003C7170093871700E31C07FE3385A7403B
:1020F000678000001305000067800000834705002B
:10210000938515001305150003C7F5FF638A0700C3
:10211000E386E7FE1B8507003B05E540678000007E
:10212000130500006FF05FFFB367B50093F777000A
:10213000639E0702137886FF330805016378050361
:10214000930705006F000001938787009385850042
:1021500063F8070183B6070003B70500E386E6FED0
:102160003385A7403306A640138507003386C50094
:102170006F00400103C705008347F5FF93851500F5
:10218000639AE70013051500E396C5FE13050000EA
:10219000678000003B85E7406780000093070500EB
:1021A00003C705009387170093851500A38FE7FEEB
:1021B000E31807FE6780000003470500930600024E
:1021C000930705006318D70003C71700938717000C
:1021D000E30CD7FE9306D0026300D7069306B00245
:1021E0006300D70483C607009305000063820604DA
:1021F0001305000093871700131725001B8606FDA3
:1022000083C607003307A700131717003305E6003E
:10221000E39206FE638005023305A040678000005C
:1022200083C617009305000093871700E39206FC0E
:10223000130500006780000083C617009305100097
:1022400093871700E39606FA130500006FF09FFED0
:1022500083470500638007049305101017F7FFFFFD
:10226000130747DA93950503033607001305150096
:10227000B3E6B700630A060097F7FFFF23B407DC55
:1022800083370700E39A07FE2330D7008347050012
:10229000E39C07FC6780000017F7FFFF130787D652
:1022A00083370700638A070097F7FFFF23BC07D82F
:1022B00083370700E39A07FE2330A7006F00000072
:1022C000130101FF1305903423341100EFF0DFFCFC
:1022D000130101FE1306810093077101130890009A
:1022E0006F008000930707009376F50013870600C0
:1022F000930500036374D800930570053B07B7008E
:102300002380E700135545001387F7FFE31CF6FC15
:1023100083478100230C010063820704130510101A
:102320009306060017F7FFFF1307C7CD1315050324
:10233000833507009386160033E6A700638A0500FD
:1023400097F7FFFF23B007D083370700E39A07FE14
:1023500083C706002330C700E39C07FC130101027A
:1023600067800000130101FB9307100037F7FFFFA0
:102370002322F1002334110423308104233C9102F1
:10238000233821032334310323304103233C5101FB
:1023900023340100B306E500B7E7030063F6F6183F
:1023A0009359C5009384096017290000130989C552
:1023B00093973400B307F90083B707003374E5003F
:1023C00063960710176700001307C7C4033A070096
:1023D00063000A1883378A009766000083B606C335
:1023E0002330F700638CD712130641009305810058
:1023F00013050400833A0A00EF00C0606310051063
:1024000093D6CA009396A60093E6F60193973400FC
:10241000B307F90013E7060C23B0E70073000412BA
:1024200097170000938707BE93994900B387370138
:1024300003B707006318071203370A00B705040043
:1024400023B0E70003378A0023B4E700F3A50510A3
:10245000B707E0FFB307F4003716000013070400C6
:102460003386C70003B3070083B8870003B80701AA
:1024700003B5870123306700233417012338070190
:10248000233CA7009387070213070702E39CC7FCBE
:102490007390051093973400B304F90023B0D4006F
:1024A000730004120F100000833081040334010410
:1024B000833481030339010383398102033A010222
:1024C000833A8101130101056780000013F70704B7
:1024D0006302070413F70708631207061307F000E7
:1024E00093E70708639CE50493943400B3049900D0
:1024F00023B0F400730004126FF01FFB83360A0050
:102500008337810093D6C6009396A600B3E6F60003
:102510006FF0DFEF93E707046FF01FFD9767000090
:1025200023B607AE6FF05FEC1705000013050557E3
:10253000EFF01FD213053000EFF01FD61705000093
:102540001305455AEFF0DFD013053000EFF0DFD46C
:10255000170500001305855DEFF09FCF13053000D0
:10256000EFF09FD3170500001305C55DEFF05FCEB8
:1025700013053000EFF05FD2130101F82338810614
:10258000233C11062334910623302107233C3105D7
:10259000233841052334510523306105233C710361
:1025A00023388103233491032330A103233CB10159
:1025B00013040500EF0080446312050E8335841177
:1025C000930780006380F510930720006380F50671
:1025D000938745FF130710006376F7009307F00019
:1025E000639CF51E03350411EFF0DFD713050400DB
:1025F00003340107833081078334810603390106E0
:1026000083398105033A0105833A8104033B0104C0
:10261000833B8103033C0103833C8102033D0102B0
:10262000833D8101130101086FD05FAA0337841035
:1026300093773700639E0706EF0780007310300022
:102640000327070083A707006300F7061305101090
:1026500093071004970600009386C65217F7FFFFF2
:102660001307479A13150503833507009386160051
:1026700033E6A700638A050097F7FFFF23B4079CA2
:1026800083370700E39A07FE83C706002330C7009D
:10269000E39C07FC13053000EFF01FC01305040096
:1026A000EFD0DFA26FF09FF113051000EFF0DFBE57
:1026B0001705000013050557EFF09FB9130530000B
:1026C000EFF09FBD83270405B7140000971A0000A0
:1026D000938A4A932334F100172D0000130D8D9235
:1026E000B70C0400370CE0FF176A0000130A0A92C7
:1026F000976B0000938B0B9237FB030093D7C400BA
:102700001399470033872A0103370700630C070832
:102710009387076093973700B307FD0083B90700DD
:1027200093F709046380070AF3AD0C103384840126
:10273000371600009305040013850400EFF0DF9EB8
:102740006304050493F909086380090AB7160000B9
:102750001387040093070400B386D40003380700EE
:1027600003358700833507010336870123B007014E
:1027700023B4A70023B8B70023BCC7001307070280
:1027800093870702E31CD7FCB3872A0173900D10CF
:1027900003370A0023B00700630007022334F70061
:1027A0002330FA00B7170000B384F400E39864F50F
:1027B00003358100EFF05FAE2330FA0023B0FB0059
:1027C0006FF05FFE170500001305C53EEFF05FA830
:1027D00013053000EFF05FAC170500001305054747
:1027E000EFF01FA76FF01FEB170500001305054062
:1027F000EFF01FA613053000EFF01FAAF32740F1FA
:10280000639A0718973700009387C77F130101ED7C
:1028100093D7C70023308112174800001308887E21
:10282000130405009397A700172500001305857D65
:10283000233411129356C5001357C80093E71700AD
:10284000971800009388087C1306F0FF233CF5FEE0
:102850009396A6001317A700B707002093E616006B
:102860001367170093D5C8001313F6039387F70C6B
:10287000233CF8FE23B0D8002330E500B3E7650021
:102880007390071873270018639EE7141356B60059
:102890009307F0019702000093824201F3925230B5
:1028A0007310063B7390073A739052301308F0BFD1
:1028B0001318580197E7FFFF9387078AB38707012B
:1028C00073905710F3270034B387070173900714F0
:1028D000B7B700009B87071073902730B7E7010058
:1028E0009B870760739007307350403017170000C4
:1028F000130747B09307083EB3060701B307F70075
:10290000B7080800175600002336D67017130000CA
:10291000130343ED9756000023BAF66E9388F8032D
:102920009307E0021308080113D61700B3861701B6
:10293000B347F600B30507019396C6009397570077
:102940002330D7002334B70093F70702130707019A
:10295000B367F600E31AE3FC1306001293050000C8
:10296000130501009717000023BA07E6EFF00FEFF9
:10297000B70700803304F4001305010023348110ED
:10298000EFD0CFF48330811203340112130101130D
:102990006780000013071000B7679E0A370608001B
:1029A000938717111306C6FF1315F7019316E70354
:1029B0006F00C0012F20070013D71700B3C7E7002F
:1029C0009397E703B3F7D700B3E7E70033F7C70000
:1029D00093F517003307A700E39E05FC03200700CB
:1029E0006FF09FFD1705000013054529EFF05F8686
:1029F00013053000EFF05F8A6780000013050000C8
:102A0000678000001305000067800000930120002C
:102A10003705008093050080975600009386865EF8
:102A200023B0A6002FB7B620B70300806314770445
:102A30009301300083B70600B70300809B830380B7
:102A4000639A770293014000930510002FB7B620D8
:102A5000B70300809B830380631E770093015000BF
:102A600083B70600B70300809B83138063947700CD
:102A7000631A3000139511006300050013651500FB
:102A8000730000001305100073000000731000C0F5
:082A9000010101010101010136
:102A9800417373657274696F6E206661696C6564F1
:102AA8003A2061646472203E3D202831554C203C18
:102AB8003C203132292026262061646472203C2083
:102AC8003633202A202831554C203C3C20313229ED
:102AD8000A00000000000000417373657274696F9A
:102AE8006E206661696C65643A20212870745B33D6
:102AF8005D5B616464722F2831554C203C3C203169
:102B080032295D20262030783038302920262620AA
:102B18006361757365203D3D203078660A000000CA
:102B2800417373657274696F6E206661696C656460
:102B38003A206E6F64650A00417373657274696F39
:102B48006E206661696C65643A20757365725F6DA5
:102B5800617070696E675B616464722F2831554CCF
:102B6800203C3C203132295D2E61646472203D3D59
:102B780020300A0000000000417373657274696FA9
:102B88006E206661696C65643A202122696C6C6507
:102B980067616C20696E737472756374696F6E22F5
:102BA8000A00000000000000417373657274696FC9
:102BB8006E206661696C65643A2070745B335D5B96
:102BC800616464722F2831554C203C3C20313229F5
:102BD8005D20262030783034300A000000000000E4
:102BE800417373657274696F6E206661696C6564A0
:102BF8003A2070745B335D5B616464722F283155D1
:102C08004C203C3C203132295D2026203078303859
:102C1800300A000000000000417373657274696F28
:102C28006E206661696C65643A2074662D3E657035
:102C38006320252034203D3D20300A00000000009C
:102C4800417373657274696F6E206661696C65643F
:102C58003A202122756E6578706563746564206515
:102C68007863657074696F6E220A000000000000C6
:102C7800417373657274696F6E206661696C65640F
:102C88003A202122756E737570706F7274656420B6
:0C2C980073617470206D6F6465220A0087
:040000058000000077
:00000001FF
