:0200000480007A
:100000006F008004732F2034930F80006308FF0378
:10001000930F90006304FF03930FB0006300FF038E
:10002000130F000063040F0067000F00732F2034CC
:1000300063540F006F00400093E19153171F0000BD
:1000400023223FFC6FF09FFF93000000130100008C
:10005000930100001302000093020000130300004C
:100060009303000013040000930400001305000034
:10007000930500001306000093060000130700001C
:100080009307000013080000930800001309000004
:1000900093090000130A0000930A0000130B0000EC
:1000A000930B0000130C0000930C0000130D0000D4
:1000B000930D0000130E0000930E0000130F0000BC
:1000C000930F0000732540F16310050097020000B4
:1000D000938202017390523073500018970200000F
:1000E00093824202739052309B021000939252030B
:1000F0009382F2FF7390023B9302F0017390023AF5
:100100007350403097020000938242017390523046
:10011000735020307350303093010000970200007C
:10012000938282EE73905230130510001315F5017F
:10013000635C05000F00F00F930110009308D005D9
:10014000130500007300000093020000638A0200A0
:1001500073905210B7B200009B82921073902230BD
:100160007350003037250000732005307350300085
:10017000970200009382420173901234732540F17C
:10018000730020309301200017250000130585E738
:100190008326050013052000537005D0731010004E
:1001A000530500E06312D5109301300017250000BD
:1001B000130585E5832605001305E0FF537005D080
:1001C00073101000530500E06310D50E930140003A
:1001D00017250000130585E383260500130520007D
:1001E000537015D073101000530500E0631ED50A3C
:1001F0009301500017250000130585E183260500B3
:100200001305E0FF537015D073101000530500E084
:10021000631CD5089301600017250000130585DFD6
:100220008326050013052000537025D0731010009D
:10023000530500E0631AD5069301700017250000EE
:10024000130585DD832605001305E0FF537025D0D7
:1002500073101000530500E06318D504930180006B
:1002600017250000130585DB8326050013052000F4
:10027000537035D073101000530500E06316D5029B
:100280009301900017250000130585D983260500EA
:100290001305E0FF537035D073101000530500E0D4
:1002A0006314D500631030020F00F00F638001006B
:1002B0009391110093E111009308D005138501007B
:1002C000730000000F00F00F930110009308D00599
:1002D0001305000073000000731000C00000000050
:1002E000000000000000000000000000000000000E
:0C02F00000000000000000000000000002
:1010000000000000000000000000000000000000E0
:1010100000000000000000000000000000000000D0
:1010200000000000000000000000000000000000C0
:1010300000000000000000000000000000000000B0
:081040000000000000000000A8
:1020000000000040000000C0000000400000804FC1
:1020100000000040000000C0000000400000805FA1
:040000058000000077
:00000001FF
