:0200000480007A
:100000006F000005732F2034930F80006308FF03F7
:10001000930F90006304FF03930FB0006300FF038E
:10002000130F000063040F0067000F00732F2034CC
:1000300063540F006F00400093E19153171F0000BD
:1000400023223FFC171F000023200FFC6FF01FFF2F
:100050009300000013010000930100001302000050
:100060009302000013030000930300001304000038
:100070009304000013050000930500001306000020
:100080009306000013070000930700001308000008
:10009000930800001309000093090000130A0000F0
:1000A000930A0000130B0000930B0000130C0000D8
:1000B000930C0000130D0000930D0000130E0000C0
:1000C000930E0000130F0000930F0000732540F102
:1000D0006310050097020000938202017390523072
:1000E000735044749702000093820201739052305F
:1000F00073500018970200009382420273905230AE
:100100009B021000939252039382F2FF7390023B82
:100110009302F0017390023A73504030970200004E
:1001200093824201739052307350203073503030BC
:100130009301000097020000938202ED7390523009
:10014000130510001315F501635C05000F00F00F97
:10015000930110009308D005130500007300000000
:1001600093020000638A020073905210B7B200003D
:100170009B829210739022307350003097020000DF
:100180009382420173901234732540F17300203042
:1001900093012000972000009380C0E637015500AE
:1001A0001B01510513110101130151051311110117
:1001B0001301A10A970700009387470123B020008D
:1001C00003B700006F00800013070100B70355005C
:1001D0009B835305939303019383530593931301D7
:1001E0009383A30A63187766930130009720000079
:1001F000938040E13701D5FF1B0151051311010127
:10020000130151051311D1001301B1001311C100E5
:10021000130101A0970700009387470123B4200032
:1002200003B780006F00800013070100B703D5FFFC
:100230009B83530593930301938353059393D300B7
:100240009383B3009393C300938303A063147760F5
:1002500093014000972000009380C0DA37015500D9
:100260001B0151051311D1001301B1001311C1007D
:10027000130111A01311C100130101AA9707000077
:100280009387470123B8200003B700016F00800067
:1002900013070100B70355009B8353059393D300C5
:1002A0009383B3009393C300938313A09393C300EA
:1002B000938303AA6310775A93015000972000009C
:1002C000938040D43701FDFF1B015105131101013B
:1002D0001301510513110101130151051311D1002F
:1002E0001301A100970700009387470123BC20005A
:1002F00003B780016F00800013070100B703FDFF03
:100300009B835305939303019383530593930301B5
:10031000938353059393D3009383A300631C775275
:100320009301600097200000938040D13701550071
:100330001B01510513110101130151051311110185
:100340001301A10A970700009387470123B420FEF9
:1003500003B780FE6F00800013070100B70355004C
:100360009B83530593930301938353059393130145
:100370009383A30A6310774E9301700097200000C7
:100380009380C0CB3701D5FF1B015105131101012B
:10039000130151051311D1001301B1001311C10054
:1003A000130101A0970700009387470123B820FE9F
:1003B00003B700FF6F00800013070100B703D5FFEC
:1003C0009B83530593930301938353059393D30026
:1003D0009383B3009393C300938303A0631C774676
:1003E0009301800097200000938040C5370155009D
:1003F0001B0151051311D1001301B1001311C100EC
:10040000130111A01311C100130101AA97070000E5
:100410009387470123BC20FE03B780FF6F00800055
:1004200013070100B70355009B8353059393D30033
:100430009383B3009393C300938313A09393C30058
:10044000938303AA631877409301900097200000DC
:100450009380C0BE3701FDFF1B015105131101013F
:100460001301510513110101130151051311D1009D
:100470001301A100970700009387470123B02000D4
:1004800003B700006F00800013070100B703FDFFF2
:100490009B83530593930301938353059393030124
:1004A000938353059393D3009383A3006314773A04
:1004B0009301A000972000009380C0B837712400FA
:1004C0001B01D18A1311E100130191C01311D10056
:1004D000130151341311C10013018167138200FE0F
:1004E0002330220283B20000B77324009B83D38A97
:1004F0009393E300938393C09393D30093835334F4
:100500009393C30093838367639672349301B0001F
:1005100097200000938000B33741B0001B011126E3
:100520001311C1001301B1301311F1001301312176
:100530001311C100130181099380D0FFA3B52000DE
:1005400017220000130282B083320200B743B000CA
:100550009B8313269393C3009383B3309393F30049
:10056000938333219393C300938383096394722EFF
:100570009301C00013020000B7D0BB0A9B80D0CD0E
:1005800017210000130101A82330110003370100D7
:10059000B7D3BB0A9B83D3CD631E772A1302120005
:1005A00093022000E31A52FC9301D00013020000D2
:1005B000B7C0AB0A9B80D0CC17210000130181A4E7
:1005C000130000002334110003378100B7C3AB0AC6
:1005D0009B83D3CC63107728130212009302200070
:1005E000E31852FC9301E00013020000B7C0AA0D0B
:1005F0009B80C0BC172100001301C1A013000000A4
:10060000130000002338110003370101B7C3AA0DFE
:100610009B83C3BC63107724130212009302200053
:10062000E31652FC9301F00013020000B7B0DA0D9C
:100630009B80C0BB13000000172100001301819CA8
:10064000233C110003378101B7B3DA0D9B83C3BB91
:10065000631277201302120093022000E31852FC69
:100660009301000113020000B7B0DD0C9B80B0AB1A
:1006700013000000172100001301C19813000000AF
:100680002330110203370102B7B3DD0C9B83B3ABF8
:100690006312771C1302120093022000E31652FC2F
:1006A0009301100113020000B7E0CD0C9B80B0AAAB
:1006B00013000000130000001721000013018194B3
:1006C0002334110203378102B7E3CD0C9B83B3AA15
:1006D000631277181302120093022000E31652FCF3
:1006E00093012001130200001721000013018191E2
:1006F000B72011009B803023233011000337010005
:10070000B72311009B83332363167714130212005F
:1007100093022000E31A52FC9301300113020000FF
:10072000172100001301018EB71001309B80302289
:10073000130000002334110003378100B713013088
:100740009B83332263187710130212009302200058
:10075000E31852FC9301400113020000172100002E
:100760001301418AB71000339B8020121300000050
:10077000130000002338110003370101B7130033C1
:100780009B8323126318770C13021200930220003C
:10079000E31652FC930150011302000017210000E0
:1007A0001301418613000000B70030239B80201105
:1007B000233C110003378101B70330239B832311AE
:1007C000631A77081302120093022000E31852FC08
:1007D00093016001130200001721000013018182C0
:1007E00013000000B70033229B80100113000000AB
:1007F0002330110203370102B70333229B83130115
:10080000631A77041302120093022000E31652FCCD
:100810009301700113020000171100001301817E83
:100820001300000013000000B73023129B8010005B
:100830002334110203378102B73323129B83130041
:10084000631A77001302120093022000E31652FC91
:10085000631030020F00F00F6380010093911100CC
:1008600093E111009308D005138501007300000087
:100870000F00F00F930110009308D005130500003E
:1008800073000000731000C00000000000000000B2
:100890000000000000000000000000000000000058
:1008A0000000000000000000000000000000000048
:0C08B0000000000000000000000000003C
:1010000000000000000000000000000000000000E0
:1010100000000000000000000000000000000000D0
:1010200000000000000000000000000000000000C0
:1010300000000000000000000000000000000000B0
:081040000000000000000000A8
:10200000EFBEADDEEFBEADDEEFBEADDEEFBEADDEF0
:10201000EFBEADDEEFBEADDEEFBEADDEEFBEADDEE0
:10202000EFBEADDEEFBEADDEEFBEADDEEFBEADDED0
:10203000EFBEADDEEFBEADDEEFBEADDEEFBEADDEC0
:10204000EFBEADDEEFBEADDEEFBEADDEEFBEADDEB0
:040000058000000077
:00000001FF
