:0200000480007A
:100000006F000005732F2034930F80006308FF03F7
:10001000930F90006304FF03930FB0006300FF038E
:10002000130F000063040F0067000F00732F2034CC
:1000300063540F006F00400093E19153171F0000BD
:1000400023223FFC171F000023200FFC6FF01FFF2F
:100050009300000013010000930100001302000050
:100060009302000013030000930300001304000038
:100070009304000013050000930500001306000020
:100080009306000013070000930700001308000008
:10009000930800001309000093090000130A0000F0
:1000A000930A0000130B0000930B0000130C0000D8
:1000B000930C0000130D0000930D0000130E0000C0
:1000C000930E0000130F0000930F0000732540F102
:1000D0006310050097020000938202017390523072
:1000E000735044749702000093820201739052305F
:1000F00073500018970200009382420273905230AE
:100100009B021000939252039382F2FF7390023B82
:100110009302F0017390023A73504030970200004E
:1001200093824201739052307350203073503030BC
:100130009301000097020000938202ED7390523009
:10014000130510001315F501635C05000F00F00F97
:10015000930110009308D005130500007300000000
:1001600093020000638A020073905210B7B200003D
:100170009B829210739022307350003097020000DF
:100180009382420173901234732540F17300203042
:1001900093012000B707FF009B87F70F972000000F
:1001A000938040E603A70000B703FF009B83F30F93
:1001B0006316772A93013000B70701FF9B8707F08A
:1001C00097200000938000E403A74000B70301FFDD
:1001D0009B8303F06314772893014000B717F00F57
:1001E0009B8707FF972000009380C0E103A7800052
:1001F000B713F00F9B8303FF631277269301500020
:10020000B7F70FF09B87F70097200000938080DFFF
:1002100003A7C000B7F30FF09B83F30063107724AC
:1002200093016000B707FF009B87F70F972000003E
:10023000938000DE03A740FFB703FF009B83F30F0B
:10024000631E772093017000B70701FF9B8707F0BB
:10025000972000009380C0DB03A780FFB70301FF56
:100260009B8303F0631C771E93018000B717F00F88
:100270009B8707FF97200000938080D903A7C0FFCA
:10028000B713F00F9B8303FF631A771C9301900051
:10029000B7F70FF09B87F70097200000938040D7B7
:1002A00003A70000B7F30FF09B83F3006318771ADE
:1002B0009301A000972000009380C0D4938000FE9B
:1002C00083A20002B703FF009B83F30F63987218A9
:1002D0009301B000972000009380C0D29380D0FF9C
:1002E00083A27000B70301FF9B8303F0639872162B
:1002F0009301C00013020000972000009380C0D03B
:1003000003A7400013030700B713F00F9B8303FFFD
:10031000631673141302120093022000E31E52FCB2
:100320009301D0001302000097200000938000CEBC
:1003300003A740001300000013030700B7F30FF0FA
:100340009B83F300631C73101302120093022000BE
:10035000E31C52FC9301E000130200009720000010
:10036000938040CA03A74000130000001300000060
:1003700013030700B70301FF9B8303F06310730EA1
:100380001302120093022000E31A52FC9301F000C2
:100390001302000097200000938000C703A74000CD
:1003A000B713F00F9B8303FF631A770A130212003F
:1003B00093022000E31052FE93010001130200009B
:1003C00097200000938080C41300000003A7400022
:1003D000B7F30FF09B83F300631277081302120048
:1003E00093022000E31E52FC93011001130200004F
:1003F00097200000938000C113000000130000004C
:1004000003A74000B70301FF9B8303F06318770441
:100410001302120093022000E31C52FC93012001FE
:1004200097220000938202BE03A102001301200064
:10043000930320006314710293013001972200009E
:10044000938242BC03A102001300000013012000AC
:100450009303200063147100631030020F00F00F4B
:10046000638001009391110093E111009308D0057E
:1004700013850100730000000F00F00F93011000BE
:100480009308D0051305000073000000731000C02E
:10049000000000000000000000000000000000005C
:1004A000000000000000000000000000000000004C
:0C04B00000000000000000000000000040
:1010000000000000000000000000000000000000E0
:1010100000000000000000000000000000000000D0
:1010200000000000000000000000000000000000C0
:1010300000000000000000000000000000000000B0
:081040000000000000000000A8
:10200000FF00FF0000FF00FFF00FF00F0FF00FF0D8
:040000058000000077
:00000001FF
