:0200000480007A
:100000006F008004732F2034930F80006308FF0378
:10001000930F90006304FF03930FB0006300FF038E
:10002000130F000063040F0067000F00732F2034CC
:1000300063540F006F00400093E19153171F0000BD
:1000400023223FFC6FF09FFF93000000130100008C
:10005000930100001302000093020000130300004C
:100060009303000013040000930400001305000034
:10007000930500001306000093060000130700001C
:100080009307000013080000930800001309000004
:1000900093090000130A0000930A0000130B0000EC
:1000A000930B0000130C0000930C0000130D0000D4
:1000B000930D0000130E0000930E0000130F0000BC
:1000C000930F0000732540F16310050097020000B4
:1000D000938202017390523073500018970200000F
:1000E00093824202739052309B021000939252030B
:1000F0009382F2FF7390023B9302F0017390023AF5
:100100007350403097020000938242017390523046
:10011000735020307350303093010000970200007C
:10012000938282EE73905230130510001315F5017F
:10013000635C05000F00F00F930110009308D005D9
:10014000130500007300000093020000638A0200A0
:1001500073905210B7B200009B82921073902230BD
:100160007350003097020000938242017390123462
:10017000732540F17300203093000000130100004C
:100180003387200093030000930120006310774E13
:100190009300100013011000338720009303200008
:1001A000930130006314774C93003000130170000A
:1001B000338720009303A000930140006318774A1F
:1001C000930000003781FFFF33872000B783FFFFD4
:1001D00093015000631C7748B700008013010000B2
:1001E00033872000B70300809301600063107748D5
:1001F000B70000803781FFFF33872000B703FFFF80
:100200009B83F3FF9393F300930170006310774691
:1002100093000000378100001B01F1FF33872000AD
:10022000B78300009B83F3FF930180006310774442
:10023000B70000809B80F0FF13010000338720008F
:10024000B70300809B83F3FF930190006310774214
:10025000B70000809B80F0FF378100001B01F1FF99
:1002600033872000B70301009B8313009393F300AF
:100270009383E3FF9301A000631A773EB7000080E9
:10028000378100001B01F1FF33872000B783008016
:100290009B83F3FF9301B000631A773CB7000080A3
:1002A0009B80F0FF3781FFFF33872000B783FF7FFC
:1002B0009B83F3FF9301C000631A773A9300000019
:1002C0001301F0FF338720009303F0FF9301D00068
:1002D000631E77389300F0FF13011000338720006E
:1002E000930300009301E000631277389300F0FF5E
:1002F0001301F0FF338720009303E0FF9301F00028
:100300006316773693001000370100801B01F1FF60
:10031000338720009B0310009393F30193010001A6
:10032000631677349300D0001301B000B38020002F
:100330009303800193011001639A70329300E000EF
:100340001301B00033812000930390019301200139
:10035000631E71309300D000B38010009303A0019E
:100360009301300163947030130200009300D000B9
:100370001301B0003387200013030700130212009B
:1003800093022000E31452FE930380019301400185
:10039000631E732C130200009300E0001301B000F1
:1003A000338720001300000013030700130212001C
:1003B00093022000E31252FE930390019301500137
:1003C0006316732A130200009300F0001301B000BB
:1003D0003387200013000000130000001303070000
:1003E0001302120093022000E31052FE9303A001B7
:1003F00093016001631C7326130200009300D00078
:100400001301B00033872000130212009302200072
:10041000E31652FE93038001930170016318772461
:10042000130200009300E0001301B000130000006D
:10043000338720001302120093022000E31452FEBF
:10044000930390019301800163127722130200004D
:100450009300F0001301B00013000000130000002F
:10046000338720001302120093022000E31252FE91
:100470009303A00193019001631A771E13020000F9
:100480009300D000130000001301B0003387200058
:100490001302120093022000E31452FE9303800122
:1004A0009301A0016314771C130200009300E00085
:1004B000130000001301B000130000003387200078
:1004C0001302120093022000E31252FE93039001E4
:1004D0009301B001631C7718130200009300F00031
:1004E00013000000130000001301B0003387200048
:1004F0001302120093022000E31252FE9303A001A4
:100500009301C00163147716130200001301B000B9
:100510009300D000338720001302120093022000C2
:10052000E31652FE930380019301D0016310771408
:10053000130200001301B0009300E000130000005C
:10054000338720001302120093022000E31452FEAE
:10055000930390019301E001631A771013020000E6
:100560001301B0009300F00013000000130000001E
:10057000338720001302120093022000E31252FE80
:100580009303A0019301F0016312770E13020000A0
:100590001301B000130000009300D0003387200047
:1005A0001302120093022000E31452FE9303800111
:1005B00093010002631C770A130200001301B000CC
:1005C000130000009300E0001300000033872000B8
:1005D0001302120093022000E31252FE93039001D3
:1005E0009301100263147708130200001301B00096
:1005F00013000000130000009300F0003387200078
:100600001302120093022000E31252FE9303A00192
:1006100093012002631C77049300F0003301100063
:100620009303F000930130026312710493000002FF
:1006300033810000930300029301400263187102AA
:10064000B300000093030000930150026390700216
:10065000930000011301E0013380200093030000A8
:100660009301600263147000631030020F00F00FFA
:10067000638001009391110093E111009308D0056C
:1006800013850100730000000F00F00F93011000AC
:100690009308D0051305000073000000731000C01C
:1006A000000000000000000000000000000000004A
:0C06B0000000000000000000000000003E
:1010000000000000000000000000000000000000E0
:1010100000000000000000000000000000000000D0
:1010200000000000000000000000000000000000C0
:1010300000000000000000000000000000000000B0
:081040000000000000000000A8
:040000058000000077
:00000001FF
