:0200000480007A
:100000006F000005732F2034930F80006308FF03F7
:10001000930F90006304FF03930FB0006300FF038E
:10002000130F000063040F0067000F00732F2034CC
:1000300063540F006F00400093E19153172F0000AD
:1000400023223FFC172F000023200FFC6FF01FFF1F
:100050009300000013010000930100001302000050
:100060009302000013030000930300001304000038
:100070009304000013050000930500001306000020
:100080009306000013070000930700001308000008
:10009000930800001309000093090000130A0000F0
:1000A000930A0000130B0000930B0000130C0000D8
:1000B000930C0000130D0000930D0000130E0000C0
:1000C000930E0000130F0000930F0000732540F102
:1000D0006310050097020000938202017390523072
:1000E000735044749702000093820201739052305F
:1000F00073500018970200009382420273905230AE
:100100009B021000939252039382F2FF7390023B82
:100110009302F0017390023A73504030970200004E
:1001200093824201739052307350203073503030BC
:100130009301000097020000938202ED7390523009
:10014000130510001315F501635C05000F00F00F97
:10015000930110009308D005130500007300000000
:1001600093020000638A020073905210B7B200003D
:100170009B829210739022307350003097020000DF
:100180009382420173901234732540F17300203042
:1001900017340000130404E7930110001303102028
:1001A00083131400630473006F1010469301200042
:1001B0001303102083531400630473006F10D044A2
:1001C00093013000370303041B031320832314001F
:1001D000630473006F10504393014000370304051C
:1001E0001B03233083232400630473006F10D0416A
:1001F00093015000370305061B033340832334006B
:10020000630473006F1050409301600037030304D0
:100210001B03132083631400630473006F10D03E2C
:1002200093017000370304051B032330836324000C
:10023000630473006F10503D93018000370305067F
:100240001B03334083633400630473006F10D03B9F
:1002500093019000370307081B0353601313030136
:1002600013033340131303011303132083331400C8
:10027000630473006F1050399301A00037038404A6
:100280001B0333381313F300130313141313230145
:100290001303233083332400630473006F10D036BC
:1002A0009301B0003713090A1B0373801313030172
:1002B00013035360131303011303334083333400D8
:1002C000630473006F1050349301C0003743610121
:1002D0001B031312131323011303333813131301D6
:1002E0001303435083334400630473006F10D03111
:1002F0009301D000370306001B0353581313D30098
:10030000130313091313C30013037380131303019F
:100310001303536083335400630473006F10D02EB3
:100320009301E000370386061B0353581313E300C1
:100330001303131213133301130363708333640025
:10034000630473006F10502C9301F0003783030097
:100350001B03333413131301130353581313D30024
:10036000130313091313C30013037380833374003F
:10037000630473006F1050299301000137230000BC
:100380001B03F3018313F401630473006F10D02780
:1003900093011001372300001B03F3018353F40181
:1003A000630473006F1050269301200137231F2030
:1003B0001B03D3E18323D401630473006F10D024A3
:1003C00093013001372320211B03E3F18323E40150
:1003D000630473006F1050239301400137232122DF
:1003E0001B03F3018323F401630473006F10D02116
:1003F0009301500137231F201B03D3E18363D401F2
:10040000630473006F105020930160013723202193
:100410001B03E3F18363E401630473006F10D01ED8
:1004200093017001372321221B03F3018363F4013D
:10043000630473006F10501D930180013713100087
:100440001B03F3F81313F300130373741313D30094
:100450001303930D1313D300130393A18333940158
:10046000630473006F10501A930190013703090160
:100470001B03930F1313C3001303F3F01313C300F1
:100480001303138E1313D3001303A3B18333A401F7
:10049000630473006F1050179301A001371311010B
:1004A0001B0313901313C3001303F3F81313C300B8
:1004B0001303930E1313D3001303B3C18333B40197
:1004C000630473006F1050149301B001379311004F
:1004D0001B0313111313C30013031390131303010E
:1004E0001303138F1313D3001303C3D18333C40136
:1004F000630473006F1050119301C0013713120091
:100500001B0313191313C3001303931013130301D5
:100510001303930F1313D3001303D3E18333D401D5
:10052000630473006F10500E9301D001372329012B
:100530001B0393111313C300130313111313C300ED
:10054000130313901313D3001303E3F18333E40174
:10055000630473006F10500B9301E00137333101D6
:100560001B0313921313C300130313191313C300B4
:10057000130393101313D3001303F3018333F40114
:10058000630473006F1050089301F00137430000BB
:100590001B03F3038313F403630473006F10D0068B
:1005A00093010002374300001B03F3038353F4035A
:1005B000630473006F1050059301100237433F40EE
:1005C0001B03D3E38323D403630473006F10D003AE
:1005D00093012002374340411B03E3F38323E403E9
:1005E000630473006F10500293013002374341429D
:1005F0001B03F3038323F403630473006F10D00021
:100600009301400237433F401B03D3E38363D4038A
:10061000630473006F10407F9301500237434041E1
:100620001B03E3F38363E403630473006F10C07D73
:1006300093016002374341421B03F3038363F403D6
:10064000630473006F10407C930170023703010153
:100650001B0393CF1313C3001303F3F41313C3004B
:100660001303D30E1313E300130393A383339403F1
:10067000630473006F104079930180023703050112
:100680001B03D30F1313C3001303F3F81313C30097
:100690001303134F1313E3001303A3B38333A40310
:1006A000630473006F1040769301900237130100CA
:1006B0001B035390131303011303D30F13130301ED
:1006C0001303538F1313E3001303B3C38333B40330
:1006D000630473006F1040739301A002371301008D
:1006E0001B0393D0131303011303135013130301BC
:1006F000130393CF1313E3001303C3D38333C40350
:10070000630473006F1040709301B002371311003F
:100710001B03130D1313C30013035390131303018F
:100720001303D30F1313E3001303D3E38333D4036F
:10073000630473006F10406D9301C00237531100C2
:100740001B0313111313C300130393D013130301DB
:10075000130313501313E3001303E3F38333E4038E
:10076000630473006F10406A9301D00237131901BC
:100770001B0313511313C3001303130D1313C300EF
:10078000130353901313E3001303F3038333F403AE
:10079000630473006F1040679301E0023783FFFF2B
:1007A0001B030318A3106400831314006304730075
:1007B0006F1080659301F002378300001B0323381C
:1007C000A310640083531400630473006F10C063AC
:1007D00093010003378386871B034358A3206400DB
:1007E00083231400630473006F10006293011003ED
:1007F00037938A8B1B03839823216400832324006F
:10080000630473006F1040609301200337938E8F51
:100810001B03C3D8A3216400832334006304730043
:100820006F10805E93013003374309001B039392DE
:100830001313C30013030319A3206400836314007C
:10084000630473006F10405C930140033783090019
:100850001B0393961313C30013034359232164000E
:1008600083632400630473006F10005A93015003E4
:1008700037E304001B0353CD1313D30013038399F1
:10088000A321640083633400630473006F10C057B6
:100890009301600337D3D1FF1B0313151313C30058
:1008A000130353D013130301130353CF1313D300B4
:1008B0001303C3D9A33064008333140063047300AB
:1008C0006F10805493017003375357FF1B03335548
:1008D0001313C300130353511313E300130353D330
:1008E0001313D3001303435A2331640083332400CA
:1008F000630473006F1040519301800337E3D9FF05
:100900001B0393951313D3001303B3B01313030105
:100910001303B3AE1313C3001303C3DAA33164008C
:1009200083333400630473006F10004E930190030F
:10093000377377FF1B0333571313C300130373710C
:100940001313F3001303B3B61313C3001303435B72
:100950002332640083334400630473006F10C04A81
:100960009301A0033713FFFF1B03B3F0131303011D
:1009700013033370131303011303B3EF1313E300D3
:100980001303C3DBA3326400833354006304730096
:100990006F1080479301B00337E3E5FF1B03535605
:1009A0001313E300130393911313D3001303B3F151
:1009B0001313E3001303435C2333640083336400A5
:1009C000630473006F1040449301C00337F3E9FFE1
:1009D0001B0393961313D3001303D3D013130301F4
:1009E0001303D3CE1313C3001303C3DCA333640078
:1009F00083337400630473006F1000419301D003CC
:100A000037D3FFFF1B03435DA31F64008313F4016F
:100A1000630473006F10403F9301E00337D300007D
:100A20001B03637DA31F64008353F40163047300FD
:100A30006F10803D9301F00337E3DADB1B03839DE6
:100A4000A32E64008323D401630473006F10C03BA2
:100A50009301000437E3DEDF1B03C3DD232F6400B3
:100A60008323E401630473006F10003A93011004C0
:100A700037E3E2E31B03031EA32F64008323F40187
:100A8000630473006F10403893012004374307005C
:100A90001B0373F31313D3001303435EA32E6400ED
:100AA0008363D401630473006F1000369301300434
:100AB00037C30E001B03F3EA1313C3001303839E13
:100AC000232F64008363E401630473006F10C03359
:100AD0009301400437030F001B03F3EE1313C3000D
:100AE0001303C3DEA32F64008363F4016304730064
:100AF0006F108031930150043703FCFF1B03B3B721
:100B00001313F3001303D3D31313E3001303F3F20C
:100B10001313C3001303031FA33C64008333940126
:100B2000630473006F10402E930160043703FFFFCE
:100B30001B03D3DF131303011303B3BF1313030109
:100B40001303839F233D64008333A4016304730074
:100B50006F10802B930170043783C1011B031314A2
:100B600013131301130313181313130113030310A7
:100B7000A33D64008333B401630473006F10C02885
:100B80009301800437E3F0001B03130D1313C3001C
:100B90001303B3C01313C3001303130A1313C300C7
:100BA00013038390233E64008333C4016304730002
:100BB0006F10802593019004376371011B03131597
:100BC0001313C300130333411313C300130313128E
:100BD0001313C30013030311A33E64008333D40132
:100BE000630473006F1040229301A00437231F0099
:100BF0001B03D3E11313E300130373701313D30028
:100C00001303138D1313D30013038391233F640045
:100C10008333E401630473006F10001F9301B00479
:100C200037A39C001B0353891313C3001303939032
:100C30001313D300130313911313D30013030312DD
:100C4000A33F64008333F401630473006F10C01B7F
:100C50009301C004373300001B034353A31F6402F6
:100C60008313F403630473006F10001A9301D0041C
:100C7000373300001B036373A31F64028353F40321
:100C8000630473006F1040189301E00437433A3B4C
:100C90001B038393A32E64028323D4036304730092
:100CA0006F1080169301F00437433E3F1B03C3D3FC
:100CB000232F64028323E403630473006F10C014C2
:100CC00093010005374342431B030314A32F64021F
:100CD0008323F403630473006F1000139301100562
:100CE000374346471B034354A32E64028363D40354
:100CF000630473006F1040119301200537534A4B72
:100D00001B038394232F64028363E403630473004F
:100D10006F10800F9301300537534E4F1B03C3D420
:100D2000A32F64028363F403630473006F10C00D88
:100D300093014005376375051B0353551313C30017
:100D4000130333451313C300130353521313C30088
:100D500013030315A33C64028333940363047300F9
:100D60006F10800A9301500537837D011B03539751
:100D70001313C300130373711313D300130333ADA1
:100D80001313D30013038395233D64028333A40319
:100D9000630473006F1040079301600537D3CE00E2
:100DA0001B03B3CC1313D300130393911313D3007A
:100DB000130333B11313D30013030316A33D6402CB
:100DC0008333B403630473006F1000049301700550
:100DD00037E3F6061B03736D1313C3001303B3C687
:100DE0001313C3001303736A1313C300130383960F
:100DF000233E64028333C403630473006F10C00096
:100E000093018005376377071B0373751313C300C2
:100E1000130333471313C300130373721313C30075
:100E200013030317A33E64028333D403E31E737CCE
:100E3000930190053703FF001B03B3CF1313C300C7
:100E40001303F3F81313C3001303536F1313F300C7
:100E500013038397233F64028333E403E316737A17
:100E60009301A00537F3F0FF1B03130D1313C30009
:100E7000130393B013130301130353701313F300FD
:100E800013030318A33F64028333F403E31E737652
:100E90009301B00537A300001B038399930380F9E6
:100EA000A3106400030E1400E390C3779301C00500
:100EB00037A300001B03A3B99303B0F9A310640088
:100EC000030E2400E392C3759301D00537A30000FD
:100ED0001B03C3D99303C009A3106400034E14007D
:100EE000E394C3739301E00537A300001B03E3F908
:100EF0009303F009A3106400034E2400E396C3712A
:100F00009301F005372305001B0353D11313D300BE
:100F10001303031A930300FAA3206400030E1400C2
:100F2000E394C36F93010006374305001B0353D3BB
:100F30001313D3001303435A9303500A232164006D
:100F4000034E3400E392C36D9301100637C30A00C9
:100F50001B03B3AA1313C3001303839AB7B3FFFF92
:100F60009B8393AAA3216400031E4400E39EC369EC
:100F70009301200637030B001B03B3AE1313C3000A
:100F80001303C3DAB7B300009B83E3FAA321640021
:100F9000035E5400E39AC3679301300637E3DEFE35
:100FA0001B0373AD1313C3001303D3D21313E30056
:100FB0001303B3B21313C3001303031B930360FBA8
:100FC000A3306400030E7400E390C36593014006F0
:100FD0003703FFFE1B0373AF1313C3001303F3F2B6
:100FE0001313C3001303B3EE1313E3001303839B24
:100FF0009303900B23316400034E3400E396C361E6
:101000009301500637231FFF1B0373B11313C30053
:10101000130313131313C3001303B3F01313E300E9
:101020001303031CB7C3FFFF9B83637CA3316400DE
:10103000031E9400E39AC35D9301600637433FFFAC
:101040001B0373B31313C300130333331313E300EE
:101050001303D3CA1313C3001303839CB7D3000035
:101060009B8393AC23326400035E5400E39EC35918
:101070009301700637635FFF1B0373B51313C3003F
:10108000130353531313E3001303D3D21313C300F7
:101090001303031DB7D3D6D79B83435DA3326400EC
:1010A000032E9400E392C3579301800637837FFF9A
:1010B0001B0373B71313C300130373731313D3000A
:1010C000130373ED1313D3001303839DB7E3DCDD28
:1010D0009B83A3BD23336400032E8400E396C35394
:1010E0009301900637F3F3FF1B0333371313F30019
:1010F000130393931313D300130373F11313D30048
:101100001303031EB72307009B83F3719393D3004C
:101110009383132EA3336400036E8400E396C34FBE
:101120009301A00637F300001B03839E930380FE08
:10113000A31F6400030EF401E398C34D9301B006AE
:1011400037F300001B03A3BE9303B0FEA31F64008C
:10115000030E0402E39AC34B9301C00637F3000069
:101160001B03C3DE9303C00EA31F6400034EF401F0
:10117000E39CC3499301D00637F300001B03E3FE51
:101180009303F00EA31F6400034E0402E39EC347C3
:101190009301E00637430F001B03F3F21313C30060
:1011A0001303031F930300FFA32E6400030ED40157
:1011B000E39CC3459301F00637830F001B03F3F64E
:1011C0001313C3001303435F9303600F232F6400C3
:1011D000034E0402E39AC34393010007370301005F
:1011E0001B03B3BF131303011303839F9303A0BF18
:1011F000A32E6400031EF401E398C341930110077A
:10120000370301001B03F3FF131303011303C3DFB1
:10121000B70301009B83C3DFA32F6400035EF401C7
:10122000E394C33F930120073783C1011B031314C9
:1012300013131301130313181313130113030310D0
:1012400093037000A33C6400030E0402E39EC33BBF
:101250009301300737E3F0001B03130D1313C30092
:101260001303B3C01313C3001303130A1313C300F0
:10127000130383909303F000233D6400034E140294
:10128000E394C33993014007376371011B031315BE
:101290001313C300130333411313C30013031312B7
:1012A0001313C30013030311B71300009B834351AF
:1012B000A33D6400031EF401E398C3359301500776
:1012C00037231F001B03D3E11313E30013037370D1
:1012D0001313D3001303138D1313D300130383913C
:1012E000B72300009B83B3C1233E6400035EF40177
:1012F000E39CC3319301600737A39C001B03538910
:101300001313C300130393901313D3001303139108
:101310001313D30013030312B72322239B83031257
:10132000A33E6400032ED401E390C32F9301700702
:1013300037E3F2021B03332D1313C3001303B3C2AD
:101340001313C3001303332A1313C300130383922D
:10135000B7332A2B9B838392233F6400032EE4013F
:10136000E394C32B93018007376373031B03333567
:101370001313C300130333431313C3001303333294
:101380001313C30013030313B73332339B830313C5
:10139000A33F6400036EF401E398C3279301900711
:1013A000375300001B03839493038004A31F64023C
:1013B000030EF403E39AC3259301A00737530000FB
:1013C0001B03A3B49303B004A31F6402030E04041D
:1013D000E39CC3239301B007375300001B03C3D41E
:1013E0009303C004A31F6402034EF403E39EC321CE
:1013F0009301C007375300001B03E3F49303F00489
:10140000A31F6402034E0404E390C3219301D00799
:10141000375352531B03031593030005A32E640295
:10142000030ED403E392C31F9301E00737535657CB
:101430001B03435593036005232F6402034E0404EA
:10144000E394C31D9301F00737635A5B1B03839535
:10145000B76300009B83A3B5A32E6402031EF403AD
:10146000E394C31B9301000837635E5F1B03C3D57E
:10147000B76300009B83C3D5A32F6402035EF4030C
:10148000E394C3199301100837D3CE001B03B3CCE8
:101490001313D300130393911313D300130333B126
:1014A0001313D3001303031693037006A33C6402C3
:1014B000030E0404E39AC3159301200837E3F606EC
:1014C0001B03736D1313C3001303B3C61313C300BD
:1014D0001303736A1313C300130383969303F00675
:1014E000233D6402034E1404E390C31393013008B8
:1014F000376377071B0373751313C3001303334755
:101500001313C300130373721313C30013030317DE
:10151000B77300009B834357A33D6402031EF4038B
:10152000E394C30F930140083703FF001B03B3CFBD
:101530001313C3001303F3F81313C3001303536F00
:101540001313F30013038397B78300009B83B3C780
:10155000233E6402035EF403E398C30B9301500837
:1015600037F3F0FF1B03130D1313C300130393B0E2
:1015700013130301130353701313F300130303181E
:10158000B78382839B830318A33E6402032ED40394
:10159000E39CC3079301600837231FFF1B03B3D1EC
:1015A0001313D300130333321313E3001303938A8B
:1015B0001313C30013038398B7938A8B9B83839879
:1015C000233F6402032EE403E390C30593017008F4
:1015D00037332FFF1B03B3D21313D300130353521C
:1015E0001313E300130393921313C300130303199C
:1015F000B74309009B8393929393C300938303198A
:10160000A33F6402036EF403E390C30193018008D7
:1016100013038009B7C3FFFF9B838389A300640082
:10162000031E14006392C37F930190081303900973
:10163000B7A300009B83839923016400035E140019
:101640006394C37D9301A00837A300001B03A3B9D3
:10165000B7A3C0C89B83A3B9A3106400032E1400D2
:101660006394C37B9301B00837A300001B03C3D965
:10167000B7A39DD09B83B3C9A3116400032E24009C
:101680006394C3799301C00837A300001B03E3F9F7
:10169000B7A39E9F9B83C3D9A3126400032E34007B
:1016A0006394C3779301D0081303000AB7F30400CF
:1016B0009B8353CE9393D3009383A30923016400A8
:1016C000036E14006392C3759301E00837A3000012
:1016D0001B03132AB7F304009B8353519393D30046
:1016E0009383031AA3116400036E2400639EC371E5
:1016F0009301F00837A300001B03334AB72305000A
:101700009B83D3519393D3009383132AA312640032
:10171000036E3400639AC36F930100091303500AE8
:10172000B7030FFF9B8353529393C3009383131DFF
:101730009393C3009383D3509393D3009383A3597C
:1017400023016400033E14006390C36D93011009EC
:1017500037A300001B03637AB7A38AFF9B83B3E917
:101760009393C300938393929393D300938353D122
:101770009393D3009383531AA3136400033E24006E
:101780006394C3699301200937B300001B03839A54
:10179000B7A3A6FE9B83F3299393C3009383939AE5
:1017A0009393D3009383D3519393D3009383132ABA
:1017B000A3146400033E34006398C36593013009A9
:1017C00037E30A001B03B3AC1313C3001303A3BA1C
:1017D000B7A34AFE9B83B3A89393C3009383D3DA42
:1017E0009393C3009383B3AB9393C300938323AAD0
:1017F000A3226400033E44006398C361930140093F
:1018000037230B001B03B3B01313C3001303E3FA16
:10181000B7F3F2FF9B8393259393D3009383B3B0E5
:10182000939303019383B3AE9393C3009383A3BABB
:10183000A3236400033E54006398C35D93015009E1
:1018400037630B001B03B3B41313C3001303233B11
:10185000B7636BFE9B83B3B49393C3009383333B13
:101860009393C3009383B3AF9393C3009383B3EA7B
:10187000A3246400033E64006398C3599301600984
:1018800037A30B001B03B3B81313C3001303637B0D
:10189000B7E3E6FE9B83F32D9393C3009383D3DAE0
:1018A0009393E3009383B3B29393C3009383E3FAD8
:1018B000A3256400033E74006398C3559301700927
:1018C0001303A00BB73300009B83A31BA30F64007B
:1018D000031EF401639AC353930180091303B00BF1
:1018E000B7C300009B83A3BB23006402035EF40123
:1018F000639CC3519301900937C300001B03C3DBF2
:10190000B7C3BB329B83C3DB231F6400032EE401F8
:10191000639CC34F9301A00937C300001B03E3FB83
:10192000B7C3BF329B83C3EBA31F6400032EE40144
:10193000639CC34D9301B00937C300001B03031C14
:10194000B7C3C0C19B83C3EB23106402032EE40121
:10195000639CC34B9301C0091303200CB7C3C1336D
:101960009B83E32B23006402036EF401639EC3494F
:101970009301D00937C300001B03334CB713030096
:101980009B83F3309393E300938303C2A31F64000C
:10199000036ED401639AC3479301E00937C3000083
:1019A0001B03536CB72303009B8373B19393E30032
:1019B0009383C33B23106402036EE4016396C34523
:1019C0009301F0091303700CB7F3F1FF9B83F30E3F
:1019D0009393F300938333409393F3009383131013
:1019E0009393C3009383038023006402033E940116
:1019F000639CC3419301000A37D300001B03839CFF
:101A0000B7E3F8FF9B8393939393E3009383135E71
:101A100093931301938313189393C30093838300C9
:101A2000A31F6400033EA4016390C33F9301100A07
:101A300037D300001B03A3BCB723CF009B83F3B2B3
:101A40009393C3009383F32A9393D3009383131048
:101A50009393D30093830381A31F6400033EB401D7
:101A60006394C33B9301200A37030D001B03D3CEBD
:101A70001313C3001303C3DCB7433FFF9B8373B34C
:101A80009393D300938353669393C3009383135E1E
:101A90009393D3009383830123206402033EC40104
:101AA0006394C3379301300A37430D001B03D3D22D
:101AB0001313C3001303031DB7730D009B83533F20
:101AC0009393E3009383D3D29393E300938333748C
:101AD0009393E300938303C2A32F6400033ED401D6
:101AE0006394C3339301400A37830D001B03D3D69D
:101AF0001313C3001303435DB76303009B83D33504
:101B0000939313019383B3A79393F3009383D3D653
:101B10009393C3009383435D232F6400033EE4014A
:101B20006394C32F9301500A37E306001B0373ED40
:101B30001313D3001303839DB7E3DC009B83738DE2
:101B40009393C3009383533F9393D3009383F3EB17
:101B50009393D3009383A3BDA32E6400033EF401AB
:101B60006394C32B9301600A1303C00DB793FFFF67
:101B70009B83C31DA30F6402031EF4036396C32952
:101B80009301700A1303D00DB7E300009B83C3DDFC
:101B900023006404035EF4036398C3279301800A5F
:101BA00037E300001B03E3FDB7E3DD929B83E3FD16
:101BB000231F6402032EE4036398C3259301900A54
:101BC00037E300001B03031EB7E3E1929B83E30DA1
:101BD000A31F6402032EE4036398C3239301A00AA6
:101BE00037E300001B03233EB7E3E2E39B83E30DEF
:101BF00023106404032EE4036398C3219301B00A05
:101C00001303400EB7A304009B83F3F19393D30017
:101C10009383034E23006404036EF4036396C31F8F
:101C20009301C00A37E300001B03536EB73307006C
:101C30009B83F3729393D300938303E8A31F6402FF
:101C4000036ED4036392C31D9301D00A37F30000DF
:101C50001B03738EB74307009B83F3739393D300E7
:101C60009383E35D23106404036EE403639EC3194E
:101C70009301E00A1303900EB7D3D3FF9B83D3BB2A
:101C80009393C3009383F3009393F3009383737050
:101C90009393C3009383038623006404033E940359
:101CA0006394C3179301F00A37F300001B03A3BE2C
:101CB000B7D3D7D19B83D35B93933301938373784B
:101CC0009393C30093838306A31F6402033EA4037C
:101CD000639CC3139301000B37F300001B03C3DEA7
:101CE000B7F3C9FF9B8373479393C300938373F642
:101CF0009393E300938313D09393F3009383038729
:101D0000A31F6402033EB4036390C3119301100B3D
:101D100037230F001B03F3F01313C3001303E3FE79
:101D2000B723FFFF9B83F3F0939303019383F3EEB9
:101D30009393D3009383D39B9393F300938383076D
:101D400023206404033EC4036390C30D9301200B5E
:101D500037630F001B03F3F41313C3001303233F74
:101D6000B703CBFF9B83B38F9393F3009383D3D3BA
:101D70009393D300938373F99393D300938303E8EE
:101D8000A32F6402033ED4036390C3099301300B75
:101D900037A30F001B03F3F81313C3001303637F70
:101DA000B753CBFF9B8393AF939303019383D3AF3D
:101DB0009393D3009383F3F89393C3009383637F48
:101DC000232F6402033EE4036390C3059301400B99
:101DD000370301001B03D3DF131303011303A3BF56
:101DE000B753CBCB9B8393AF939303019383D3AF31
:101DF000939313019383C3DFA32E6402033EF40382
:101E00006394C301631030020F00F00F6380010080
:101E10009391110093E111009308D00513850100FF
:101E2000730000000F00F00F930110009308D0051D
:0C1E30001305000073000000731000C0D8
:1020000000000000000000000000000000000000D0
:1020100000000000000000000000000000000000C0
:1020200000000000000000000000000000000000B0
:1020300000000000000000000000000000000000A0
:08204000000000000000000098
:10300000000102030405060708090A0B0C0D0E0F48
:10301000101112131415161718191A1B1C1D1E1F38
:10302000202122232425262728292A2B2C2D2E2F28
:10303000303132333435363738393A3B3C3D3E3F18
:10304000404142434445464748494A4B4C4D4E4F08
:10305000505152535455565758595A5B5C5D5E5FF8
:10306000606162636465666768696A6B6C6D6E6FE8
:10307000707172737475767778797A7B7C7D7E7FD8
:103080005050505050505050505050505050505040
:103090005050505050505050505050505050505030
:1030A0005050505050505050505050505050505020
:1030B0005050505050505050505050505050505010
:1030C0005050505050505050505050505050505000
:1030D00050505050505050505050505050505050F0
:1030E00050505050505050505050505050505050E0
:1030F00050505050505050505050505050505050D0
:1031000050505050505050505050505050505050BF
:1031100050505050505050505050505050505050AF
:10312000505050505050505050505050505050509F
:10313000505050505050505050505050505050508F
:10314000505050505050505050505050505050507F
:10315000505050505050505050505050505050506F
:10316000505050505050505050505050505050505F
:10317000505050505050505050505050505050009F
:040000058000000077
:00000001FF
