:0200000480007A
:100000006F008004732F2034930F80006308FF0378
:10001000930F90006304FF03930FB0006300FF038E
:10002000130F000063040F0067000F00732F2034CC
:1000300063540F006F00400093E19153171F0000BD
:1000400023223FFC6FF09FFF93000000130100008C
:10005000930100001302000093020000130300004C
:100060009303000013040000930400001305000034
:10007000930500001306000093060000130700001C
:100080009307000013080000930800001309000004
:1000900093090000130A0000930A0000130B0000EC
:1000A000930B0000130C0000930C0000130D0000D4
:1000B000930D0000130E0000930E0000130F0000BC
:1000C000930F0000732540F16310050097020000B4
:1000D000938202017390523073500018970200000F
:1000E00093824202739052309B021000939252030B
:1000F0009382F2FF7390023B9302F0017390023AF5
:100100007350403097020000938242017390523046
:10011000735020307350303093010000970200007C
:10012000938282EE73905230130510001315F5017F
:10013000635C05000F00F00F930110009308D005D9
:10014000130500007300000093020000638A0200A0
:1001500073905210B7B200009B82921073902230BD
:100160007350003097020000938242017390123462
:10017000732540F173002030B70000801BD700408A
:10018000B70300809301200063147736B700008026
:100190001BD71040B70300C093013000631A7734B7
:1001A000B70000801BD77040B70300FF93014000E9
:1001B00063107734B70000801BD7E040B703FEFF21
:1001C0009301500063167732B70000809B801000C7
:1001D0001BD7F0419303F0FF93016000631A77305F
:1001E000B70000809B80F0FF1BD70040B703008062
:1001F0009B83F3FF93017000631C772EB700008090
:100200009B80F0FF1BD71040B70300409B83F3FF98
:1002100093018000631E772CB70000809B80F0FF65
:100220001BD77040B70300019B83F3FF930190003D
:100230006310772CB70000809B80F0FF1BD7E04055
:10024000B70302009B83F3FF9301A0006312772A98
:10025000B70000809B80F0FF1BD7F04193030000A4
:100260009301B00063167728B78081819B801018B6
:100270001BD70040B78381819B8313189301C00073
:1002800063187726B78081819B8010181BD7104098
:10029000B7C3C0C09B83030C9301D000631A7724BB
:1002A000B78081819B8010181BD77040B70303FF74
:1002B0009B8333309301E000631C7722B7808181F8
:1002C0009B8010181BD7E040B703FEFF9B83636041
:1002D0009301F000631E7720B78081819B80101806
:1002E0001BD7F0419303F0FF9301000163127720C5
:1002F000B720F1FF9B8050349390C00093808067BB
:100300001BD70040B75334129B8383679301C0020D
:100310006310771EB720F1FF9B8050349390C0008C
:10032000938080671BD74040B74323019B8373565C
:100330009301D002631E771AB72009009B805034C6
:100340009390C000938080671BD70040B7533492CE
:100350009B8383679301E002631C7718B720090031
:100360009B8050349390C000938080671BD740409F
:10037000B74323F99B8373569301F002631A7716F0
:10038000B70000809BD07040B70300FF93011001BD
:100390006390701613020000B70000801BD77040F6
:1003A000130307001302120093022000E31652FE0B
:1003B000B70300FF93012001631C731213020000B6
:1003C000B70000801BD7E0401300000013030700B4
:1003D0001302120093022000E31452FEB703FEFF43
:1003E000930130016316731013020000B700008000
:1003F0009B8010001BD7F041130000001300000089
:10040000130307001302120093022000E31052FEB0
:100410009303F0FF93014001631C730C130200006F
:10042000B70000801BD77040130212009302200017
:10043000E31852FEB70300FF93015001631A770AD5
:1004400013020000B7000080130000001BD7E0403B
:100450001302120093022000E31652FEB703FEFFC0
:10046000930160016316770813020000B700008053
:100470009B80100013000000130000001BD7F04108
:100480001302120093022000E31252FE9303F0FFC6
:1004900093017001631E77049B50F04193030000A9
:1004A00093018001639670049300F0011BD0C0415A
:1004B0009303000093019001631C70029B00700085
:1004C000939050031BD7C041930300009301A001F8
:1004D000631077029B00F0009390C0011BD740404F
:1004E000B70300FF9301B00163147700631030027B
:1004F0000F00F00F638001009391110093E1110050
:100500009308D00513850100730000000F00F00F61
:10051000930110009308D00513050000730000003C
:10052000731000C000000000000000000000000088
:0C053000000000000000000000000000BF
:1010000000000000000000000000000000000000E0
:1010100000000000000000000000000000000000D0
:1010200000000000000000000000000000000000C0
:1010300000000000000000000000000000000000B0
:081040000000000000000000A8
:040000058000000077
:00000001FF
