:0200000480007A
:100000006F000005732F2034930F80006308FF03F7
:10001000930F90006304FF03930FB0006300FF038E
:10002000130F000063040F0067000F00732F2034CC
:1000300063540F006F00400093E19153171F0000BD
:1000400023223FFC171F000023200FFC6FF01FFF2F
:100050009300000013010000930100001302000050
:100060009302000013030000930300001304000038
:100070009304000013050000930500001306000020
:100080009306000013070000930700001308000008
:10009000930800001309000093090000130A0000F0
:1000A000930A0000130B0000930B0000130C0000D8
:1000B000930C0000130D0000930D0000130E0000C0
:1000C000930E0000130F0000930F0000732540F102
:1000D0006310050097020000938202017390523072
:1000E000735044749702000093820201739052305F
:1000F00073500018970200009382420273905230AE
:100100009B021000939252039382F2FF7390023B82
:100110009302F0017390023A73504030970200004E
:1001200093824201739052307350203073503030BC
:100130009301000097020000938202ED7390523009
:10014000130510001315F501635C05000F00F00F97
:10015000930110009308D005130500007300000000
:1001600093020000638A020073905210B7B200003D
:100170009B829210739022307350003097020000DF
:100180009382420173901234732540F17300203042
:1001900093012000930000001301000063862000FB
:1001A0006318302A63163000E38E20FE6312302A73
:1001B00093013000930010001301100063862000AB
:1001C0006318302863163000E38E20FE6312302857
:1001D000930140009300F0FF1301F0FF63862000BD
:1001E0006318302663163000E38E20FE631230263B
:1001F000930150009300000013011000638420005D
:100200006314300063163024E38E20FE93016000F7
:100210009300100013010000638420006314300079
:1002200063183022E38E20FE930170009300F0FFEC
:10023000130110006384200063143000631A30201F
:10024000E38E20FE93018000930010001301F0FF65
:100250006384200063143000631C301EE38E20FE94
:100260009301900013020000930000001301F0FFBF
:100270006380201E1302120093022000E31652FE38
:100280009301A00013020000930000001301F0FF8F
:1002900013000000638E201A130212009302200044
:1002A000E31452FE9301B00013020000930000001B
:1002B0001301F0FF1300000013000000638A2018F0
:1002C0001302120093022000E31252FE9301C000B9
:1002D0001302000093000000130000001301F0FF60
:1002E000638820161302120093022000E31452FECA
:1002F0009301D000130200009300000013000000DF
:100300001301F0FF13000000638420141302120095
:1003100093022000E31252FE9301E000130200005A
:100320009300000013000000130000001301F0FF11
:10033000638020121302120093022000E31252FE87
:100340009301F00013020000930000001301F0FF7E
:10035000638020101302120093022000E31652FE65
:100360009301000113020000930000001301F0FF4D
:1003700013000000638E200C130212009302200071
:10038000E31452FE930110011302000093000000D9
:100390001301F0FF1300000013000000638A200A1D
:1003A0001302120093022000E31252FE9301200177
:1003B0001302000093000000130000001301F0FF7F
:1003C000638820081302120093022000E31452FEF7
:1003D000930130011302000093000000130000009D
:1003E0001301F0FF130000006384200613021200C3
:1003F00093022000E31252FE930140011302000019
:100400009300000013000000130000001301F0FF30
:10041000638020041302120093022000E31252FEB4
:100420009301500193001000630A000093801000B4
:100430009380100093801000938010009380100030
:1004400093801000930330006394700063103002B7
:100450000F00F00F638001009391110093E11100F0
:100460009308D00513850100730000000F00F00F02
:10047000930110009308D0051305000073000000DD
:10048000731000C000000000000000000000000029
:10049000000000000000000000000000000000005C
:1004A000000000000000000000000000000000004C
:0C04B00000000000000000000000000040
:1010000000000000000000000000000000000000E0
:1010100000000000000000000000000000000000D0
:1010200000000000000000000000000000000000C0
:1010300000000000000000000000000000000000B0
:081040000000000000000000A8
:040000058000000077
:00000001FF
