:0200000480007A
:10000000970500009385C506130540006B10B500E9
:10001000EF00C005130510006B0005001385811D5E
:10002000138681233306A64093050000EF208062EB
:100030001715000013050522EF00D051EF105020D6
:10004000130540006B000500EF0050196F00D05100
:10005000B707000093870700638807003715008003
:10006000130505256F00104F678000001305400041
:100070006B0005009761010093814179F32610021E
:100080009396A601732600029315A6001316260068
:1000900037F1FF6F3301B1403301D1403301C1006B
:1000A000F326100263860600130500006B000500AE
:1000B00067800000130101FD232681021304010360
:1000C000232EA4FC232CB4FC232AC4FC8327C4FDC8
:1000D00083A707002326F4FE930744FD2322F4FEA2
:1000E000832744FE03C707008327C4FE2380E7005D
:1000F0008327C4FE93871700032744FE0347170096
:100100002380E7008327C4FE93872700032744FE4C
:10011000034727002380E7008327C4FE9387370027
:10012000032744FE034737002380E7008327C4FEEC
:10013000938747002326F4FE232404FE832744FDEF
:10014000032784FE635CF702832784FE032784FD74
:10015000B307F70003C707008327C4FE2380E70027
:100160008327C4FE938717002326F4FE832784FE8B
:10017000938717002324F4FE6FF05FFC8327C4FEEF
:100180002320F4FE832704FE93F73700032704FEA1
:10019000B307F7002320F4FE832704FE2326F4FE92
:1001A0008327C4FD0327C4FE23A0E700130000003B
:1001B0000324C1021301010367800000130101FC45
:1001C000232E8102130401042326A4FC2324B4FC5F
:1001D0008327C4FC83A707002326F4FE9307C4FDEE
:1001E0002322F4FE8327C4FE03C70700832744FEAF
:1001F0002380E700832744FE938717000327C4FE6C
:10020000034717002380E700832744FE93872700D6
:100210000327C4FE034727002380E700832744FE0B
:10022000938737000327C4FE034737002380E70086
:100230008327C4FE938747002326F4FE232404FE6D
:100240008327C4FD032784FE635CF702832784FEB3
:10025000032784FCB307F7000327C4FE0347070006
:100260002380E7008327C4FE938717002326F4FE2C
:10027000832784FE938717002324F4FE6FF05FFC2E
:100280008327C4FE2320F4FE832704FE93F7370060
:10029000032704FEB307F7002320F4FE832704FEA0
:1002A0002326F4FE8327C4FC0327C4FE23A0E70013
:1002B000130000000324C103130101046780000040
:1002C000130101FF232611002324810013040101DF
:1002D000B7570180138507E3EF00804D130000003E
:1002E0008320C10003248100130101016780000005
:1002F000130101FE232E8100130401022326A4FE14
:100300002324B4FE832784FE3727000023A2E700BE
:1003100093070000138507000324C10113010102A4
:1003200067800000130101FE232E1100232C8100A1
:10033000130401022326A4FEB7570180138547E466
:10034000EF00004793071000138507008320C101C9
:10035000032481011301010267800000130101FFE2
:10036000232611002324810013040101B7570180C3
:10037000138587E5EF00C043130000008320C10010
:10038000032481001301010167800000130101FDB6
:10039000232611022324810213040103232EA4FC2B
:1003A000232CB4FC232AC4FCB70700712324F4FED9
:1003B000B70700722326F4FE930740002322F4FEC1
:1003C000130744FE930784FE1306400093050700BD
:1003D00013850700EFF01FCE1307C4FD930784FEBB
:1003E000130640009305070013850700EFF09FCC2C
:1003F000130784FD930784FE13064000930507004E
:1004000013850700EFF01FCB130744FD930784FE0D
:10041000130640009305070013850700EFF09FC9FE
:1004200083A7C11BE7800700832744FD13850700CE
:100430008320C102032481021301010367800000AD
:10044000130101FD23261102232481021304010359
:10045000232EA4FC232CB4FC232AC4FCB707007170
:100460002326F4FE930750002324F4FE130784FE92
:100470009307C4FE13064000930507001385070089
:10048000EFF05FC31307C4FD9307C4FE13064000DB
:100490009305070013850700EFF0DFC19307C4FE43
:1004A000032644FD832584FD13850700EFF09FC0DC
:1004B00083A7C11BE7800700832744FD138507003E
:1004C0008320C1020324810213010103678000001D
:1004D000130101FD2326810213040103232EA4FC32
:1004E0008327C4FD63D807008327C4FDB307F0400A
:1004F000232EF4FC0327C4FDB73700009387078041
:1005000063D8E700B737000093870780232EF4FCF9
:1005100083A7011C2326F4FE03A7011C8327C4FD27
:100520003307F70023A0E11C8327C4FE13850700CF
:100530000324C1021301010367800000130101FEBF
:10054000232E1100232C8100130401022326A4FE74
:10055000B75701801385C7E6EF008025130500001B
:10056000EF00001E130000008320C101032481015D
:100570001301010267800000130101FD232611020F
:100580002324810213040103232EA4FC232CB4FC96
:10059000232AC4FCB70700712326F4FEB7070072B4
:1005A0002324F4FE930770002322F4FE130744FE75
:1005B0009307C4FE13064000930507001385070048
:1005C000EFF05FAF1307C4FD9307C4FE13064000AE
:1005D0009305070013850700EFF0DFAD130784FDD7
:1005E0009307C4FE13064000930507001385070018
:1005F000EFF05FAC130744FD9307C4FE1306400001
:100600009305070013850700EFF0DFAA83A7C11B3E
:10061000E7800700130704FE930784FE9305070095
:1006200013850700EFF09FB9832704FE13850700A9
:100630008320C102032481021301010367800000AB
:10064000130101FF2326110023248100130401015B
:10065000B7570180138507E8EF00801513000000ED
:100660008320C10003248100130101016780000081
:10067000130101FF2326110023248100130401012B
:10068000EF00800E93070500138507008320C1004B
:10069000032481001301010167800000130101FFA1
:1006A000232611002324810013040101B757018080
:1006B000138547EAEF00C00F130000008320C1003C
:1006C000032481001301010167800000130101FF71
:1006D000232611002324810013040101B757018050
:1006E000138587ECEF00C00C83A7811E938617004B
:1006F00023A4D11E138507008320C1000324810099
:100700001301010167800000130101FF232611007E
:100710002324810013040101B7570180138547EF9B
:10072000EF000009130000008320C10003248100B2
:1007300013010101678000006B10B50067800000A5
:100740006B000500678000006B40B500678000000B
:100750006B200500678000006B30000067800000A0
:100760007325100267800000732500026780000077
:10077000130540006B000500F32610029396F60067
:10078000732600029315A6001316260037F1FF6F9B
:100790003301B1403301D1403301C100F3261002CF
:1007A00063860600130500006B00050067800000EB
:1007B000130141FF232011002322B10083450500CE
:1007C00063880500EF00C001130515006FF01FFFDF
:1007D00083200100832541001301C10067800000D0
:1007E000B702010023A0B20067800000130101FCE2
:1007F000232E810213040104232EA4FC232CB4FC19
:10080000232AC4FC2328D4FC2326E4FC2324F4FC60
:1008100003A7C11E930710006316F7009307F0FFAC
:100820006F00000883A7C11E9386170023A6D11E60
:10083000138707009307070093971700B387E70014
:1008400093973700138707009387011FB307F700BB
:100850002326F4FE8327C4FE0327C4FD23A0E7005C
:100860008327C4FE032784FD23A2E7008327C4FE59
:10087000032744FD23A4E7008327C4FE032704FDC8
:1008800023A6E7008327C4FE0327C4FC23A8E700B0
:100890008327C4FE032784FC23AAE70093070000F4
:1008A000138507000324C1031301010467800000BE
:1008B000130101FC232E1102232C810213040104D5
:1008C000232EA4FC232CB4FC232AC4FC2328D4FC10
:1008D0002326E4FC2324F4FC232604FE83A7C11E64
:1008E0000327C4FE6350F70E0327C4FE93070700D7
:1008F00093971700B387E700939737001387070094
:100900009387011FB307F7002324F4FE832784FE97
:1009100083A707008325C4FD13850700EF20C02EA1
:1009200093070500B337F00093F7F70F63920708BA
:10093000832784FD638A0700832784FE03A747007B
:10094000832784FD23A0E700832744FD638A0700F3
:10095000832784FE03A78700832744FD23A0E700A5
:10096000832704FD638A0700832784FE03A7C7004B
:10097000832704FD23A0E7008327C4FC638A0700C4
:10098000832784FE03A707018327C4FC23A0E70075
:10099000832784FC638A0700832784FE03A747011B
:1009A000832784FC23A0E700930700006F00C001A9
:1009B000130000008327C4FE938717002326F4FE4C
:1009C0006FF0DFF19307F0FF138507008320C10369
:1009D000032481031301010467800000130101BC9B
:1009E000232E1142232C8142130401442326A4BC4C
:1009F0002324B4BC13051000EFF09FD4B757018037
:100A0000138587F5EF10D05DB7570180938587F97F
:100A1000B75701801385C7F9EF00D01B9307050076
:100A20002326F4FE9307C4BE0326C4FE930590025A
:100A300013850700EF00804A9307C4BE9385070023
:100A4000B7570180138507FDEF109059130500007B
:100A5000EF008031130101FF2326110023248100C0
:100A6000130401011385811DEF004001032481005F
:100A70008320C1001301010167800000130101FF01
:100A8000232611002324810013040101232AA4FE3C
:100A900037550180130585FDB7150080938585BC0A
:100AA0001387811C93878120130630009306000072
:100AB000EFF0DFD3032481008320C1001301010183
:100AC00067800000130101FF232611002324810009
:100AD00013040101EFF01FF8032481008320C100FB
:100AE0001301010167800000130101FE232E110094
:100AF000232C8100232A9100232821012326310160
:100B00002324410123225101130401021371C1FF67
:100B10001389060093090600138A0500930A05004D
:100B200083A4860113850400930507009740010004
:100B3000E78040258325C9003385A50013152500CE
:100B4000B382AA003303AA00B383A90003280902D1
:100B5000032EC90193080000930E000013850200C4
:100B60009305030013860300930700000327050085
:100B700083A60500B386E6002320D60013054500B2
:100B8000938545001306460093871700E3E097FE20
:100B9000938E1E00E3E4CEFD93881800E3EE08FB7D
:100BA000130104FE832A4100032A81008329C10026
:100BB0000329010183244101032481018320C10110
:100BC0001301010267800000130101FF23261100B9
:100BD00023248100232291002320210193840500F6
:100BE0001309050003A485011305040093050600FD
:100BF00097400100E780001983A5C4003385A50054
:100C0000131525008325890083A5050003264900C7
:100C1000032606008326090083A60600B382A600E9
:100C20003303A600B383A50003A8040203AEC401E6
:100C3000930800009304000013850200930503004D
:100C400013860300930700008326050003A7050011
:100C5000B306D7002320D600130545009385450031
:100C60001306460093871700E3E087FE9384140081
:100C7000E3E4C4FD93881800E3EE08FB03290100B8
:100C800083244100032481008320C100130101015A
:100C900067800000130101FF232611002324810037
:100CA00023229100232021019384050013090500CC
:100CB00003A4850113050400930506009740010075
:100CC000E780400C83A5C4003385A50013152500DB
:100CD000832589000326490083260900B382A600E4
:100CE0003303A600B383A50003A8040203AEC40126
:100CF000930800009304000013850200930503008D
:100D000013860300930700008326050003A7050050
:100D1000B306D7002320D600130545009385450070
:100D20001306460093871700E3E087FE93841400C0
:100D3000E3E4C4FD93881800E3EE08FB03290100F7
:100D400083244100032481008320C1001301010199
:100D5000678000009305050093060000130600005D
:100D6000130500006F40D054130101FF93050000EC
:100D7000232481002326110013040500EF40D05CDA
:100D800003A5811B8327C50363840700E780070051
:100D900013050400EFF08FFA9307100063DCC7120D
:100DA000130101FE232C8100232821012326310178
:100DB00023244101232E1100232A910023225101D3
:100DC0002320610113090600130A05009389050019
:100DD0001384060063060500832785036384070EDA
:100DE0001309F9FF938A09006F004002832704006A
:100DF00033079740B38A9A00B38497002322E40014
:100E000023209400EF1040736306090883274400F1
:100E10009305040013050A0063980700EF10D02221
:100E20006318050683274400032B04009305A000E4
:100E30009304090063F427019384070013860400D8
:100E400013050B00EF100062930705000327440011
:100E500013850A001386040093050B00330999409B
:100E6000E38607F893871700B384674133079740F9
:100E70002322E4002320F40013860400EF10C06B4B
:100E8000B38A9A0023800A00138509006F000001CD
:100E9000638E3A0323800A00138509008320C10171
:100EA0000324810183244101032901018329C10015
:100EB000032A8100832A4100032B01001301010250
:100EC00067800000EF00C0346FF09FF11305000051
:100ED0006FF0DFFC1305000067800000930705003A
:100EE00003A5C11C93060600138605009385070021
:100EF0006FF09FEA1305000067800000B76500806F
:100F0000938545CC6F009028130101FEB717008030
:100F1000232E1100232C8100232A91002328210154
:100F20002326310123244101232251012320610181
:100F3000032445009387C7EF232EF5021307C52E20
:100F4000930730002324E52E2322F52E2320052E9F
:100F500093074000130905002326F40013068000C0
:100F6000930500002322040623200400232204000A
:100F70002324040023280400232A0400232C040033
:100F80001305C405EF10006D373B008083248900F2
:100F9000B73A0080373A0080B7390080130BCBAAEC
:100FA000938A0AB1130A8AB9938909C0B707010065
:100FB00023206403232254032324440323263403DD
:100FC000232E84009387970023A6F4001306800045
:100FD0009305000023A2040623A0040023A204001A
:100FE00023A4040023A8040023AA040023AC0400C3
:100FF0001385C405EF1000660324C900B70702007B
:1010000023A0640323A2540323A4440323A634038C
:1010100023AE9400938727012326F400232204069D
:101020002320040023220400232404002328040096
:10103000232A0400232C04001305C4051306800092
:1010400093050000EF1000618320C1012320640399
:10105000232254032324440323263403232E840011
:101060000324810193071000232CF90283244101FA
:10107000032901018329C100032A8100832A410039
:10108000032B01001301010267800000130500001B
:1010900067800000130101FF2322910013068006E0
:1010A0009384F5FFB384C402232021011389050032
:1010B000232481002326110093854407EF0010416B
:1010C00013040500630005021305C5002320040076
:1010D000232224012324A400138684069305000000
:1010E000EF1040578320C100130504000324810042
:1010F00083244100032901001301010167800000DE
:10110000130101FE2328210103A9811B232631019C
:10111000232E110083278903232C8100232A910089
:10112000930905006386070A1309092E9304F0FF4B
:1011300083274900032489009387F7FF63D80700BA
:101140006F00000813048406638C97060317C4001D
:101150009387F7FFE31807FEB707FFFF9387170092
:101160002322040623200400232204002324040055
:101170002326F40023280400232A0400232C04003F
:1011800013068000930500001305C405EF10804C82
:1011900023280402232A040223220404232404040F
:1011A0008320C1011305040003248101832441012C
:1011B000032901018329C100130101026780000096
:1011C00003240900630C0400130904006FF05FF6A8
:1011D00013050900EFF05FD36FF01FF59305400092
:1011E00013850900EFF01FEB2320A900130405006D
:1011F000E31C05FC9307C00023A0F9006FF05FFA21
:1012000003A5811BB7650080938545CC6F000078EE
:101210008327850363840700678000006FF0DFCEBB
:101220006780000067800000678000006780000022
:1012300003A5C11CB7150080938545EF6F00C06AF8
:1012400003A5C11CB71500809385C5086F00C06950
:10125000130101FF23248100B767018037640180F7
:101260001304840093878700B3878740232291006B
:101270002326110093D42740638004029387C7FF7D
:1012800033848700832704009384F4FF1304C4FF8E
:10129000E7800700E39804FE8320C1000324810057
:1012A000832441001301010167800000130101FD47
:1012B00013070600232E31011306C1009389050090
:1012C00093050700232021032326110223248102F2
:1012D0002322910213090500EF40505E6300050AC6
:1012E0009304050013050900EFF09FE113040500C6
:1012F000630605080326C1009306601B9385090059
:1013000013050900EF10404363440506B73700801A
:101310009387C7AA2320F402B7370080938707B1C9
:101320002322F402B7370080938787B92324F4027D
:10133000B7370080938707C0231694002317A400B3
:10134000232E84002326F40293F40410639A0404E9
:101350008320C10213050400032481028324410277
:10136000032901028329C1011301010367800000E1
:10137000EFF01FEB23160400EFF0DFEA1304000088
:101380008320C10213050400032481028324410247
:10139000032901028329C1011301010367800000B1
:1013A00093050400130509009306200013060000AE
:1013B000EF0080038320C10213050400032481028F
:1013C00083244102032901028329C101130101037E
:1013D000678000009307050003A5C11C1386050064
:1013E000938507006FF09FEC6F00C0019307050025
:1013F00003A5C11C9306060013860500938507000C
:101400006F004000130101F7232481082322910873
:1014100023202109232C410723261108232E3107DD
:10142000232A510723286107232671079304050007
:1014300013840500130A06001389060063060500DD
:1014400083278503638407068357C400130780102E
:1014500093F787106386E706832A840263800A4035
:1014600093071000630CF9129379D9FF6382090680
:101470009307600123A0F4009309F0FF8320C108C3
:10148000032481088324410803290108032A8107D2
:10149000832A4107032B0107832BC106138509000B
:1014A0008329C1071301010967800000EFF05FD6AF
:1014B0008357C4001307801093F78710E39EE7F863
:1014C0009305040013850400EF4050376FF0DFF8F8
:1014D00003270401930B0000630A07128316C4005C
:1014E000B71700009387A7811397060113570701C9
:1014F000B377F7006394070213770740631007166A
:10150000B7370080938787B9638AFA10B71700004E
:1015100093870780B3E6F6002316D40093050400F2
:1015200013850400EF40903193090500E31605F49C
:101530008325C4019306090013060A0013850400DD
:10154000E7800A009307F0FFE308F5F28325040320
:10155000638C0500930704046386F500138504007B
:10156000EF409053232804028357C40083260401CC
:1015700037F7FFFF1307F77DB3F7E7002320D40009
:10158000232204002316F4001306800093050000B4
:101590001305C405EF10000C6FF05FEE9305040017
:1015A00013850400EF4090298357C4001397370137
:1015B0006344070E8325C401930610001306000040
:1015C00013850400E7800A009307F0FF93090500E4
:1015D000E304F5EA8357C4000327040193F64700A8
:1015E0006384060C8327440083260403B389F940EF
:1015F000638606008326C403B389D940930B090090
:10160000330A3A0113090000E31A07EC93050400BA
:1016100013850400EF0080596FF05FEC8315E40040
:10162000E3C605EE1306810013850400EF00802554
:10163000631A051C8326C100B7F700003787000036
:10164000B3F7D7008316C400E392E7EC93E60640B5
:10165000930700402326F4042316D400130B0A003A
:101660006310091463900B068357C4001397370166
:10167000635A0716032504058327440083250403C2
:1016800013870700B309F540638005148326C4035C
:10169000B389D9406F00000493F6470083290405FD
:1016A00003270401E39006F493F78700E38807F427
:1016B00083270400E38407F4B387E740B389F90084
:1016C0006FF0DFF383250403638E050E8327440048
:1016D0008326C4030327840303260401B389F90086
:1016E000B307C740B389F940B387D70063463B01CE
:1016F0003387F900636CEB108329C4048325C4018C
:1017000093060000B3093041B3F96901138609005B
:1017100013850400E7800A009307F0FFE300F5E07B
:101720008327040183250403232204002320F400DB
:10173000638C0500930704046386F5001385040099
:10174000EF409035232804028357C400B30B3B417C
:1017500093F7F7FD2316F40063083B039305040099
:1017600013850400EF10400EE31A05DA83274400C6
:10177000E3E677DB03270400B38777412322F400F5
:10178000B30B77012320740113068000930500003A
:101790001305C405EF00106C930900006FF01FCE15
:1017A0008315E4001306810013850400EF00800D0B
:1017B000E31605D6032B8101330B6A01E3940BF08A
:1017C0006FF09FEA032744008327040003260401E7
:1017D00093050000B387C740B389F940B307F7000A
:1017E0006FF0DFF08325C40193061000130600009C
:1017F00013850400E7800A009307F0FFE31EF5E677
:101800006FF0DFD18316C4006FF05FD0B3093B41A6
:1018100033063601B38937412320C4002322340123
:10182000638C0500930704046386F50013850400A8
:10183000EF409026232804028357C400130680003B
:101840009305000093F7F7FD2316F4001305C40574
:10185000EF005060930900006FF05FC29307D00162
:1018600023A0F4009309F0FF6FF05FC19307050018
:1018700003A5C11C93060600138605009385070087
:101880006FF05FB8130101FF138705002324810067
:101890002322910013040500930506001305070099
:1018A0002326110023AA0122EFE09FA49307F0FF53
:1018B000630CF5008320C1000324810083244100D0
:1018C000130101016780000083A74123E38407FE21
:1018D0008320C1002320F4000324810083244100DD
:1018E0001301010167800000130101FE232821017B
:1018F00023263101232441012322510123206101A8
:10190000232E1100232C8100232A9100138B050024
:10191000930A052E130A0000930910001309F0FF23
:1019200083A44A0003A48A009384F4FF63C60402DC
:101930008357C4009384F4FF63FCF9008317E40029
:101940001305040063862701E7000B00336AAA0031
:1019500013048406E39E24FD83AA0A00E3920AFC92
:101960008320C10103248101832441010329010152
:101970008329C100832A4100032B010013050A00BB
:10198000032A81001301010267800000130101FD99
:1019900023202103232E3101232C4101232A51012D
:1019A00023286101232671012326110223248102A9
:1019B00023229102930A0500938B0500130B052E39
:1019C000130A0000930910001309F0FF83244B0051
:1019D00003248B009384F4FF63C804028357C4007C
:1019E0009384F4FF63FEF9008317E4009305040079
:1019F00013850A0063862701E7800B00336AAA007B
:101A000013048406E39C24FD032B0B00E3100BFC62
:101A10008320C1020324810283244102032901029D
:101A20008329C101832A4101032B0101832BC100BA
:101A300013050A00032A81011301010367800000D6
:101A4000130101FF23248100232021013764018039
:101A50003769018093070400130909003309F9402D
:101A60002326110023229100135929406300090203
:101A700013040400930400008327040093841400DB
:101A800013044400E7800700E31899FE37640180DF
:101A90003769018093070400130989003309F9406D
:101AA0001359294063000902130404009304000041
:101AB000832704009384140013044400E780070084
:101AC000E31899FE8320C100032481008324410090
:101AD000032901001301010167800000130101F9CE
:101AE00023248106138405008395E50023229106B3
:101AF00023202107232611069304060013890600DC
:101B000063CA050413068100EFF0DFD763440504C0
:101B10000327C100B7F700008320C106B3F7E70031
:101B200037E7FFFFB387E7000324810693B7170069
:101B30002320F9009307004023A0F400371500008C
:101B400083244106032901061305058013010107BB
:101B5000678000008357C4002320090093F707081B
:101B6000638407028320C1060324810693070004CF
:101B700023A0F40003290106832441061305000075
:101B800013010107678000008320C106032481063A
:101B90009307004023A0F400032901068324410693
:101BA00013050000130101076780000083D7C500FB
:101BB000130101FE232C8100232E1100232A910002
:101BC0002328210193F72700138405006388070267
:101BD0009387350423A0F50023A8F5009307100090
:101BE00023AAF5008320C10103248101832441013C
:101BF0000329010113010102678000009306C1005F
:101C00001306810093040500EFF05FED832581004A
:101C10001309050013850400EF00400B8317C4006F
:101C200063080504371700801307C7EF23AEE402EB
:101C3000032781008326C10093E707082316F400D9
:101C40002320A4002328A400232AE4006398060488
:101C5000B3E727018320C1012316F4000324810187
:101C6000832441010329010113010102678000005F
:101C700013F70720E31807F693F7C7FF93E727004A
:101C8000130734042316F400930710002320E40004
:101C90002328E400232AF4006FF0DFF48315E40026
:101CA00013850400EF40500F631605008317C4002E
:101CB0006FF01FFA0357C4001377C7FF13671700AD
:101CC0009317070193D707416FF09FF8130101FDA8
:101CD000232E310123261102232481022322910283
:101CE00023202103232C4101232A510123286101B0
:101CF0002326710123248101232291019387B500BA
:101D000013076001930905006364F7069307000158
:101D100063E2B71EEF00D0219304000113062000F8
:101D200093078001138981C2B307F90003A4470018
:101D3000138787FF6308E420832744008326C400B9
:101D40000326840093F7C7FFB307F40003A74700F7
:101D50002326D60023A4C6001367170013850900A5
:101D600023A2E700EF00101D130584006F00401947
:101D700093F487FF63C0071863EEB416EF00501B9F
:101D80009307701F63FA974493D794006384071AEC
:101D9000130740006360F73C93D7640013869703F2
:101DA0001385870393163600138981C2B306D900C1
:101DB00003A44600938686FF638686029305F0009F
:101DC0006F000001635207320324C400638C860055
:101DD0008327440093F7C7FF33879740E3D4E5FE9A
:101DE00013060500032409019308890063081417EA
:101DF000032544009306F0001375C5FFB307954013
:101E000063C2F640232A19012328190163DC073C29
:101E10009307F01F63E0A72E937785FF93878700D2
:101E200083254900B307F90083A607001355550021
:101E3000130710003317A7003367B700938587FF98
:101E40002326B4002324D4002322E90023A0870002
:101E500023A686009357264093051000B395F500FE
:101E60006368B710B3F7E500639407029395150014
:101E70001376C6FFB3F7E50013064600639A070022
:101E800093951500B3F7E50013064600E38A07FEB5
:101E90001308F00013133600330369001305030021
:101EA0008327C500130E06006308F52C03A747001F
:101EB0001384070083A7C7001377C7FFB3069740B3
:101EC0006348D82CE3C206FE3307E40083264700AC
:101ED000032684001385090093E616002322D70009
:101EE0002326F60023A4C700EF00D00413058400C6
:101EF0006F0000019307C00023A0F9001305000044
:101F00008320C102032481028324410203290102A8
:101F10008329C101032A8101832A4101032B010185
:101F2000832BC100032C8100832C4100130101038A
:101F30006780000093060020130600041305F003D9
:101F40006FF09FE603A4C70013062600E39687DE22
:101F50000324090193088900E31C14E903274900BD
:101F60009357264093051000B395F500E37CB7EE38
:101F700003248900832A440013FBCAFF63689B0083
:101F8000B3079B401307F000634CF71283AA411E6E
:101F900003A7011D9307F0FF330A6401B38A5401BC
:101FA0006304F734B71700009387F700B38AFA0089
:101FB000B7F7FFFFB3FAFA0093850A00138509000B
:101FC000EF0010299307F0FF930B05006306F52837
:101FD00063624529138CC12083250C00B385BA00A8
:101FE0002320BC0093870500630EAA3883A6011D39
:101FF0001307F0FF6386E63A338A4B41B307FA00D2
:102000002320FC0093FC7B0063820C30B717000098
:10201000B38B9B4193858700938B8B00B385954150
:10202000B38A5B019387F7FFB385554133FAF50017
:1020300093050A0013850900EF0090219307F0FF34
:10204000630AF53A33057541B30A450183250C004F
:102050002324790193EA1A00B305BA002320BC00B7
:1020600023A25B01630224359306F00063F2663518
:102070000327440093074BFF93F787FF137717005D
:102080003367F7002322E400130650003307F400FF
:102090002322C7002324C70063E8F63683AA4B0037
:1020A00013840B0003A7011E6374B70023A0B11EA5
:1020B00003A7C11D6376B71A23AEB11C6F00401A87
:1020C00013E714002322E400B304940023249900AE
:1020D00093E717001385090023A2F400EF00806541
:1020E000130584006FF0DFE18326C400032684001B
:1020F0006FF09FC593579500130740006372F71464
:1021000013074001636AF7229386C7059385B705D5
:1021100093963600B306D90083A70600938686FF00
:102120006388F61C03A747001377C7FF6376E500B3
:1021300083A78700E398F6FE83A6C700032749001C
:102140002326D4002324F40023A4860023A687009A
:102150006FF05FD0130740016376F7121307400555
:10216000636AF71E93D7C4001386F7061385E70644
:10217000931636006FF05FC3130E1E0093773E0078
:1021800013058500638E07108327C5006FF0DFD12C
:102190000326840093E514002322B4002326F600CE
:1021A00023A4C700B3049400232A9900232899008C
:1021B00093E7160023A6140123A4140123A2F4001C
:1021C0003307E400138509002320D700EF00805671
:1021D000130584006FF0DFD213D634009387840098
:1021E0006FF05FB43307A40083274700138509000D
:1021F00093E717002322F700EF00C0531305840074
:102200006FF01FD013E714002322E400B3049400FE
:10221000232A99002328990013E7170023A6140105
:1022200023A4140123A2E4003305A4002320F50015
:1022300013850900EF000050130584006FF05FCC98
:10224000935765009386970393858703939636008B
:102250006FF05FEC630E241103248900832A44008D
:1022600093FACAFFB3879A4063E69A001307F00017
:10227000E348F7E413850900EF00C04B13050000A5
:102280006FF01FC81386C7051385B7059316360070
:102290006FF09FB1832783001306F6FF6390671CDE
:1022A00093773600130383FFE39607FE0327490065
:1022B00093C7F5FFB3F7E7002322F90093951500C4
:1022C000E3E8B7CAE38605CA33F7F500631A0700E7
:1022D0009395150033F7F500130E4E00E30A07FE41
:1022E00013060E006FF01FBB938A0A016FF0DFCC5C
:1022F0000325490093D52540130710003317B70075
:102300003367A7002322E9006FF09FE3B3855B01E9
:10231000B305B0409395450113DA450193050A00D2
:1023200013850900EF00C0729307F0FFE31CF5D09E
:10233000130A00006FF09FD1130740056360F70890
:102340009357C5009386F7069385E7069396360064
:102350006FF05FDC130740156360F70893D7F40054
:102360001386870713857707931636006FF0DFA370
:10237000138CC12083270C00B387FA002320FC00B4
:102380006FF0DFC613174A01E31207C60324890062
:10239000B30A5B0193EA1A00232254016FF09FD025
:1023A00023A8711D6FF01FC613840B006FF09FCF21
:1023B0009307100023A2FB006FF0DFEB130740151B
:1023C0006362F7069357F50093868707938577072F
:1023D000939636006FF01FD4130740556362F706DB
:1023E00093D724011386D7071385C70793163600A2
:1023F0006FF09F9B938C8CFFB38A9A01B38A7A41CA
:10240000130A00006FF09FC4930584001385090030
:10241000EF3090680324890083250C00832A440050
:102420006FF05FC8130740556364F70293572501A7
:102430009386D7079385C707939636006FF09FCD95
:102440009306803F1306F0071305E0076FF0DF9552
:102450009306803F9305E0076FF0DFCB83274900A9
:102460006FF0DFE59377350093F6F50F638A070287
:102470009307F6FF630E06021306F0FF6F0080015C
:102480001305150013773500630E07009387F7FFD8
:102490006380C70203470500E314D7FE678000008E
:1024A00093070600130730006366F7026396070080
:1024B0001305000067800000B307F5006F00C0003F
:1024C00013051500E386A7FE03470500E31AD7FEB0
:1024D0006780000037070100939885001307F7FF16
:1024E000B3F8E80093F5F50FB3E5B800939805014C
:1024F000B3E8B8003708FFFEB78580801308F8EF0F
:1025000093850508130330000327050033C7E8004F
:10251000330607011347F7FF3377E6003377B70039
:10252000E31C07F89387C7FF13054500E36EF3FC30
:10253000E39407F86FF0DFF7B3C7A50093F7370010
:10254000B308C500639207069307300063FEC70413
:1025500093773500130705006398070613F6C8FF45
:10256000930706FE636CF708637CC7029386050039
:102570009307070003A80600938747009386460049
:1025800023AE07FFE3E8C7FE9307F6FFB387E740F4
:1025900093F7C7FF938747003307F700B385F5002C
:1025A000636817016780000013070500E37C15FFCF
:1025B00083C705001307170093851500A30FF7FEC7
:1025C000E36817FF6780000083C605001307170044
:1025D00093773700A30FD7FE93851500E38007F8A4
:1025E00083C605001307170093773700A30FD7FEA4
:1025F00093851500E39A07FC6FF05FF683A645000C
:1026000083A2050083AF850003AFC50083AE05013B
:1026100003AE450103A3850103A8C5012322D7000A
:1026200083A60502232057002324F7012326E70170
:102630002328D701232AC701232C6700232E070153
:102640002320D7021307470293854502E368F7FA70
:102650006FF09FF11303F00013070500637EC302C0
:102660009377F7006390070A63920508937606FF55
:102670001376F600B386E6002320B7002322B700C6
:102680002324B7002326B70013070701E366D7FE0C
:102690006314060067800000B306C34093962600CB
:1026A00097020000B38656006780C6002307B70074
:1026B000A306B7002306B700A305B7002305B7009C
:1026C000A304B7002304B700A303B7002303B70094
:1026D000A302B7002302B700A301B7002301B7008C
:1026E000A300B7002300B7006780000093F5F50F43
:1026F00093968500B3E5D50093960501B3E5D50023
:102700006FF0DFF69396270097020000B38656001D
:1027100093820000E78006FA93800200938707FF08
:102720003307F7403306F600E378C3F66FF0DFF3C4
:102730006780000067800000130101FF1387050018
:102740002324810023229100930506001304050031
:1027500013860600130507002326110023AA012271
:10276000EFD09FE19307F0FF630CF5008320C100D9
:1027700003248100832441001301010167800000CC
:1027800083A74123E38407FE8320C1002320F400B4
:1027900003248100832441001301010167800000AC
:1027A000130101FC2324C1022326D1022328E102C4
:1027B000232AF102232C0103232E11031386050083
:1027C0008325850093068102232E11002326D10044
:1027D000EF00405B8320C10113010104678000000A
:1027E00003A3C11C130101FC2324C1022326D1022F
:1027F0002322B1022328E102232AF102232C010320
:10280000232E11038325830093064102130605003E
:1028100013050300232E11002326D100EF0080565C
:102820008320C10113010104678000008357C500A4
:102830001307900093F797006386E70013050000E5
:10284000678000006F309005130101FE232C81008A
:10285000232A9100232E1100232821012326310150
:102860009304050013840500630605008327850390
:10287000638407128317C4001397070193962701F7
:102880001357070163CA060203274406B726000050
:10289000B3E7D700B7E6FFFF939707019386F6FFEC
:1028A00093D707413377D7002322E4061397070114
:1028B0002316F4001357070123220400937607021E
:1028C000639C06149376470063900608937607018D
:1028D00063840616137787006310071093E7470099
:1028E0002316F40083270401638A07100319C40028
:1028F000931909019377390093D909016392070A63
:102900000326040183270402832644018325C4018E
:102910002320C40013850400E78007009307050007
:102920002322A40013050000635CF00E8320C10184
:102930000324810183244101032901018329C1006A
:10294000130101026780000083250403E38C05F86E
:10295000930704046386F50013850400EF30D01359
:102960008327C403232804022322F400E38C07F600
:10297000832784038320C101832441012320F400A1
:1029800003248101032901018329C10013050000EB
:102990001301010267800000EFE09F876FF09FED59
:1029A00003A5811BB7350080930710002316F400A0
:1029B0009385C582EFE05FF393F999002316240114
:1029C00093079000E39EF9F2930504001385040039
:1029D000EF3000416FF0DFF293050400138504002F
:1029E000EF30C065631A05028317C4002324040076
:1029F000232C040093F777FF6FF05FEE930504003C
:102A000013850400EFF08F9A6FF05FEE13670704F1
:102A1000232204002316E4001305F0FF6FF01FF1DA
:102A20000317C400E39407FE136707022316E400AC
:102A30001305F0FF6FF09FEF1307900023A0E40051
:102A400093E707042316F4001305F0FF6FF01FEE61
:102A5000130101FF232481002322910013040500A8
:102A6000138505002326110023AA0122EFD05FA6BB
:102A70009307F0FF630CF5008320C100032481005D
:102A800083244100130101016780000083A74123D3
:102A9000E38407FE8320C1002320F4000324810087
:102AA000832441001301010167800000130101FF2D
:102AB00023248100138405008395E500232611005B
:102AC000EF70500A63400502832704058320C1008C
:102AD000B387A7002328F404032481001301010114
:102AE000678000008357C40037F7FFFF1307F7FF25
:102AF000B3F7E7008320C1002316F400032481000C
:102B000013010101678000001305000067800000C9
:102B10008397C500130101FE232C8100232A910015
:102B20002328210123263101232E110013F707103A
:102B300013840500930405008395E500130906003E
:102B400093890600631E070237F7FFFF1307F7FF9D
:102B5000B3F7E7002316F400032481018320C101A9
:102B600093860900130609008329C1000329010186
:102B70001385040083244101130101026F201057C3
:102B80009306200013060000EF6000698317C4005D
:102B90008315E4006FF05FFB130101FF2324810024
:102BA000138405008395E50023261100EF60C066BD
:102BB0009307F0FF6304F5028357C4003717000042
:102BC0008320C100B3E7E7002328A4042316F40000
:102BD0000324810013010101678000008357C400B2
:102BE00037F7FFFF1307F7FFB3F7E7008320C100B4
:102BF0002316F40003248100130101016780000003
:102C00008395E5006F3040063367B5009303F0FF0E
:102C10001377370063100710B7877F7F9387F7F725
:102C20000326050083A60500B372F6003363F600A1
:102C3000B382F200B3E26200639272106316D608A8
:102C40000326450083A64500B372F6003363F60001
:102C5000B382F200B3E26200639E720C6316D60682
:102C60000326850083A68500B372F6003363F60061
:102C7000B382F200B3E262006398720C6316D6046A
:102C80000326C50083A6C500B372F6003363F600C1
:102C9000B382F200B3E262006392720C6316D60252
:102CA0000326050183A60501B372F6003363F6001F
:102CB000B382F200B3E26200639C720A130545011D
:102CC00093854501E30ED6F4131706019397060189
:102CD000631EF7001357060193D706013305F7402B
:102CE0009375F50F63900502678000001357070185
:102CF00093D707013305F7409375F50F63940500EB
:102D0000678000001377F70F93F7F70F3305F7404D
:102D1000678000000346050083C605001305150003
:102D2000938515006314D600E31606FE3305D640DE
:102D3000678000001305450093854500E31CD6FC21
:102D4000130500006780000013058500938585004A
:102D5000E312D6FC13050000678000001305C500D0
:102D60009385C500E318D6FA1305000067800000BC
:102D70001305050193850501E31ED6F81305000030
:102D800067800000130101E12326111E2320211F6B
:102D90002324811D2320A11D138C05001309060087
:102DA000232AD1002324811E2322911E232E311D8C
:102DB000232C411D232A511D2328611D2326711D0B
:102DC0002322911D232EB11B130D0500EF60403A05
:102DD00083270500138507002328F102EF70D00236
:102DE0002326A1022328010E232A010E232C010EE3
:102DF000232E010E63060D0003278D03E308070A47
:102E00008316CC00139706019397260113570701E9
:102E100063CA07023727000003264C0633E7E600A3
:102E200013170701B7E6FFFF135707419386F6FF15
:102E3000B376D6002316EC00131707012322DC0615
:102E400013570701937687006388062E83260C01AB
:102E50006384062E1377A7019306A0006300D73082
:102E60009307C110375701802322F10E9388070082
:102E70009307470237570180232CF100130B0900F9
:102E80009307071A2324F10083470B002326010E22
:102E90002324010E23200102232A0102232C0102F4
:102EA000232E0102232401042326010423260100EA
:102EB0006386072213040B0093065002638AD730FF
:102EC0008347140013041400E39A07FEB30464411B
:102ED000630664218326C10E8327810E23A0680127
:102EE000B38696009387170023A298002326D10E5D
:102EF0002324F10E930670009388880063C2F62E97
:102F00000327C10083470400330797002326E1000D
:102F10006386071C83441400A303010C13041400EC
:102F2000930DF0FF93090000130A00001309A00598
:102F3000930A9000930BA002938C080013041400D2
:102F4000938704FE6364F9040327810193972700A4
:102F5000B387E70083A70700678007009309000095
:102F6000938604FD8344040093972900B3873701B7
:102F700093971700B389F600938604FD1304140099
:102F8000E3F2DAFE938704FEE370F9FC93880C0009
:102F90006386041423069114A303010C930A100002
:102FA000930C1000130BC11423280100930D000093
:102FB0002324010223220102232E0100937B2A00F5
:102FC00063840B00938A2A0013794A088327C10E71
:102FD0006316090033885941E34600718346710C3A
:102FE000638A06028326810E1306710C23A0C80093
:102FF00093871700130610009386160023A2C800BB
:103000002326F10E2324D10E130670009388880026
:103010006342D652638C0B028326810E1306810C09
:1030200023A0C8009387270013062000938616006C
:1030300023A2C8002326F10E2324D10E130670000C
:10304000938888006354D6006F00D07893060008F8
:10305000E30ED93CB38D9D41E34AB04993760A1003
:10306000E39806280327810EB387970123A0680100
:103070001307170023A298012326F10E2324E10E43
:103080009306700063C8E65493888800137A4A0058
:1030900063060A00B3845941634E905463D45901C6
:1030A00093890A000327C100330737012326E10073
:1030B000E398074E832701012324010E638807004C
:1030C0008325010113050D00EF30001D9308C11089
:1030D000130B040083470B00E39E07DC8327C10E1C
:1030E000638407006F1050328357CC0093F70704B6
:1030F000638407006F2000238320C11E0324811EE8
:103100000325C1008324411E0329011E8329C11DFB
:10311000032A811D832A411D032B011D832BC11C02
:10312000032C811C832C411C032D011C832DC11BEE
:103130001301011F6780000093050C0013050D00AB
:10314000EF205001630405006F20C01D0357CC0021
:103150009306A0001377A701E314D7D00317EC0060
:10316000E34007D0832641011306090093050C00B4
:1031700013050D00EF20806B2326A1006FF0DFF711
:1031800013050D00EF50D07E8327450013850700FF
:103190002326F104EF7040479307050013050D0047
:1031A000938407002324F104EF50907C832785004B
:1031B000232EF102638404006F10C01283440400C4
:1031C0006FF0DFD783440400136A0A026FF01FD741
:1031D000B3046441E31064D1834704006FF05FD30C
:1031E0001306410E93050C0013050D00EFA04005DA
:1031F000E31C05EE9308C1106FF09FD093778A000F
:1032000093880C00638407006F10C012832741016C
:103210001305010B232891019387770093F787FF0C
:1032200083A5070003A6470093878700232AF100A0
:10323000EF1001618327010B832801012328F10E80
:103240008327410B232AF10E8327810B232CF10EB8
:103250008327C10B232EF10E1305010F2328110123
:10326000EF50506A2326A10C930720008328010108
:103270006314F5006F10C04F930710006314F5003E
:103280006F104064930710066394F4006F20401C95
:10329000930710046394F4006F10101993FBF4FD6E
:1032A0009307F0FF232271056394FD006F2000282F
:1032B000930770046394FB006F20001E0323C10F6B
:1032C00023244103032E010F832E410F032F810F6F
:1032D00093670A10635403006F20003E232C0104FF
:1032E000138A070023280100930760046394FB00FE
:1032F0006F10906993075004232811056384FB0025
:103300006F10906013891D00930A010B930609004A
:103310001308C10D9307010D1307C10C13062000FC
:1033200093850A0013050D002328C10B2320C10536
:10333000232AD10B2322D103232CE10B2320E103E9
:10334000232E610A232E6100EF4050320323C10176
:10335000032F0102832E4102032E0104832801055D
:10336000130B050033092501930C010A93850C000A
:1033700013850A00232E11012328C10B232AD10B08
:10338000232CE10B232E610A2320010A2322010AA8
:103390002324010A2326010AEFE0D01C8328C1015F
:1033A00013070900630205020327C10D637E27018D
:1033B0009306000393071700232EF10C2300D70078
:1033C0000327C10DE36827FFB30767412320F102FC
:1033D0000327C10C93077004232EE1000327410447
:1033E0006314F7006F10D043032741049307600470
:1033F0006314F7006F10D0678327C10103274104CE
:10340000930510049387F7FF2326F10C93F6F40F2E
:10341000130600006318B7009386F60093F6F60FC4
:1034200013061000230AD10C9306B00263DA0700DA
:103430000327C101930710009306D002B387E7402A
:10344000A30AD10C9306900063C4F6006F20C02835
:103450001308310E130508001306A000130E3006E2
:1034600033E7C70293050500938607001305F5FFB0
:1034700013070703A38FE5FEB3C7C702E342DEFECF
:103480009387070313F6F70FA30FC5FE9387E5FF96
:1034900063E407016F2040379306610D6F008000E1
:1034A00003C607002380C600938717009386160083
:1034B000E39807FF9307510EB387B7401307610DD9
:1034C000B307F7009306410DB387D740232CF102D1
:1034D000032701028326810393071000B30CD70052
:1034E00063C4E7006F2040298327C102B38CFC002E
:1034F0008327810293CAFCFF93DAFA4113FAF7BFDC
:10350000136A0A10B3FA5C01232401022322010288
:10351000232E010083278105639407006F109037E5
:103520009307D002A303F10C930D0000938A1A00B5
:103530006FF0DFA81306410E93050C0013050D0074
:10354000EF901050E31805068327C10E9308C110B1
:103550006FF05FAC832601030327C10213067000DE
:1035600023A0D8008326810EB307F70023A2E8002A
:10357000938616002326F10E2324D10E938888000B
:103580006354D6021306410E93050C0013050D007B
:10359000EF90104BE31005028325C10C8327C10E69
:1035A0008326810E9308C11063D405006F10505814
:1035B000032701029386160023A06801B307F700D2
:1035C00023A2E8002326F10E2324D10E1307700056
:1035D000E35CD7AA1306410E93050C0013050D00FA
:1035E000EF9010466318057C8327C10E9308C11025
:1035F0006FF0DFA9930600010327810E63C49600D4
:103600006F109051B7560180938E0619130900016F
:10361000130A7000138B0E006F00C000938404FF28
:1036200063569904938707011307170023A06801C5
:1036300023A228012326F10E2324E10E938888007B
:10364000E35EEAFC1306410E93050C0013050D0022
:10365000EF90103F63100576938404FF8327C10E1B
:103660000327810E9308C110E34E99FA930E0B00C5
:10367000B38797001307170023A0D80123A298004F
:103680002326F10E2324E10E93067000E3D8E6A072
:103690001306410E93050C0013050D00EF90503AF0
:1036A000631A05708327C10E6FF05F9F13050D002D
:1036B000EFD01FB66FF0CFF40327410193880C00C1
:1036C000A303010C8327070013074700232AE10007
:1036D0002306F114930A1000930C1000130BC1146D
:1036E0006FF09F8C83274101A303010C93880C008A
:1036F00003AB070013894700E30E0B5A9307F0FF53
:103700006394FD006F10001013860D0093050000F8
:1037100013050B00232A9101EFE0DFD42328A10039
:1037200083284101631405006F10D0318327010104
:10373000232A210123280100B38C67418347710CA0
:1037400093CAFCFF93DAFA412324010223220102E7
:10375000232E0100B3FA5C01930D0000E38007867D
:10376000938A1A006FF09F8583440400136A4A000D
:103770006FF0CFFC8326410193770A0293880C00F7
:1037800003A7060093864600232AD100E39E07364E
:1037900093770A01638407006F10C00593770A04CA
:1037A000638407006F10C03F137A0A2063140A0075
:1037B0006F1040048327C100130B04002300F7009F
:1037C0006FF05F91834404009307C006E384F44CD8
:1037D000136A0A016FF08FF603274101B787FFFFD5
:1037E00093C707832314F10C93074700232AF100A2
:1037F00003290700B7570180938707FF93880C00C0
:10380000232AF102930C0000936B2A0093072000F7
:1038100093048007A303010C1307F0FF6386ED20D8
:103820003367990113FAFBF7631E071E63940D2695
:103830006390071C93FC1B00130B011BE39C0C28DB
:10384000938A0C0063D4BC01938A0D008347710CEA
:10385000232801002324010223220102232E010038
:10386000E39007F06FF08FF5834404009307800620
:10387000E38AF442136A0A046FF04FEC9307B00234
:1038800083440400A303F10C6FF04FEB8344040066
:10389000136A0A086FF08FEA8344040013071400C8
:1038A000639474016F105072938604FD1304070033
:1038B000930D000063E6DAE88344040093972D003B
:1038C000B387B70193971700B38DD700938604FD94
:1038D00013041400E3F2DAFE6FF08FE68327410150
:1038E0008344040083A9070093874700232AF1003B
:1038F00063D609E4B3093041136A4A006FF00FE45C
:1039000083440400136A1A006FF04FE38347710C7D
:1039100083440400639407E293070002A303F10CBD
:103920006FF0CFE193880C00136A0A0193770A02C3
:10393000E38E070C83274101138B7700137B8BFFEA
:1039400003290B00832C4B0093078B00232AF100E3
:10395000937BFABF930700006FF0DFEB93880C00B6
:10396000936B0A0193F70B02E388070C832741014D
:10397000138B7700137B8BFF93078B00232AF100B7
:1039800003290B00832C4B00930710006FF09FE876
:1039900083440400136A8A006FF04FDA93880C00A6
:1039A000136A0A0193770A02E380070C8327410117
:1039B000138B7700137B8BFF83274B0003290B00AE
:1039C00013078B00232AE100938C0700E3C6070C42
:1039D0009307F0FF930B0A006384FD02B36799011C
:1039E000937BFAF7639E070063920D02138A0B0024
:1039F000930D0000930C0000130B011B6FF05FE4AC
:103A0000E3920C3A93079000E3EE27391309090378
:103A1000A307211B138A0B00930C1000130BF11A40
:103A20006FF01FE2930B0A0013071000E38AE7FC14
:103A300013072000638CE706130B011B1397DC01AF
:103A40009377790013593900938707033369270166
:103A500093DC3C00A30FFBFE3367990113060B00B8
:103A6000130BFBFFE31C07FC93F61B00638A06069F
:103A7000930600036386D7061306E6FF9307011B30
:103A8000A30FDBFEB38CC740138A0B00130B060099
:103A90006FF01FDB130710006394E7006F10D01462
:103AA00013072000930B0A00E398E7F883264103ED
:103AB000130B011B9377F900B387F60003C70700C8
:103AC000135949009397CC0133E9270193DC4C004B
:103AD000A30FEBFEB3679901130BFBFFE39C07FCFD
:103AE0009307011BB38C6741138A0B006FF05FD5FE
:103AF0009306500663DC962C8326010F9305010A7A
:103B00001305010B2328D10A8326410F2322110517
:103B10002320F104232AD10A8326810F2320010ABE
:103B20002322010A232CD10A8326C10F2324010A50
:103B30002326010A232ED10AEFE0C02283270104A5
:103B4000832841046318054A0327810EB756018074
:103B50009386060223A0D8009387170093061000CF
:103B60001307170023A2D8002326F10E2324E10E09
:103B70009306700093888800E3C6E63A0327C10CD9
:103B800083260102635CD772032701038326C102E7
:103B90009388880023ACE8FE0327810EB387D70003
:103BA00023AED8FE130717002326F10E2324E10EBF
:103BB00093067000E3C0E60C032701029304F7FFAD
:103BC000635690CC930600010327810EE3DC963602
:103BD00013090001930C70006F00C000938404FF70
:103BE000E352993683268100938707011307170054
:103BF00023A0D80023A228012326F10E2324E10EBE
:103C000093888800E3DCECFC1306410E93050C005E
:103C100013050D00EF90C062631E05188327C10EC7
:103C20000327810E9308C1106FF05FFB3389594160
:103C3000635220C3130600018326810E63542607B6
:103C4000130E0001930B70006F00C000130909FFF1
:103C5000635A2E0503278100938707019386160078
:103C600023A0E80023A2C8012326F10E2324D10EAD
:103C700093888800E3DCDBFC1306410E93050C00FF
:103C800013050D00EF90C05B63160512130E0001C3
:103C9000130909FF8327C10E8326810E9308C110E3
:103CA000E34A2EFB03278100B38727019386160082
:103CB00023A0E80023A228012326F10E2324D10EFD
:103CC00013067000938888006356D6B81306410E19
:103CD00093050C0013050D00EF908056631C050C36
:103CE0008327C10E9308C1106FF0CFB613060001F1
:103CF0008326810E6352B607930B000113097000EF
:103D00006F00C000938D0DFF63D8BB0503278100B2
:103D1000938707019386160023A0E80023A2780169
:103D20002326F10E2324D10E93888800E35CD9FC6E
:103D30001306410E93050C0013050D00EF90405043
:103D4000631A0506938D0DFF8327C10E8326810E0E
:103D50009308C110E3CCBBFB03278100B387B701F5
:103D60009386160023A0E80023A2B8012326F10EB3
:103D70002324D10E13067000938888006350D6AEBA
:103D80001306410E93050C0013050D00EF90404BF8
:103D9000631205028327C10E9308C1106FF00FACA8
:103DA0001306410E93050C0013050D00EF904049DA
:103DB000630205B0832B010163880BB293850B006E
:103DC00013050D00EF20404D6FF00FB28326810EDA
:103DD000938C1700832701021306100023A06801AB
:103DE00093841600138988006356F63893071000F1
:103DF00023A2F8002326910F2324910E930770002D
:103E000063CE97748327C1020327010393841400B0
:103E1000B38CFC002322F9002320E9002326910F14
:103E20002324910E930770001309890063CA9774C5
:103E30008327010F138614009305010A2328F10A32
:103E40008327410F1305010B232EC100232AF10AFA
:103E50008327810F2320010A2322010A232CF10A40
:103E60008327C10F2324010A2326010A232EF10AE6
:103E7000EFD0506F0326C101832701029308890008
:103E800093060600938DF7FF630A053013071B00A6
:103E9000B38CBC012320E9002322B9012326910F12
:103EA0002324C10E9307700063CCC7509307090108
:103EB0009386240013890800938807000326810352
:103EC0001307410D2320E900B30796012322C900FF
:103ED0002326F10E2324D10E130770006358D79ABE
:103EE0006FF04FEF37570180130600018326810ED4
:103EF000930E0719635C0609232081042322910491
:103F000013040D0093040C00130E000193027000C3
:103F1000130C0800138D0E006F00C000130C0CFF73
:103F2000635A8E05938707019386160023A0A80184
:103F300023A2C8012326F10E2324D10E93888800E2
:103F4000E3DED2FC1306410E938504001305040042
:103F5000EF90002F6312057A130E0001130C0CFF73
:103F60008327C10E8326810E9308C110930270002F
:103F7000E34A8EFB13080C00930E0D00138C040013
:103F8000130D04008324410403240104B3870701B3
:103F90009386160023A0D80123A208012326F10E40
:103FA0002324D10E13067000938888006344D60042
:103FB0006FF0CF821306410E93050C0013050D0020
:103FC000EF900028E31805DE8327C10E9308C11087
:103FD0006FF0CF801306410E93050C0013050D0002
:103FE000EF900026E31805DC8327C10E9308C1106B
:103FF0006FF0CF858325C10C635CB0660327C101D8
:10400000832601029304070063C2E63863569002D8
:104010008326810EB387970023A06801938616003C
:1040200023A298002326F10E2324D10E130670003C
:1040300093888800E342D63293C6F4FF0327C10178
:1040400093D6F641B3F4D400B30497406344904848
:104050000327C10193760A40B30DEB00E398060CE9
:104060008324C10C0327010263C6E40093761A007F
:10407000E3880630832601030327C102130670007C
:1040800023A0D8008326810EB387E70023A2E8008F
:10409000938616002326F10E2324D10E93888800E0
:1040A0006354D6006F108017832601023307DB00AC
:1040B000B38496403307B7411389040063549700D3
:1040C00013090700635820030327810EB3872701D4
:1040D00023A0B8011307170023A228012326F10EFD
:1040E0002324E10E930670009388880063D4E600D1
:1040F0006F10801C1347F9FF1357F7413377E9001E
:10410000B384E440634490006FE05FF893060001DD
:104110000327810E63D8966213090001930C700087
:104120006F00C000938404FF635E99608326810062
:10413000938707011307170023A0D80023A22801A3
:104140002326F10E2324E10E93888800E3DCECFCA7
:104150001306410E93050C0013050D00EF90400E61
:10416000E31A05C48327C10E0327810E9308C110EB
:104170006FF05FFB93771A00E39A07C623A2C8008B
:104180002326910F2324910E9307700063CA972270
:1041900093862600938808016FF05FD2E350B0D376
:1041A000130700016344B7016F108061130B7000A7
:1041B000930406006F000001938D0DFF635EB71D31
:1041C0009384140083278100938C0C012322E9003F
:1041D0002320F9002326910F2324910E130989002F
:1041E000E35C9BFC1306410E93050C0013050D00C8
:1041F000EF900005E31005BC832CC10E8324810ED3
:104200001309C110130700016FF01FFB8326410142
:1042100093770A01138746006392071693770A047F
:104220006384076883274101930C0000232AE1007F
:1042300003D907006FF0CFF18326410193F70B01FB
:1042400013874600639E070C93F70B04638E076089
:1042500083274101930C0000232AE10003D90700C2
:10426000930710006FF00FDB8326410193770A015B
:1042700013874600639A070E93770A0463860760E4
:1042800083274101232AE10003990700935CF94148
:1042900093870C0063DE07F2B3372001B30C904123
:1042A000B38CFC409307D002A303F10C33092041E7
:1042B000930B0A00930710006FF00FD613771A00C4
:1042C000631407006FE09FDC6FF01F8C93880C0075
:1042D0006FF04FED93070003A307F11A130BF11AC8
:1042E0006FF00FD68327C103834404006394070053
:1042F0006FE0DFC483C70700639407006FE01FC44B
:10430000136A0A406FE09FC38326C100130B0400A9
:1043100093D7F6412320D7002322F7006FE09FDBDD
:1043200003A90600930C0000232AE1009307100064
:104330006FF04FCE03274101832707001307470083
:10434000232AE10083A5070003A6470083A6870070
:1043500083A7C7002328B10E232AC10E232CD10E18
:10436000232EF10E6FE05FEF03A90600232AE10080
:10437000935CF94193870C006FF04FE503A90600A9
:10438000930C0000232AE1006FF08FDC9384060079
:10439000E34090C86FF05FCA93861400130789004A
:1043A00083278100B38CBC012322B9012320F900AB
:1043B0002326910F2324D10E9307700063DED77458
:1043C0001306410E93050C0013050D00EF80506796
:1043D000E312059E8326810E832CC10E93084111A2
:1043E000938616001309C1106FF05FAD93880C001F
:1043F000930B0A006FF00FD7B7570180938707FF21
:1044000093880C00232AF10293770A02638807122B
:1044100083274101138B7700137B8BFF03290B004C
:10442000832C4B0093078B00232AF10093771A000B
:10443000638E0700B3679901638A0700930700033F
:104440002304F10CA304910C136A2A00937BFABF96
:10445000930720006FF00FBCB75701809387470088
:1044600093880C00232AF1026FF01FFA93880C0046
:104470006FF0CFCB1306410E93050C0013050D0012
:10448000EF80105CE31805928327C10E9308C110DA
:104490006FF08FF283441400136A0A0213041400AD
:1044A0006FE0DFA983441400136A0A201304140088
:1044B0006FE0DFA893076000938C0D0063EEB76B8D
:1044C00037570180938A0C00232A2101130B87019F
:1044D0006FE09FAD130600018326810E6354964062
:1044E000930C0001930D70006F00C000938404FFD3
:1044F00063DA9C3E032781009387070193861600A9
:1045000023A0E80023A298012326F10E2324D10E34
:1045100093888800E3DCDDFC1306410E93050C0054
:1045200013050D00EF80D051E31605888327C10ED7
:104530008326810E9308C1106FF05FFB8326410133
:1045400093770A01138746006380071C03A90600BE
:10455000930C0000232AE1006FF05FED1306410E7B
:1045600093050C0013050D00EF80904DE3140584B6
:10457000832CC10E8324810E1309C1106FF09F8814
:104580001306410E93050C0013050D00EF80504BF0
:10459000E3120582832CC10E8324810E1309C110FE
:1045A0006FF01F89130B011B930700002328810064
:1045B000232E910013040B0023223103130B0C0054
:1045C0009304090093890C0013FA0B40832CC10358
:1045D000930AF00F138C0800138907006F00400244
:1045E0001306A000930600001385040093850900BC
:1045F000EFC0C028E38A092A9304050093890500C7
:104600001306A0009306000013850400938509009B
:10461000EFC0006A13050503A30FA4FE13091900D8
:104620001304F4FFE30E0AFA83C60C00E31AD9FA66
:10463000E30859FB6392094A9307900063EE974899
:1046400093080C009307011B130C0B00130B0400C1
:10465000232E91038324C1018329410203240101F4
:1046600023202103B38C6741138A0B006FF04F9D09
:104670008326810E375601801306060223A0C80048
:1046800093871700130610009386160023A2C80014
:104690002326F10E2324D10E130670009388880080
:1046A0006344D648638405006FE0DFEA0327010214
:1046B00093761A00B3E6E600639406006FE01F9D50
:1046C000832601030327C1021306700023A0D8002C
:1046D0008326810EB307F70023A2E8009386160015
:1046E0002326F10E2324D10E6354D6006FE09FE9F8
:1046F000938888006FE0DFEB832B0101130D04002A
:10470000138C04006FF04FEB93770A046380071457
:1047100083274101930C0000232AE10003D90700FD
:104720006FF0DFD01306410E93050C0013050D004A
:10473000EF801031631005E88327C10E9308C11084
:104740006FF0CFC383268100B387970023A2980020
:1047500023A0D800130717002326F10E2324E10E0F
:104760009306700063C4E6006FE01F926FE09FE65F
:104770008327010F9305010A1305010B2328F10A72
:104780008327410F2320010A2322010A232AF10A49
:104790008327810F2324010A2326010A232CF10AEF
:1047A0008327C10F232EF10AEFD0C07C832801019B
:1047B000E34005268347710C13077004635897384C
:1047C00037570180130B47FE2328010023240102E1
:1047D00023220102232E0100137AFAF7930A3000F4
:1047E000930C3000930D0000638407006FE05FF7C7
:1047F0006FE0CFFC8327C100130B04002320F700D8
:104800006FE05F8D13050B0023209105EF50D05F03
:104810008347710C934AF5FF93DAFA41232A210169
:10482000232801002324010223220102232E010058
:1048300083280104930C0500B37A5501930D000001
:10484000638407006FE0DFF16FE04FF793770A2092
:104850006382073A83274101930C0000232AE10079
:1048600003C907006FF09FBC93F70B2063880736DE
:1048700083274101930C0000232AE10003C90700AC
:10488000930710006FE01FF993770A20638C0732BB
:1048900083274101232AE10003890700935CF94142
:1048A00093870C006FF08F9293770A206382073012
:1048B00083274101930C0000232AE10003C907006C
:1048C0006FF00F898327C10F63CA07348347710CC8
:1048D00013077004E35C971C37570180130BC7FE66
:1048E0006FF09FEE03278100B38797009386160031
:1048F00023A0E80023A298002326F10E2324D10E42
:1049000013067000938888006354D6F41306410E92
:1049100093050C0013050D00EF809012631C05C871
:104920008327C10E9308C1106FF08FF20327010295
:10493000832C4102232E41012320810423223105AF
:10494000232251038329810223246103B30BEB004B
:104950000324C103032A8104832AC1049304700041
:1049600013090001130B0C0063880C0863980908F5
:104970001304F4FF938CFCFF0327810EB3874701D8
:1049800023A058011307170023A248012326F10E84
:104990002324E10E9388880063CEE40E834604004E
:1049A0003386BB41138C06006354D600130C0600FB
:1049B000635680038326810EB387870123A0B80145
:1049C0009386160023A288012326F10E2324D10EFC
:1049D00063C2D40E83460400938888001346FCFF0C
:1049E0001356F6413377CC00338CE640634C80019C
:1049F000B38DDD00E39C0CF6638A095E9389F9FFB1
:104A00006FF09FF78326810E634889016F00800550
:104A1000130C0CFF63588905032781009387070156
:104A20009386160023A0E80023A228012326F10E76
:104A30002324D10E93888800E3DCD4FC1306410EB6
:104A400093050B0013050D00EF80807F631405664E
:104A5000130C0CFF8327C10E8326810E9308C1100F
:104A6000E34C89FB03278100B387870193861600F7
:104A700023A0E80023A288012326F10E2324D10ECF
:104A800063C0D4668346040093888800B38DDD003C
:104A90006FF05FF61306410E93050B0013050D0032
:104AA000EF80007A631805608327C10E9308C11058
:104AB0006FF0DFEE1306410E93050B0013050D009A
:104AC000EF8000786318055E834604008327C10EDB
:104AD0009308C1106FF09FF0832781048325C104E0
:104AE000130900003304F440138607001305040083
:104AF000EF50503A83C51C001306A0009306000037
:104B00003338B0001385040093850900B38C0C0181
:104B1000EFB0D0566FF05FAE938616009308870013
:104B2000130907006FF08FB91306410E93050C00AF
:104B300013050D00EF80C070631E05A68325C10C10
:104B40008327C10E9308C1106FF0DFB5375701807E
:104B5000130B07FE6FF05FC71306410E93050C00A1
:104B600013050D00EF80C06D631605A48327C10EE9
:104B70009308C1106FF04FCC930C60006FF05F94FE
:104B8000832601023307DB00B38496403308B74124
:104B900013890400635098D6130908006FF08FD56D
:104BA0008327C100130B04002310F7006FE08FD29E
:104BB00083274101930C0000232AE10003A9070089
:104BC0006FE01FD983274101232AE10003A90700D1
:104BD000935CF94193870C006FE05FDF832741010D
:104BE000930C0000232AE10003A90700930710009B
:104BF0006FE05FC283274101930C0000232AE1008C
:104C000003A907006FF09F821306410E93050C0065
:104C100013050D00EF80C0626FE00FCD9307D00247
:104C2000A303F10C6FF0DFCA930700032304F10C18
:104C30009307800513672A00A304F10C2324E102E3
:104C40009307300623280100130BC114E3C4B703F4
:104C50000323C10F93FBF4FD23227105232C0104D0
:104C6000032E010F832E410F032F810F136A2A1089
:104C7000634E034493071006E38EF40A930710046F
:104C80006384F4006FE04FE6930A010B13850A007A
:104C9000232A11052328C10B232AD10B232CE10B36
:104CA000232E610AEFF010591306C10CEF50007269
:104CB000138605009305050013850A00EFF05038B0
:104CC0008327010B930C010A130901092328F1081A
:104CD0008327410B1306010893050900232AF108D5
:104CE0008327810B13850C002320C104232CF1089A
:104CF0008327C10B2320010823220108232EF1085A
:104D0000B707FC3F2326F10823240108EFD0C03A5F
:104D10000328010A032E410A832E810A032FC10AA8
:104D200093850C0013850A002328010B2328010515
:104D3000232AC10B2322C103232CD10B2320D1030F
:104D4000232EE10B232EE1012320010A2322010A55
:104D50002324010A2326010AEFD0C000032FC1013A
:104D6000832E0102032E41020328010583284105F9
:104D700063160500930710002326F10CB757018036
:104D8000938747002322F1029386FDFF232E4105DE
:104D9000232291062326B107232AA107232C81076A
:104DA000232081062324310723281107130C0B002D
:104DB000938B0600232E6107130D0800930D0E0040
:104DC00093840E00130A0F006F00800493850C007B
:104DD00013850A002320C102232EF101232CF10B9D
:104DE000232EC10A2328610B232A310B2320010A19
:104DF0002322010A2324010A2326010AEFC0907608
:104E0000832FC10103260102938BFBFF6302050E72
:104E1000B70703401306090093850C0013850A00A9
:104E2000232EF1082320A10B2322B10B2324910A66
:104E30002326410B23280108232A0108232C0108DB
:104E4000EFD0802713850A00EFF040799305050025
:104E50001304050013850A008329010B8324410BE9
:104E6000032B810B032AC10BEFF090080327010BE2
:104E700003260104930509002320E1080327410BC1
:104E800013850C00232831092322E1080327810B15
:104E9000232A9108232C61092324E1080327C10B4D
:104EA000232E41092326E108EFE040218327410218
:104EB000032B010A8329410A338787000347070030
:104EC000832F810A0326C10A232A81052300EC00CF
:104ED000232871059307F0FF130C1C00130D0B0022
:104EE000938D090093840F00130A0600E390FBEEF4
:104EF0008328010793030B00938209003709FE3FC3
:104F000093850C0013850A0023201103232E8100B2
:104F1000032AC10583244106032401062328710ABC
:104F200023227106232A510A23205106232CF10B38
:104F3000232EF105232EC10A2320C1042320010AB8
:104F40002322010A2324010A2326210BEFC0506EDD
:104F5000930B0C00832DC106032D4107032C810701
:104F6000032BC10783298106832801026342A048DD
:104F70008323410683220106832FC10503260104F2
:104F800093850C0013850A002328710A232A510AED
:104F9000232CF10B232EC10A2320010A2322010A0C
:104FA0002324010A2326210BEFC0D05B83280102B2
:104FB000631805008327C10193FC1700639A0C4214
:104FC000832701051306000393861700B386DB00D1
:104FD00063C80700938B1B00A38FCBFEE39C76FF77
:104FE000B3876B412320F1026FE08FBE03270102DC
:104FF000130C0B00032B8102232E8102032AC10113
:10500000B306EB000324010483294104832A4102EF
:1050100063E4B6016FF0CF84938D06006FF04F8488
:105020000327C1019307D0FF6344F70063DAED0063
:105030009384E4FF93F7F4FD2322F1046FE0CFBBE8
:10504000832701020327C1016340F72A83278102D6
:10505000930C070093F71700638607008327C102AC
:10506000B30CF7008327810293F70740638607009C
:105070008327C1016342F05C93CAFCFF93DAFA41D3
:10508000B3FA5C0193047006232401022322010277
:105090006FE04FC88347710C930D000063840700D5
:1050A0006FE00FEC6FD09FF19307900063E697D409
:1050B0006FF00FD9832B0101130C0B006FE0DFCFD2
:1050C0002324410323280100130A0900B7070080A5
:1050D00033C367009307D002232CF1046FF09FB90C
:1050E0001306410E93050B0013050D00EF804015CC
:1050F000E31205FC834604008327C10E9308C11008
:10510000B38DDD006FF01F8F930A010B9307010D24
:105110001308C10D1307C10C93860D001306200060
:1051200093850A0013050D002328C10B2320C10518
:10513000232AD10B2322D103232CE10B2320E103CB
:10514000232E610A232E6100EF2050529307700432
:105150000323C101032F0102832E4102032E010408
:1051600083280105130B05006390FB088327810248
:1051700093F717006396072E930770040327C10D5A
:105180002322F1046FE04FA4930A010B1308C10D11
:105190009307010D1307C10C93860D001306300011
:1051A00093850A0013050D00232811052328C10B40
:1051B0002320C105232AD10B2322D103232CE10B69
:1051C0002320E103232E610A232E6100EF20104AE1
:1051D0000323C101032F0102832E4102032E010488
:1051E00083280105130B0500930760043309BB01F5
:1051F000639EFB2683460B00930700036386F650ED
:10520000930C010A8327C10C3309F9006FE00F9654
:105210009307D002A303F10C6FF00FDA1306410ECF
:1052200093050C0013050D00EF8080016304050059
:105230006FE05FB88324C10C8327C10E9308C110AF
:105240006FE09FE68347710C232A2101232401028A
:1052500023220102232E0100938A0D00938C0D005E
:10526000930D0000638407006FE08FCF6FD01FD5D0
:10527000832781020327C10193F71700B3E7B70122
:105280006356E05063900744832CC1019304600689
:105290008327810293F707406392073A93CAFCFF82
:1052A00093DAFA41B3FA5C016FF01FDE37570180E1
:1052B000130B87FE6FF04FD11306410E93050C00C0
:1052C00013050D00EF70D077630405006FE09FAE0B
:1052D0008324C10C032701028327C10E9308C11048
:1052E000B30497406FE01FE1832701020327C10247
:1052F00093047006B38CE7008327C101E34AF0F8FA
:10530000B38CFC40938C1C0093CAFCFF93DAFA41E7
:10531000B3FA5C016FF05FD7B7560180938E061920
:105320006FE00FB59307F0FF2326F1006FD0DFDCAD
:10533000130600FFB304B04063D2C5061309000191
:10534000930C70006F00C000938404FF63589904AD
:1053500003278100938707019386160023A0E800A6
:1053600023A228012326F10E2324D10E938888003E
:10537000E3DCDCFC1306410E93050C0013050D0065
:10538000EF70106C630405006FE0DFA28327C10E8D
:105390008326810E9308C1106FF01FFB0327810045
:1053A000B38797009386160023A0E80023A29800F5
:1053B0002326F10E2324D10E13067000635AD6B2B1
:1053C0001306410E93050C0013050D00EF70506796
:1053D000630405006FE01F9E8327C10E8326810EA4
:1053E0009308C1106FE0CF9C930B0A006FE00FE2AF
:1053F0008327410593860B00232EF10C832741025E
:1054000003C6FBFF83C5F7006310B6021305000354
:10541000A38FA6FE8326C10D9387F6FF232EF10CE2
:1054200003C6F6FFE386C5FE930516001305900339
:1054300093F5F50F6306A600A38FB6FE6FF05FBA73
:105440008327410283C5A700A38FB6FE6FF05FB923
:10545000930700032304F10C930780076FF08FFD7F
:10546000930770043309BB012322F104930C010A52
:105470006FD0DFEF93851D0013050D002328110168
:10548000EFC0DF8483280101130B0500630005369C
:105490002328A1006FF0CFFB63940D00930D100043
:1054A0000323C10F032E010F832E410F032F810F02
:1054B00013690A10E34603C0930A010B1308C10DD8
:1054C0009307010D1307C10C93860D0013062000EE
:1054D00093850A0013050D00232211052328C10B13
:1054E0002320C105232AD10B2322D103232CE10B36
:1054F0002320E103232E610A232E6100EF201017E1
:105500000323C10123244103032F0102832E4102FF
:10551000032E010483284104130B0500130A09001C
:10552000232C0104232801006FF05FC4930D600059
:105530006FD0DFD8930A010B13850A00232A1105C7
:105540002328C10B232AD10B232CE10B232E610A24
:10555000EFF0404E1306C10CEF4050671386050074
:105560009305050013850A00EFF0802D8327010BBA
:10557000930C010A130901092328F1088327410B21
:105580001306010893050900232AF1088327810BDC
:1055900013850C002320C104232CF1088327C10BA1
:1055A0002320010823220108232EF108B707FC3F1E
:1055B0002326F10823240108EFC010300328010A34
:1055C000032E410A832E810A032FC10A93850C0002
:1055D00013850A002328010B23280105232AC10B68
:1055E0002322C103232CD10B2320D103232EE10B33
:1055F000232EE1012320010A2322010A2324010A88
:105600002326010AEFC00076032FC101832E010279
:10561000032E410203280105832841056316050076
:10562000930710002326F10CB7570180938707FFDB
:105630002322F1026FF04FF5930470060326C10395
:105640009306F00F83470600638AD71A0327C10128
:10565000130500009305000063DEE7003307F74001
:10566000834716006384070493851500130616000C
:10567000E394D7FE232EC102232EE1002322B102A0
:105680002324A1020327810283274102B387E70075
:1056900003278104B387E702B38C970193CAFCFF09
:1056A00093DAFA41B3FA5C016FD0DFE68347060074
:1056B000130515006FF0DFFB23280100138A070094
:1056C0006FF0DFA08327C10293046006B30CF700DC
:1056D000B38CBC016FF0DFBB9306610D631806004D
:1056E00093060003230BD10C9306710D1307011BC6
:1056F000938707033386E6402380F6009307D60D91
:10570000232CF1026FD0DFDC930C010A93850C008F
:1057100013850A00232811052328C10B2320C10566
:10572000232AD10B2322D103232CE10B2320E103D5
:10573000232E610A232E61002320010A2322010A5D
:105740002324010A2326010AEFC0C0610323C101FB
:10575000032F0102832E4102032E01048328010539
:10576000E30205AA93071000B387B7412326F10C83
:105770003309F9006FD09FBF8327810293F7170089
:10578000639407006FD0DFD66FD01FD6639A0700EF
:10579000930A100093046006930C10006FF0DF8EE4
:1057A0008327C10293046006938C1700B38CBC015D
:1057B00093CAFCFF93DAFA41B3FA5C016FF0DF8C15
:1057C000138708006FE0DFBD8327410183AD070029
:1057D0009387470063D40D00930DF0FF83441400BA
:1057E000232AF100130407006FD04FF58357CC0034
:1057F00093E707042316FC006FD01F8F23240102B8
:10580000232201026FF01FE893072000232CF102EE
:105810006FD01FCC9307050003A5C11C930606009B
:1058200013860500938507006FD0CFD583D7C500B9
:1058300003AE450603D3E50083A8C50103A84502CE
:10584000130101B893F7D7FF13070040232C8146BB
:10585000231AF100138405009307010793058100C3
:10586000232A914623282147232E11461309050098
:105870002326C107231B61002322110323260103D2
:105880002324F100232CF1002328E100232EE10042
:1058900023200102EFD00FCF93040500635C0502C3
:1058A0008357410193F70704638807008357C400B7
:1058B00093E707042316F4008320C147032481479C
:1058C000032901471385040083244147130101483C
:1058D000678000009305810013050900EF00007642
:1058E000E30005FC9304F0FF6FF09FFB130101FF41
:1058F00013870500232481002322910093050600CD
:105900001304050013860600130507002326110063
:1059100023AA0122EFA0DFB29307F0FF630CF5008A
:105920008320C1000324810083244100130101016D
:105930006780000083A74123E38407FE8320C10022
:105940002320F4000324810083244100130101017A
:105950006780000083A7C11C130101FF232481007D
:1059600023229100232611009304050013840500CF
:105970006386070003A787036300070E0317C400AD
:10598000931707019376870093D707016380060476
:10599000832604016380060613F6170063040608D5
:1059A0000326440123240400130500003306C040ED
:1059B000232CC400638606088320C10003248100D1
:1059C00083244100130101016780000093F6070161
:1059D0006384060C93F74700639607088326040147
:1059E00013678700931707012316E40093D7070175
:1059F000E39406FA13F6072893050020E30EB6F8A1
:105A00009305040013850400EFC04F9A0317C400E8
:105A1000832604019317070193D7070113F6170094
:105A2000E31006F813F62700930500006314060040
:105A3000832544012324B40013050000E39E06F6E9
:105A400093F70708E38A07F6136707042316E400B1
:105A50001305F0FF6FF05FF613850700EFB04FFB03
:105A60006FF0DFF183250403638E050093070404C0
:105A70006388F50013850400EF0010020317C400CB
:105A800023280402832604011377B7FD2322040090
:105A90002320D4006FF0DFF49307900023A0F400DC
:105AA000136707042316E4001305F0FF6FF0DFF01F
:105AB00003A7811B83278714638C070403A7470070
:105AC0001308F001634EE806131827006306050269
:105AD000338307012324C30883A887181306100003
