:0200000480007A
:100000006F008004732F2034930F80006308FF0378
:10001000930F90006304FF03930FB0006300FF038E
:10002000130F000063040F0067000F00732F2034CC
:1000300063540F006F00400093E19153171F0000BD
:1000400023223FFC6FF09FFF732540F163100500F2
:10005000970200009382020173905230735000188F
:10006000970200009382020273905230B702008020
:100070009382F2FF7390023B9302F0017390023A75
:1000800097020000938282017390523073502030A7
:1000900073503030735040309301000097020000DD
:1000A000938282F673905230130510001315F501F8
:1000B000634C05000F00F00F930110009308D0056A
:1000C000130500007300000093020000638E02001D
:1000D00073905210B7B20000938292107390223046
:1000E00073232030E39A62F47350003097020000CB
:1000F0009382420173901234732540F173002030D3
:1001000097200000938000F01301A0FA23802000C4
:1001100003870000930EA0FA93012000631CD73DD3
:1001200097200000938000EE13010000A3802000C0
:1001300003871000930E000093013000631CD73B2F
:1001400097200000938000EC37F1FFFF130101FAC4
:100150002381200003972000B7FEFFFF938E0EFA45
:10016000930140006318D73997200000938080E9FD
:100170001301A000A381200003873000930EA0008C
:10018000930150006318D737972000009380F0E761
:100190001301A0FAA38E20FE0387D0FF930EA0FACE
:1001A000930160006318D735972000009380F0E535
:1001B00013010000238F20FE0387E0FF930E000051
:1001C000930170006318D733972000009380F0E309
:1001D000130100FAA38F20FE0387F0FF930E00FAAD
:1001E000930180006318D731972000009380F0E1DD
:1001F0001301A0002380200003870000930EA000BD
:10020000930190006318D72F97200000938000E09F
:100210003751341213018167138200FE230022023A
:1002200083820000930E80079301A0006394D22D77
:1002300097200000938080DD373100001301810991
:100240009380A0FFA383200017220000130212DC7A
:1002500083020200930E80F99301B000639CD229BF
:100260009301C000130200009300D0FD172100008D
:10027000130141D92300110003070100930ED0FDA3
:10028000631AD7271302120093022000E31E52FCC8
:100290009301D000130200009300D0FC172100004E
:1002A000130141D613000000A30011000307110041
:1002B000930ED0FC6310D725130212009302200086
:1002C000E31C52FC9301E000130200009300C0FC09
:1002D00017210000130101D31300000013000000D8
:1002E0002301110003072100930EC0FC6314D721E2
:1002F0001302120093022000E31A52FC9301F00053
:10030000130200009300C0FB13000000172100003F
:10031000130141CFA301110003073100930EC0FB6D
:10032000631AD71D1302120093022000E31C52FC33
:1003300093010001130200009300B0FB13000000C2
:1003400017210000130101CC13000000230211004B
:1003500003074100930EB0FB631ED719130212006E
:1003600093022000E31A52FC9301100113020000D3
:100370009300B0FA130000001300000017210000E2
:10038000130141C8A302110003075100930EB0FAF4
:100390006312D7171302120093022000E31A52FCD3
:1003A000930120011302000017210000130181C5F1
:1003B000930030032300110003070100930E300364
:1003C000631AD7131302120093022000E31E52FC9B
:1003D000930130011302000017210000130181C2B4
:1003E0009300300213000000A30011000307110066
:1003F000930E30026310D7111302120093022000F3
:10040000E31C52FC9301400113020000172100007D
:10041000130141BF930020021300000013000000ED
:100420002301110003072100930E20026314D70D4E
:100430001302120093022000E31A52FC93015001B0
:1004400013020000172100001301C1BB13000000BC
:1004500093002001A301110003073100930E200136
:10046000631AD7091302120093022000E31C52FC06
:10047000930160011302000017210000130181B8ED
:10048000130000009300100113000000230211006C
:1004900003074100930E1001631ED70513021200DB
:1004A00093022000E31A52FC930170011302000032
:1004B00017210000130101B5130000001300000014
:1004C00093001000A302110003075100930E1000C7
:1004D0006312D7031302120093022000E31A52FCA6
:1004E0001305F00E972500009385C5B1A381A500E3
:1004F000631030020F00F00F638001009391110030
:1005000093E111009308D0051385010073000000EA
:100510000F00F00F930110009308D00513050000A1
:1005200073000000731000C0000000000000000015
:0C053000000000000000000000000000BF
:1010000000000000000000000000000000000000E0
:1010100000000000000000000000000000000000D0
:1010200000000000000000000000000000000000C0
:1010300000000000000000000000000000000000B0
:081040000000000000000000A8
:10200000EFEFEFEFEFEFEFEFEFEF0000000000007A
:040000058000000077
:00000001FF
