:0200000480007A
:100000006F00C0006F20C0276F2080279300000082
:10001000130100009301000013020000930200008E
:100020001303000093030000130400009304000076
:10003000130500009305000013060000930600005E
:100040001307000093070000130800009308000046
:100050001309000093090000130A0000930A00002E
:10006000130B0000930B0000130C0000930C000016
:10007000130D0000930D0000130E0000930E0000FE
:10008000130F0000930F000097020000938202F804
:1000900073905230177100001301412DF32240F18B
:1000A0009392C2003301510073100134EF20103AD3
:1000B00017350000130505BA6F20D01583224508B7
:1000C0007390121483204500032185008321C5000D
:1000D0000322050183224501032385018323C501F2
:1000E00003240502832445028325C5020326050354
:1000F00083264503032785038327C50303280504B7
:1001000083284504032985048329C504032A05059A
:10011000832A4505032B8505832BC505032C05067E
:10012000832C4506032D8506832DC506032E050762
:10013000832E4507032F8507832FC50703258502D7
:1001400073002010731101142322110023263100A3
:1001500023284100232A5100232C6100232E710003
:1001600023208102232291022324A1022326B1020B
:100170002328C102232AD102232CE102232EF102DB
:1001800023200105232211052324210523263105DF
:1001900023284105232A5105232C6105232E7105AF
:1001A00023208107232291072324A1072326B107B7
:1001B0002328C107232AD107232CE107232EF10787
:1001C000F312011423245100F322001023205108BC
:1001D000F322101423225108F3223014232451084F
:1001E000F322201423265108130501006F20004735
:1010000000000000000000000000000000000000E0
:1010100000000000000000000000000000000000D0
:1010200000000000000000000000000000000000C0
:1010300000000000000000000000000000000000B0
:081040000000000000000000A8
:10200000B3E7C500B367F50093F73700B306C50023
:10201000638407023386C50093070500637ED502FB
:1020200003C705009385150093871700A38FE7FE6C
:10203000E398C5FE67800000E37ED5FE93070500A8
:1020400003A70500938747009385450023AEE7FE6D
:10205000E3E8D7FE6780000067800000B367C50033
:1020600093F737003306C5006380070293F5F50F39
:10207000930705006370C50493871700A38FB7FE0D
:10208000E31CF6FE6780000093F5F50F939785003B
:10209000B3E7B70093950701B3E5F500E374C5FE18
:1020A000930705009387470023AEB7FEE3ECC7FE16
:1020B000678000006780000083470500638E07008B
:1020C0009307050003C7170093871700E31C07FE5B
:1020D0003385A7406780000013050000678000007B
:1020E00083470500938515001305150003C7F5FF09
:1020F00063880700E386E7FE3385E74067800000DA
:10210000930700006FF05FFFB367B50093F73700E8
:10211000639E07021378C6FF330805016378050341
:10212000930705006F0000019387470093854500E2
:1021300063F8070183A6070003A70500E386E6FE10
:102140003385A7403306A640138507003386C500B4
:102150006F00400103C705008347F5FF9385150015
:10216000639AE70013051500E396C5FE130500000A
:10217000678000003385E740678000009307050013
:1021800003C705009387170093851500A38FE7FE0B
:10219000E31807FE6780000003470500930600026E
:1021A000930705006318D70003C71700938717002C
:1021B000E30CD7FE9306D0026300D7069306B00265
:1021C0006300D70483C607009305000063820604FA
:1021D0001305000093871700138606FD13172500CB
:1021E00083C607003305A700131515003305A600A5
:1021F000E39206FE638005023305A040678000007D
:1022000083C617009305000093871700E39206FC2E
:10221000130500006780000083C6170093051000B7
:1022200093871700E39606FA130500006FF09FFEF0
:1022300017F6FFFF130606DD032706008327460077
:102240009355F5413367F7006306070297F6FFFFE2
:10225000938646DF9307000023A0F60013080000D2
:1022600023A2060103270600832746003367F700F1
:10227000E31207FE2320A6002322B6006F00000011
:10228000130101FF1305903423261100EFF05FFACC
:10229000130101FE1306C1001307B10113039000DF
:1022A0006F008000138707009377F500B337F300C2
:1022B000B307F04093F777029376F500938707030F
:1022C000B387F6002300F7009396C5011355450028
:1022D0009307F7FF33E5A60093D54500E314E6FC2A
:1022E0000345C100230E01006302050693050600A5
:1022F00097F6FFFF938606D117F6FFFF130686D4E5
:1023000003A7060083A74600130805009385150060
:102310003367F700B70801016302070213070000E3
:102320002320E600930700002322F60003A70600FF
:1023300083A746003367F700E31207FE03C50500D5
:1023400023A0060123A21601E31C05FA13010102D2
:102350006780000037F6FFFF3307C500B7E70300CB
:102360006370F7149356C50093820640172300004C
:10237000130343C993972200B307F30003A7070091
:102380003375C5006306070293760704638C060E57
:1023900093760708639206189306F000639ED5169D
:1023A0001367070823A0E700730005126780000089
:1023B0001747000013074704832507006384051CA3
:1023C00083A74500174600000326C6022320F70016
:1023D0006382C70C03A7050093972200B307F3009D
:1023E0001357C7001317A700136EF70D1366F701F5
:1023F00023A0C7017300051297470000938707E0E9
:1024000093963600B386D70083A706006392071E13
:1024100083A7050023A0F60083A74500B7050400A5
:1024200023A2F600F3A50510B707C0FFB307F50018
:10243000B716000013070500B386D70083AE070068
:1024400003AE470083A8870003A8C7002320D70155
:102450002322C7012324170123260701938707019D
:1024600013070701E39CD7FC739005109397220094
:10247000B307F30023A0C700730005120F1000007C
:10248000678000001367070423A0E70073000512AC
:10249000678000009747000023AE07F46FF09FF3BA
:1024A00013051004971500009385458297F6FFFFEA
:1024B000938646B517F6FFFF1306C6B803A70600B6
:1024C00083A7460013030500938515003367F700C3
:1024D000B703010163020702930700002320F600FF
:1024E000130800002322060103A7060083A7460065
:1024F0003367F700E31207FE03C5050023A066005B
:1025000023A27600E31C05FA130101FF1305300036
:1025100023261100EFF0DFD113051004970500000A
:102520009385057F97F6FFFF9386C6AD17F6FFFFED
:10253000130646B103A7060083A74600130E050045
:10254000938515003367F700B70E01016302070298
:10255000930700002320F600130800002322060141
:1025600003A7060083A746003367F700E31207FEC0
:1025700003C5050023A0C60123A2D601E31C05FA6A
:102580006FF09FF813051004970500009385C57C34
:1025900097F6FFFF938606A717F6FFFF130686AA96
:1025A00003A7060083A74600130F050093851500B7
:1025B0003367F700B70F01016302070293070000BA
:1025C0002320F600130800002322060103A70600BB
:1025D00083A746003367F700E31207FE03C5050033
:1025E00023A0E60123A2F601E31C05FA6FF0DFF158
:1025F00013051004970500009385857797F6FFFF74
:10260000938646A017F6FFFF1306C6A303A706008E
:1026100083A7460013080500938515003367F7006C
:10262000B708010163020702130700002320E60038
:10263000930700002322F60003A7060083A74600A5
:102640003367F700E31207FE03C5050023A0060168
:1026500023A21601E31C05FA6FF01FEB8325C508C2
:10266000130101FB23248104232611042322910456
:1026700023202105232E3103232C4103232A510338
:10268000232861032326710323248103232291033A
:102690002320A103232EB10193078000130405001A
:1026A0006386F516930720006380F506938745FF40
:1026B000130710006376F7009307F0006392F5228A
:1026C00003258408EFF01FC91305040003248104C7
:1026D0008320C10483244104032901048329C10305
:1026E000032A8103832A4103032B0103832BC102A5
:1026F000032C8102832C4102032D0102832DC10191
:10270000130101056FD09F9B03274508937737007E
:1027100063980708EF078000731030000327070055
:1027200083A70700630AF706130510049705000046
:102730009385857097F6FFFF9386C68C17F6FFFF8B
:102740001306469003A7060083A74600130805005A
:10275000938515003367F700B7080101630207028C
:10276000130700002320E600930700002322F60051
:1027700003A7060083A746003367F700E31207FEAE
:1027800003C5050023A0060123A21601E31C05FAD8
:1027900013053000EFF0DFA913051000EFF05FA97B
:1027A00097050000938505671306100497F6FFFF51
:1027B0009386468517F5FFFF1305C58803A7060016
:1027C00083A74600130E0600938515003367F700B4
:1027D000B70E010163020702930700002320F500F2
:1027E000130800002322050103A7060083A7460063
:1027F0003367F700E31207FE03C6050023A0C601F6
:1028000023A2D601E31C06FA6FF09FF8032B850282
:10281000371C0000974400009384449E171D00005D
:10282000130D4D7EB70C0400974B0000938B8BBCAF
:102830006F00C00123A2870023A08B00B717000000
:10284000330CFC00B7F703006302FC1C9357CC0069
:10285000139437003386840003260600E30006FE47
:102860009387074093972700B307FD0083A70700CE
:1028700013F60704630C06122326F100F3AD0C10C7
:10288000B707C0FFB305FC003716000013050C00A6
:102890002324B100EFF05F87630005028327C100A6
:1028A0008325810093F707086382070A3716000023
:1028B00013050C00EFF0CFF43384840073900D10F7
:1028C00083A70B0023200400E39607F69747000038
:1028D000938787B223A08B0023A087006FF01FF699
:1028E00093051004170600001306C65797E6FFFF6E
:1028F0009386467117E5FFFF1305C57403A706000D
:1029000083A7460013830500130616003367F700FC
:10291000B703010163020702930700002320F500BB
:10292000130800002322050103A7060083A7460021
:102930003367F700E31207FE8345060023A0660015
:1029400023A27600E39C05FA6FF09FE4930710043E
:10295000170600001306C64897E6FFFF9386866AAF
:1029600097E5FFFF9385056E138907001306160090
:10297000B70901016F004001930700001308000030
:1029800023A0F50023A2050103A7060083A74600A4
:102990003367F700E31207FE8347060023A02601F2
:1029A00023A23601E39207FC6FF09FDE9307100429
:1029B000170600001306863F97E6FFFF938686649E
:1029C00097E5FFFF93850568138A07001306160035
:1029D000B70A01016F0040019307000013080000CF
:1029E00023A0F50023A2050103A7060083A7460044
:1029F0003367F700E31207FE8347060023A0460172
:102A000023A25601E39207FC6FF09FD813050B0039
:102A1000EFF01F82F32740F163920716172600009C
:102A20001306465E9357C600130101F69397A7005D
:102A3000232E1108232C8108971500009385855CAF
:102A400093E7170023A0F500B707002093D6C50031
:102A5000370700809387F70C232EF6FEB3E7E600D6
:102A600073900718F3260018639AD716130405000D
:102A70001347F7FF9307F00197020000938242018A
:102A8000F39252307310073B7390073A97D7BF7F8A
:102A90009387876B73905710F3270034B708C07F74
:102AA000B387170173900714B7B700009387071017
:102AB00073902730B7E701007390073073504030B0
:102AC0009737C07F93870754174700002326F79254
:102AD0009737C07F9387077217470000232CF79022
:102AE00037030800173700001307C751173E0000CF
:102AF000130ECE7093072002930500001303F30317
:102B0000938888001396F50193D61700B366D60014
:102B100033866700B3C7F600330817011316C600E3
:102B2000939757002320C7002322070193F707023A
:102B300013078700B3E7F60093D51500E314EEFC06
:102B400013060009930500001305010097370000E4
:102B500023A4076AEFF08FD0B70700803304F40096
:102B60001305010023228108EFD04FD58320C1092E
:102B7000032481091301010A67800000B7C7540AC2
:102B8000B70508009387A72E130700009385C5FF9C
:102B900037080080370500406F00C0022FA00600F4
:102BA0001316F70193D61700B366D600B3C7D70044
:102BB0009397E7013376F5001357170093870600C4
:102BC0003367E600B3F6B70013F61700B3860601C5
:102BD000E31606FC03A006006FF09FFC93051004AB
:102BE000170600001306C62A97E6FFFF9386864164
:102BF00017E5FFFF1305054503A7060083A7460059
:102C000013880500130616003367F700B7080101A3
:102C100063020702130700002320E500930700006A
:102C20002322F50003A7060083A746003367F700B9
:102C3000E31207FE8345060023A0060123A2160126
:102C4000E39C05FA13053000EFF08FDE678000008B
:102C50003705008093050080970600009386863A2A
:102C600023A0A6002FA7B660B70E00809301200016
:102C7000631ED70383A70600B70E008093013000C0
:102C80006396D703B70500802FA7B660B70E008004
:102C900093014000631CD70183A70600B70E008094
:102CA000930150006394D701631A3000139511000B
:102CB0006300050013651500730000001305100084
:082CC00073000000731000C056
:102CC800417373657274696F6E206661696C6564BF
:102CD8003A2061646472203E3D202831554C203CE6
:102CE8003C203132292026262061646472203C2051
:102CF8003633202A202831554C203C3C20313229BB
:102D08000A000000417373657274696F6E20666112
:102D1800696C65643A20212870745B315D5B61647D
:102D280064722F2831554C203C3C203132295D20DB
:102D380026203078303830292026262063617573A4
:102D480065203D3D203078660A00000041737365B8
:102D58007274696F6E206661696C65643A206E6F83
:102D680064650A00417373657274696F6E206661E9
:102D7800696C65643A20757365725F6D617070691E
:102D88006E675B616464722F2831554C203C3C208F
:102D98003132295D2E61646472203D3D20300A0085
:102DA800417373657274696F6E206661696C6564DE
:102DB8003A2070745B315D5B616464722F28315511
:102DC8004C203C3C203132295D202620307830349C
:102DD800300A0000417373657274696F6E20666112
:102DE800696C65643A2070745B315D5B6164647220
:102DF8002F2831554C203C3C203132295D2026209B
:102E080030783038300A0000417373657274696F26
:102E18006E206661696C65643A2074662D3E657043
:102E28006320252034203D3D20300A00417373651E
:102E38007274696F6E206661696C65643A2021223C
:102E4800696C6C6567616C20696E73747275637404
:102E5800696F6E220A000000417373657274696FAE
:102E68006E206661696C65643A202122756E65780A
:102E780070656374656420657863657074696F6EE6
:102E8800220A0000417373657274696F6E2066616F
:102E9800696C65643A202122756E737570706F7263
:102EA8007465642073617470206D6F6465220A0014
:040000058000000077
:00000001FF
