:0200000480007A
:100000006F00C004732F2034930F8000630AFF0336
:10001000930F90006306FF03930FB0006302FF038A
:10002000170F0080130F0FFE63040F0067000F000F
:10003000732F203463540F006F00400093E19153FD
:10004000171F000023203FFC6FF09FFF732540F136
:1000500063100500970200009382020173905230F2
:10006000735000189702000093820202739052307E
:10007000B70200809382F2FF7390023B9302F0017B
:100080007390023A9702000093828201739052307B
:100090007350203073503030735040309301000063
:1000A00097020000938242F67390523013051000BD
:1000B0001315F501634C05000F00F00F93011000BC
:1000C0009308D0051305000073000000970200801C
:1000D000938242F3638E020073905210B7B2000015
:1000E000938292107390223073232030E39862F44D
:1000F00073500030970200009382420173901234D3
:10010000732540F17300203097200000938080EF2A
:1001100003C70000930EF00F93012000631CD72348
:1001200097200000938000EE03C71000930E00009C
:10013000930130006310D72397200000938080EC58
:1001400003C72000930E000F930140006314D721D2
:1001500097200000938000EB03C73000930EF0005F
:10016000930150006318D71F972000009380B0E9D7
:1001700003C7D0FF930EF00F93016000631CD71DDF
:1001800097200000938030E803C7E0FF930E000043
:10019000930170006310D71D972000009380B0E694
:1001A00003C7F0FF930E000F930180006314D71B69
:1001B00097200000938030E503C70000930EF00005
:1001C000930190006318D71997200000938080E373
:1001D000938000FE83C20002930EF00F9301A000F3
:1001E000639AD217972000009380C0E19380A0FF0C
:1001F00083C27000930E00009301B000639CD2157F
:100200009301C0001302000097200000938090DF4C
:1002100003C7100013030700930E000F631CD313D2
:100220001302120093022000E31052FE9301D0004B
:1002300013020000972000009380E0DC03C7100049
:100240001300000013030700930EF0006314D31192
:100250001302120093022000E31E52FC9301E000FF
:1002600013020000972000009380C0D903C710003C
:10027000130000001300000013030700930E00009A
:10028000631AD30D1302120093022000E31C52FCE8
:100290009301F0001302000097200000938090D695
:1002A00003C71000930E000F6316D70B1302120042
:1002B00093022000E31252FE93010001130200009A
:1002C00097200000938020D41300000003C7100083
:1002D000930EF0006310D70913021200930220005E
:1002E000E31052FE9301100113020000972000005A
:1002F000938040D1130000001300000003C71000DA
:10030000930E00006318D705130212009302200019
:10031000E31E52FC972200009382C2CE03C102006A
:1003200013012000930E2000930120016314D103D8
:1003300097220000938202CD03C102001300000047
:1003400013012000930E2000930130016314D101AA
:10035000631030020F00F00F6380010093911100D1
:1003600093E111009308D00513850100730000008C
:100370000F00F00F930110009308D0051305000043
:1003800073000000731000C00000000000000000B7
:10039000000000000000000000000000000000005D
:1003A000000000000000000000000000000000004D
:1003B000000000000000000000000000000000003D
:0403C0000000000039
:1010000000000000000000000000000000000000E0
:1010100000000000000000000000000000000000D0
:1010200000000000000000000000000000000000C0
:1010300000000000000000000000000000000000B0
:081040000000000000000000A8
:10200000FF00F00F000000000000000000000000D2
:040000058000000077
:00000001FF
